{
  "contractName": "CoinWar",
  "abi": [
    {
      "constant": true,
      "inputs": [],
      "name": "token2",
      "outputs": [
        {
          "name": "",
          "type": "address"
        }
      ],
      "payable": false,
      "stateMutability": "view",
      "type": "function"
    },
    {
      "constant": false,
      "inputs": [
        {
          "name": "winningAddresses",
          "type": "address[]"
        },
        {
          "name": "winningBets",
          "type": "uint256[]"
        },
        {
          "name": "winningContract",
          "type": "address"
        },
        {
          "name": "loosingAddresses",
          "type": "address[]"
        },
        {
          "name": "loosingBets",
          "type": "uint256[]"
        },
        {
          "name": "loosingContract",
          "type": "address"
        }
      ],
      "name": "setResults",
      "outputs": [],
      "payable": false,
      "stateMutability": "nonpayable",
      "type": "function"
    },
    {
      "constant": true,
      "inputs": [],
      "name": "afterFee",
      "outputs": [
        {
          "name": "",
          "type": "bool"
        }
      ],
      "payable": false,
      "stateMutability": "view",
      "type": "function"
    },
    {
      "constant": false,
      "inputs": [],
      "name": "withdraw",
      "outputs": [],
      "payable": false,
      "stateMutability": "nonpayable",
      "type": "function"
    },
    {
      "constant": true,
      "inputs": [],
      "name": "getOpponentsBalance",
      "outputs": [
        {
          "name": "",
          "type": "uint256"
        },
        {
          "name": "",
          "type": "uint256"
        }
      ],
      "payable": false,
      "stateMutability": "view",
      "type": "function"
    },
    {
      "constant": true,
      "inputs": [],
      "name": "looser",
      "outputs": [
        {
          "name": "tokenContract",
          "type": "address"
        },
        {
          "name": "totalBet",
          "type": "uint256"
        }
      ],
      "payable": false,
      "stateMutability": "view",
      "type": "function"
    },
    {
      "constant": true,
      "inputs": [
        {
          "name": "amount",
          "type": "uint256"
        },
        {
          "name": "numerator",
          "type": "uint256"
        },
        {
          "name": "denominator",
          "type": "uint256"
        }
      ],
      "name": "fractionOf",
      "outputs": [
        {
          "name": "",
          "type": "uint256"
        }
      ],
      "payable": false,
      "stateMutability": "pure",
      "type": "function"
    },
    {
      "constant": true,
      "inputs": [],
      "name": "owner",
      "outputs": [
        {
          "name": "",
          "type": "address"
        }
      ],
      "payable": false,
      "stateMutability": "view",
      "type": "function"
    },
    {
      "constant": true,
      "inputs": [],
      "name": "toBlock",
      "outputs": [
        {
          "name": "",
          "type": "uint256"
        }
      ],
      "payable": false,
      "stateMutability": "view",
      "type": "function"
    },
    {
      "constant": true,
      "inputs": [
        {
          "name": "user",
          "type": "address"
        }
      ],
      "name": "getUserBet",
      "outputs": [
        {
          "name": "",
          "type": "uint256"
        },
        {
          "name": "",
          "type": "uint256"
        },
        {
          "name": "",
          "type": "uint256"
        },
        {
          "name": "",
          "type": "uint256"
        },
        {
          "name": "",
          "type": "uint256"
        }
      ],
      "payable": false,
      "stateMutability": "view",
      "type": "function"
    },
    {
      "constant": true,
      "inputs": [],
      "name": "token1",
      "outputs": [
        {
          "name": "",
          "type": "address"
        }
      ],
      "payable": false,
      "stateMutability": "view",
      "type": "function"
    },
    {
      "constant": true,
      "inputs": [],
      "name": "ownerFee",
      "outputs": [
        {
          "name": "",
          "type": "uint256"
        }
      ],
      "payable": false,
      "stateMutability": "view",
      "type": "function"
    },
    {
      "constant": true,
      "inputs": [],
      "name": "winner",
      "outputs": [
        {
          "name": "tokenContract",
          "type": "address"
        },
        {
          "name": "totalBet",
          "type": "uint256"
        }
      ],
      "payable": false,
      "stateMutability": "view",
      "type": "function"
    },
    {
      "constant": true,
      "inputs": [],
      "name": "fromBlock",
      "outputs": [
        {
          "name": "",
          "type": "uint256"
        }
      ],
      "payable": false,
      "stateMutability": "view",
      "type": "function"
    },
    {
      "constant": true,
      "inputs": [
        {
          "name": "team",
          "type": "address"
        }
      ],
      "name": "getTeamBet",
      "outputs": [
        {
          "name": "",
          "type": "uint256"
        }
      ],
      "payable": false,
      "stateMutability": "view",
      "type": "function"
    },
    {
      "inputs": [
        {
          "name": "_token1",
          "type": "address"
        },
        {
          "name": "_token2",
          "type": "address"
        },
        {
          "name": "_fromBlock",
          "type": "uint256"
        },
        {
          "name": "_toBlock",
          "type": "uint256"
        }
      ],
      "payable": false,
      "stateMutability": "nonpayable",
      "type": "constructor"
    },
    {
      "anonymous": false,
      "inputs": [
        {
          "indexed": false,
          "name": "addr",
          "type": "address"
        }
      ],
      "name": "LogAddress",
      "type": "event"
    },
    {
      "anonymous": false,
      "inputs": [
        {
          "indexed": false,
          "name": "str",
          "type": "string"
        }
      ],
      "name": "LogString",
      "type": "event"
    },
    {
      "anonymous": false,
      "inputs": [
        {
          "indexed": false,
          "name": "number",
          "type": "uint256"
        }
      ],
      "name": "LogUint",
      "type": "event"
    }
  ],
  "bytecode": "0x6060604052341561000f57600080fd5b60405160808061158183398101604052808051906020019091908051906020019091908051906020019091908051906020019091905050600073ffffffffffffffffffffffffffffffffffffffff168473ffffffffffffffffffffffffffffffffffffffff161415151561008257600080fd5b600073ffffffffffffffffffffffffffffffffffffffff168373ffffffffffffffffffffffffffffffffffffffff16141515156100be57600080fd5b836000806101000a81548173ffffffffffffffffffffffffffffffffffffffff021916908373ffffffffffffffffffffffffffffffffffffffff16021790555082600160006101000a81548173ffffffffffffffffffffffffffffffffffffffff021916908373ffffffffffffffffffffffffffffffffffffffff16021790555081600a8190555080600b8190555033600860006101000a81548173ffffffffffffffffffffffffffffffffffffffff021916908373ffffffffffffffffffffffffffffffffffffffff160217905550505050506113e0806101a16000396000f3006060604052600436106100db576000357c0100000000000000000000000000000000000000000000000000000000900463ffffffff16806325be124e146100e05780632c5bacd91461013557806336595d381461028d5780633ccfd60b146102ba5780635a774cd0146102cf578063640e48f6146102ff5780638a8e021b1461035b5780638da5cb5b146103a457806397006591146103f9578063c96adb0114610422578063d21220a71461048b578063d5b2a01a146104e0578063dfbf53ae14610509578063ed6a6d2814610565578063f18203891461058e575b600080fd5b34156100eb57600080fd5b6100f36105db565b604051808273ffffffffffffffffffffffffffffffffffffffff1673ffffffffffffffffffffffffffffffffffffffff16815260200191505060405180910390f35b341561014057600080fd5b61028b6004808035906020019082018035906020019080806020026020016040519081016040528093929190818152602001838360200280828437820191505050505050919080359060200190820180359060200190808060200260200160405190810160405280939291908181526020018383602002808284378201915050505050509190803573ffffffffffffffffffffffffffffffffffffffff16906020019091908035906020019082018035906020019080806020026020016040519081016040528093929190818152602001838360200280828437820191505050505050919080359060200190820180359060200190808060200260200160405190810160405280939291908181526020018383602002808284378201915050505050509190803573ffffffffffffffffffffffffffffffffffffffff16906020019091905050610601565b005b341561029857600080fd5b6102a0610a40565b604051808215151515815260200191505060405180910390f35b34156102c557600080fd5b6102cd610a53565b005b34156102da57600080fd5b6102e2610d2b565b604051808381526020018281526020019250505060405180910390f35b341561030a57600080fd5b610312610ef5565b604051808373ffffffffffffffffffffffffffffffffffffffff1673ffffffffffffffffffffffffffffffffffffffff1681526020018281526020019250505060405180910390f35b341561036657600080fd5b61038e6004808035906020019091908035906020019091908035906020019091905050610f27565b6040518082815260200191505060405180910390f35b34156103af57600080fd5b6103b7610f76565b604051808273ffffffffffffffffffffffffffffffffffffffff1673ffffffffffffffffffffffffffffffffffffffff16815260200191505060405180910390f35b341561040457600080fd5b61040c610f9c565b6040518082815260200191505060405180910390f35b341561042d57600080fd5b610459600480803573ffffffffffffffffffffffffffffffffffffffff16906020019091905050610fa2565b604051808681526020018581526020018481526020018381526020018281526020019550505050505060405180910390f35b341561049657600080fd5b61049e611172565b604051808273ffffffffffffffffffffffffffffffffffffffff1673ffffffffffffffffffffffffffffffffffffffff16815260200191505060405180910390f35b34156104eb57600080fd5b6104f3611197565b6040518082815260200191505060405180910390f35b341561051457600080fd5b61051c61119d565b604051808373ffffffffffffffffffffffffffffffffffffffff1673ffffffffffffffffffffffffffffffffffffffff1681526020018281526020019250505060405180910390f35b341561057057600080fd5b6105786111cf565b6040518082815260200191505060405180910390f35b341561059957600080fd5b6105c5600480803573ffffffffffffffffffffffffffffffffffffffff169060200190919050506111d5565b6040518082815260200191505060405180910390f35b600160009054906101000a900473ffffffffffffffffffffffffffffffffffffffff1681565b600080600860009054906101000a900473ffffffffffffffffffffffffffffffffffffffff1673ffffffffffffffffffffffffffffffffffffffff163373ffffffffffffffffffffffffffffffffffffffff1614151561066057600080fd5b8651885114151561067057600080fd5b8351855114151561068057600080fd5b8273ffffffffffffffffffffffffffffffffffffffff168673ffffffffffffffffffffffffffffffffffffffff16141515156106bb57600080fd5b6000809054906101000a900473ffffffffffffffffffffffffffffffffffffffff1673ffffffffffffffffffffffffffffffffffffffff168673ffffffffffffffffffffffffffffffffffffffff1614806107635750600160009054906101000a900473ffffffffffffffffffffffffffffffffffffffff1673ffffffffffffffffffffffffffffffffffffffff168673ffffffffffffffffffffffffffffffffffffffff16145b151561076e57600080fd5b6000809054906101000a900473ffffffffffffffffffffffffffffffffffffffff1673ffffffffffffffffffffffffffffffffffffffff168373ffffffffffffffffffffffffffffffffffffffff1614806108165750600160009054906101000a900473ffffffffffffffffffffffffffffffffffffffff1673ffffffffffffffffffffffffffffffffffffffff168373ffffffffffffffffffffffffffffffffffffffff16145b151561082157600080fd5b85600260000160006101000a81548173ffffffffffffffffffffffffffffffffffffffff021916908373ffffffffffffffffffffffffffffffffffffffff16021790555082600560000160006101000a81548173ffffffffffffffffffffffffffffffffffffffff021916908373ffffffffffffffffffffffffffffffffffffffff160217905550600091505b875182101561096b5786828151811015156108c557fe5b90602001906020020151600260010160008a858151811015156108e457fe5b9060200190602002015173ffffffffffffffffffffffffffffffffffffffff1673ffffffffffffffffffffffffffffffffffffffff16815260200190815260200160002060008282540192505081905550868281518110151561094357fe5b90602001906020020151600280016000828254019250508190555081806001019250506108ae565b600090505b8451811015610a2e57838181518110151561098757fe5b906020019060200201516005600101600087848151811015156109a657fe5b9060200190602002015173ffffffffffffffffffffffffffffffffffffffff1673ffffffffffffffffffffffffffffffffffffffff168152602001908152602001600020600082825401925050819055508381815181101515610a0557fe5b906020019060200201516005600201600082825401925050819055508080600101915050610970565b610a3661124a565b5050505050505050565b600c60009054906101000a900460ff1681565b60008060011515600c60009054906101000a900460ff161515141515610a7857600080fd5b600260010160003373ffffffffffffffffffffffffffffffffffffffff1673ffffffffffffffffffffffffffffffffffffffff16815260200190815260200160002054915060008214151515610acd57600080fd5b6000600280015414151515610ae157600080fd5b610af5600560020154836002800154610f27565b905060008114151515610b0757600080fd5b6000600260010160003373ffffffffffffffffffffffffffffffffffffffff1673ffffffffffffffffffffffffffffffffffffffff16815260200190815260200160002081905550600560000160009054906101000a900473ffffffffffffffffffffffffffffffffffffffff1673ffffffffffffffffffffffffffffffffffffffff1663a9059cbb33836000604051602001526040518363ffffffff167c0100000000000000000000000000000000000000000000000000000000028152600401808373ffffffffffffffffffffffffffffffffffffffff1673ffffffffffffffffffffffffffffffffffffffff16815260200182815260200192505050602060405180830381600087803b1515610c1f57600080fd5b6102c65a03f11515610c3057600080fd5b5050506040518051905050600260000160009054906101000a900473ffffffffffffffffffffffffffffffffffffffff1673ffffffffffffffffffffffffffffffffffffffff1663a9059cbb33846000604051602001526040518363ffffffff167c0100000000000000000000000000000000000000000000000000000000028152600401808373ffffffffffffffffffffffffffffffffffffffff1673ffffffffffffffffffffffffffffffffffffffff16815260200182815260200192505050602060405180830381600087803b1515610d0b57600080fd5b6102c65a03f11515610d1c57600080fd5b50505060405180519050505050565b6000806000809054906101000a900473ffffffffffffffffffffffffffffffffffffffff1673ffffffffffffffffffffffffffffffffffffffff166370a08231306000604051602001526040518263ffffffff167c0100000000000000000000000000000000000000000000000000000000028152600401808273ffffffffffffffffffffffffffffffffffffffff1673ffffffffffffffffffffffffffffffffffffffff168152602001915050602060405180830381600087803b1515610df257600080fd5b6102c65a03f11515610e0357600080fd5b50505060405180519050600160009054906101000a900473ffffffffffffffffffffffffffffffffffffffff1673ffffffffffffffffffffffffffffffffffffffff166370a08231306000604051602001526040518263ffffffff167c0100000000000000000000000000000000000000000000000000000000028152600401808273ffffffffffffffffffffffffffffffffffffffff1673ffffffffffffffffffffffffffffffffffffffff168152602001915050602060405180830381600087803b1515610ed257600080fd5b6102c65a03f11515610ee357600080fd5b50505060405180519050915091509091565b60058060000160009054906101000a900473ffffffffffffffffffffffffffffffffffffffff16908060020154905082565b6000808285101515610f485782848602811515610f4057fe5b049150610f6e565b60018584811515610f5557fe5b040190508083028185870202811515610f6a57fe5b0491505b509392505050565b600860009054906101000a900473ffffffffffffffffffffffffffffffffffffffff1681565b600b5481565b60008060008060008060009054906101000a900473ffffffffffffffffffffffffffffffffffffffff1673ffffffffffffffffffffffffffffffffffffffff16600260000160009054906101000a900473ffffffffffffffffffffffffffffffffffffffff1673ffffffffffffffffffffffffffffffffffffffff1614156110c9576001600260010160008873ffffffffffffffffffffffffffffffffffffffff1673ffffffffffffffffffffffffffffffffffffffff16815260200190815260200160002054600560010160008973ffffffffffffffffffffffffffffffffffffffff1673ffffffffffffffffffffffffffffffffffffffff16815260200190815260200160002054600280015460056002015484945094509450945094509450611169565b60028060010160008873ffffffffffffffffffffffffffffffffffffffff1673ffffffffffffffffffffffffffffffffffffffff16815260200190815260200160002054600560010160008973ffffffffffffffffffffffffffffffffffffffff1673ffffffffffffffffffffffffffffffffffffffff168152602001908152602001600020546002800154600560020154849450945094509450945094505b91939590929450565b6000809054906101000a900473ffffffffffffffffffffffffffffffffffffffff1681565b60095481565b60028060000160009054906101000a900473ffffffffffffffffffffffffffffffffffffffff16908060020154905082565b600a5481565b60008173ffffffffffffffffffffffffffffffffffffffff16600260000160009054906101000a900473ffffffffffffffffffffffffffffffffffffffff1673ffffffffffffffffffffffffffffffffffffffff16141561123c5760028001549050611245565b60056002015490505b919050565b60006005600201541415156113975761126b60056002015460016014610f27565b600981905550600954600560020160008282540392505081905550600560000160009054906101000a900473ffffffffffffffffffffffffffffffffffffffff1673ffffffffffffffffffffffffffffffffffffffff1663a9059cbb600860009054906101000a900473ffffffffffffffffffffffffffffffffffffffff166009546000604051602001526040518363ffffffff167c0100000000000000000000000000000000000000000000000000000000028152600401808373ffffffffffffffffffffffffffffffffffffffff1673ffffffffffffffffffffffffffffffffffffffff16815260200182815260200192505050602060405180830381600087803b151561137a57600080fd5b6102c65a03f1151561138b57600080fd5b50505060405180519050505b6001600c60006101000a81548160ff0219169083151502179055505600a165627a7a72305820d72ccb5dd32d68e130da8ea8ea3f9c8eba0ead1895c0c4b0725d77d174ac33b90029",
  "source": "pragma solidity ^0.4.18;\n\n//import { ERC20 } from \"./ERC20.sol\";\n\ncontract ERC20 {\n\n  function balanceOf(address _owner) public view returns (uint256 balance);\n  function transfer(address _to, uint256 _value) public returns (bool success);\n\n}\n\n\ncontract CoinWar {\n\n\n  ERC20 public token1;\n  ERC20 public token2;\n\n\n\n  struct Team {\n    ERC20 tokenContract;\n    mapping (address => uint) tokenMapping;\n    uint totalBet;\n  }\n\n  Team public winner;\n  Team public looser;\n\n  address public owner;\n  uint public ownerFee;\n\n  uint public fromBlock;\n  uint public toBlock;\n\n  //uint public burnAmount;\n  bool public afterFee;\n\n\n  event LogAddress(address addr);\n  event LogString(string str);\n  event LogUint(uint number);\n\n\n\n  function CoinWar(address _token1, address _token2, uint _fromBlock, uint _toBlock)\n    public\n  {\n\n    require(_token1 != address(0));\n    require(_token2 != address(0));\n\n    token1 = ERC20(_token1);\n    token2 = ERC20(_token2);\n\n    fromBlock = _fromBlock;\n    toBlock = _toBlock;\n\n\n    owner = msg.sender;\n\n  }\n\n  function setResults(address[] winningAddresses, uint[] winningBets, address winningContract, address[] loosingAddresses, uint[] loosingBets, address loosingContract)\n    public\n    onlyOwner\n    onlyAfterBlock\n  {\n    require(winningAddresses.length == winningBets.length);\n    require(loosingAddresses.length == loosingBets.length);\n\n    require(winningContract != loosingContract);\n    require((winningContract == address(token1)) || (winningContract == address(token2)));\n    require((loosingContract == address(token1)) || (loosingContract == address(token2)));\n\n    winner.tokenContract = ERC20(winningContract);\n    looser.tokenContract = ERC20(loosingContract);\n\n\n    for (uint i = 0; i < winningAddresses.length; i++) {\n      winner.tokenMapping[winningAddresses[i]] += winningBets[i];\n      winner.totalBet += winningBets[i];\n    }\n\n    for (uint j = 0; j < loosingAddresses.length; j++) {\n      looser.tokenMapping[loosingAddresses[j]] += loosingBets[j];\n      looser.totalBet += loosingBets[j];\n    }\n\n    //burn and take fee\n    takeOwnerFee();\n\n  }\n\n  function takeOwnerFee()\n    internal\n  {\n\n    //require()\n    if (looser.totalBet != 0) {\n\n      // 10% of total bets lost in the loosing coin\n      //burnAmount = fractionOf(looser.totalBet, 1, 10);\n\n      // 5% of the total bets lost in the loosing coin\n      ownerFee = fractionOf(looser.totalBet, 1, 20);\n\n      //looser.totalBet -= burnAmount;\n      looser.totalBet -= ownerFee;\n\n      //\"0x000000000000000000000000000000000000dEaD\" --> burn address to be added\n      //looser.tokenContract.transfer(address(looser.tokenContract), burnAmount);\n\n      // the loosing owner pays fees to the owner of CoinWar contract\n      looser.tokenContract.transfer(owner, ownerFee);\n    }\n\n    afterFee = true;\n  }\n\n  function withdraw()\n    public\n    onlyAfterFee\n  {\n    //add modifier to make sure burn and setResults passed\n    uint userBet = winner.tokenMapping[msg.sender];\n\n    require(userBet != 0);\n    require(winner.totalBet != 0);\n\n    uint winnings = fractionOf(looser.totalBet, userBet, winner.totalBet);\n\n    require(winnings != 0);\n\n    winner.tokenMapping[msg.sender] = 0;\n    looser.tokenContract.transfer(msg.sender, winnings);\n    winner.tokenContract.transfer(msg.sender, userBet);\n  }\n\n  /* Helpers */\n\n  function fractionOf(uint amount, uint numerator, uint denominator)\n    public\n    pure\n    returns (uint)\n  {\n\n    if (amount >= denominator)\n      return (amount*numerator)/denominator;\n\n    uint scalar;\n    scalar = (denominator/amount) + 1;\n\n    return (amount*numerator*scalar)/(denominator*scalar);\n\n  }\n\n  /* Getters */\n\n  function getOpponentsBalance()\n    public\n    view\n    returns (uint, uint)\n  {\n    return (token1.balanceOf(address(this)), token2.balanceOf(address(this)));\n  }\n\n  function getUserBet(address user)\n    public\n    view\n    returns (uint, uint, uint, uint, uint)\n  {\n    if (address(winner.tokenContract) == address(token1))\n      return (1, winner.tokenMapping[user],looser.tokenMapping[user], winner.totalBet, looser.totalBet);\n    return (2, winner.tokenMapping[user],looser.tokenMapping[user], winner.totalBet, looser.totalBet);\n  }\n\n  function getTeamBet(address team)\n    public\n    view\n    returns (uint)\n  {\n    if (address(winner.tokenContract) == team)\n      return winner.totalBet;\n    return looser.totalBet;\n  }\n\n  /* Modifiers */\n\n  modifier onlyOwner() {\n    require(msg.sender == owner);\n    _ ;\n  }\n\n  modifier onlyAfterBlock() {\n    //require(block.number >= toBlock);\n    _ ;\n  }\n\n  modifier onlyAfterFee() {\n    require(afterFee == true);\n    _ ;\n  }\n\n\n\n\n\n\n\n\n\n\n\n\n\n\n\n}\n",
  "sourcePath": "/Volumes/HD-B1/dapps/coinwars/src/solidity/contracts/CoinWar.sol",
  "compiler": {
    "name": "solc",
    "version": "0.4.19+commit.c4cbbb05.Emscripten.clang"
  },
  "schemaVersion": "2.0.0",
  "updatedAt": "2018-04-08T09:32:35.461Z"
}