{
  "contractName": "CoinWar",
  "abi": [
    {
      "constant": true,
      "inputs": [],
      "name": "token2",
      "outputs": [
        {
          "name": "",
          "type": "address"
        }
      ],
      "payable": false,
      "stateMutability": "view",
      "type": "function"
    },
    {
      "constant": false,
      "inputs": [
        {
          "name": "winningAddresses",
          "type": "address[]"
        },
        {
          "name": "winningBets",
          "type": "uint256[]"
        },
        {
          "name": "winningContract",
          "type": "address"
        },
        {
          "name": "loosingAddresses",
          "type": "address[]"
        },
        {
          "name": "loosingBets",
          "type": "uint256[]"
        },
        {
          "name": "loosingContract",
          "type": "address"
        }
      ],
      "name": "setResults",
      "outputs": [],
      "payable": false,
      "stateMutability": "nonpayable",
      "type": "function"
    },
    {
      "constant": true,
      "inputs": [],
      "name": "afterFee",
      "outputs": [
        {
          "name": "",
          "type": "bool"
        }
      ],
      "payable": false,
      "stateMutability": "view",
      "type": "function"
    },
    {
      "constant": false,
      "inputs": [],
      "name": "withdraw",
      "outputs": [],
      "payable": false,
      "stateMutability": "nonpayable",
      "type": "function"
    },
    {
      "constant": true,
      "inputs": [
        {
          "name": "user",
          "type": "address"
        }
      ],
      "name": "getUserBalance",
      "outputs": [
        {
          "name": "",
          "type": "uint256"
        },
        {
          "name": "",
          "type": "uint256"
        }
      ],
      "payable": false,
      "stateMutability": "view",
      "type": "function"
    },
    {
      "constant": true,
      "inputs": [],
      "name": "looser",
      "outputs": [
        {
          "name": "tokenContract",
          "type": "address"
        },
        {
          "name": "totalBet",
          "type": "uint256"
        }
      ],
      "payable": false,
      "stateMutability": "view",
      "type": "function"
    },
    {
      "constant": true,
      "inputs": [
        {
          "name": "amount",
          "type": "uint256"
        },
        {
          "name": "numerator",
          "type": "uint256"
        },
        {
          "name": "denominator",
          "type": "uint256"
        }
      ],
      "name": "fractionOf",
      "outputs": [
        {
          "name": "",
          "type": "uint256"
        }
      ],
      "payable": false,
      "stateMutability": "pure",
      "type": "function"
    },
    {
      "constant": true,
      "inputs": [],
      "name": "owner",
      "outputs": [
        {
          "name": "",
          "type": "address"
        }
      ],
      "payable": false,
      "stateMutability": "view",
      "type": "function"
    },
    {
      "constant": true,
      "inputs": [],
      "name": "toBlock",
      "outputs": [
        {
          "name": "",
          "type": "uint256"
        }
      ],
      "payable": false,
      "stateMutability": "view",
      "type": "function"
    },
    {
      "constant": true,
      "inputs": [
        {
          "name": "user",
          "type": "address"
        }
      ],
      "name": "getUserBet",
      "outputs": [
        {
          "name": "",
          "type": "uint256"
        },
        {
          "name": "",
          "type": "uint256"
        },
        {
          "name": "",
          "type": "uint256"
        },
        {
          "name": "",
          "type": "uint256"
        },
        {
          "name": "",
          "type": "uint256"
        }
      ],
      "payable": false,
      "stateMutability": "view",
      "type": "function"
    },
    {
      "constant": true,
      "inputs": [],
      "name": "token1",
      "outputs": [
        {
          "name": "",
          "type": "address"
        }
      ],
      "payable": false,
      "stateMutability": "view",
      "type": "function"
    },
    {
      "constant": true,
      "inputs": [],
      "name": "ownerFee",
      "outputs": [
        {
          "name": "",
          "type": "uint256"
        }
      ],
      "payable": false,
      "stateMutability": "view",
      "type": "function"
    },
    {
      "constant": true,
      "inputs": [],
      "name": "winner",
      "outputs": [
        {
          "name": "tokenContract",
          "type": "address"
        },
        {
          "name": "totalBet",
          "type": "uint256"
        }
      ],
      "payable": false,
      "stateMutability": "view",
      "type": "function"
    },
    {
      "constant": true,
      "inputs": [],
      "name": "fromBlock",
      "outputs": [
        {
          "name": "",
          "type": "uint256"
        }
      ],
      "payable": false,
      "stateMutability": "view",
      "type": "function"
    },
    {
      "constant": true,
      "inputs": [
        {
          "name": "team",
          "type": "address"
        }
      ],
      "name": "getTeamBet",
      "outputs": [
        {
          "name": "",
          "type": "uint256"
        }
      ],
      "payable": false,
      "stateMutability": "view",
      "type": "function"
    },
    {
      "inputs": [
        {
          "name": "_token1",
          "type": "address"
        },
        {
          "name": "_token2",
          "type": "address"
        },
        {
          "name": "_fromBlock",
          "type": "uint256"
        },
        {
          "name": "_toBlock",
          "type": "uint256"
        }
      ],
      "payable": false,
      "stateMutability": "nonpayable",
      "type": "constructor"
    },
    {
      "anonymous": false,
      "inputs": [
        {
          "indexed": false,
          "name": "addr",
          "type": "address"
        }
      ],
      "name": "LogAddress",
      "type": "event"
    },
    {
      "anonymous": false,
      "inputs": [
        {
          "indexed": false,
          "name": "str",
          "type": "string"
        }
      ],
      "name": "LogString",
      "type": "event"
    },
    {
      "anonymous": false,
      "inputs": [
        {
          "indexed": false,
          "name": "number",
          "type": "uint256"
        }
      ],
      "name": "LogUint",
      "type": "event"
    }
  ],
  "bytecode": "0x6060604052341561000f57600080fd5b60405160808061164783398101604052808051906020019091908051906020019091908051906020019091908051906020019091905050600073ffffffffffffffffffffffffffffffffffffffff168473ffffffffffffffffffffffffffffffffffffffff161415151561008257600080fd5b600073ffffffffffffffffffffffffffffffffffffffff168373ffffffffffffffffffffffffffffffffffffffff16141515156100be57600080fd5b836000806101000a81548173ffffffffffffffffffffffffffffffffffffffff021916908373ffffffffffffffffffffffffffffffffffffffff16021790555082600160006101000a81548173ffffffffffffffffffffffffffffffffffffffff021916908373ffffffffffffffffffffffffffffffffffffffff16021790555081600a8190555080600b8190555033600860006101000a81548173ffffffffffffffffffffffffffffffffffffffff021916908373ffffffffffffffffffffffffffffffffffffffff160217905550505050506114a6806101a16000396000f3006060604052600436106100db576000357c0100000000000000000000000000000000000000000000000000000000900463ffffffff16806325be124e146100e05780632c5bacd91461013557806336595d381461028d5780633ccfd60b146102ba57806347734892146102cf578063640e48f6146103235780638a8e021b1461037f5780638da5cb5b146103c8578063970065911461041d578063c96adb0114610446578063d21220a7146104af578063d5b2a01a14610504578063dfbf53ae1461052d578063ed6a6d2814610589578063f1820389146105b2575b600080fd5b34156100eb57600080fd5b6100f36105ff565b604051808273ffffffffffffffffffffffffffffffffffffffff1673ffffffffffffffffffffffffffffffffffffffff16815260200191505060405180910390f35b341561014057600080fd5b61028b6004808035906020019082018035906020019080806020026020016040519081016040528093929190818152602001838360200280828437820191505050505050919080359060200190820180359060200190808060200260200160405190810160405280939291908181526020018383602002808284378201915050505050509190803573ffffffffffffffffffffffffffffffffffffffff16906020019091908035906020019082018035906020019080806020026020016040519081016040528093929190818152602001838360200280828437820191505050505050919080359060200190820180359060200190808060200260200160405190810160405280939291908181526020018383602002808284378201915050505050509190803573ffffffffffffffffffffffffffffffffffffffff16906020019091905050610625565b005b341561029857600080fd5b6102a0610a64565b604051808215151515815260200191505060405180910390f35b34156102c557600080fd5b6102cd610a77565b005b34156102da57600080fd5b610306600480803573ffffffffffffffffffffffffffffffffffffffff16906020019091905050610d4f565b604051808381526020018281526020019250505060405180910390f35b341561032e57600080fd5b610336610f1a565b604051808373ffffffffffffffffffffffffffffffffffffffff1673ffffffffffffffffffffffffffffffffffffffff1681526020018281526020019250505060405180910390f35b341561038a57600080fd5b6103b26004808035906020019091908035906020019091908035906020019091905050610f4c565b6040518082815260200191505060405180910390f35b34156103d357600080fd5b6103db610f9b565b604051808273ffffffffffffffffffffffffffffffffffffffff1673ffffffffffffffffffffffffffffffffffffffff16815260200191505060405180910390f35b341561042857600080fd5b610430610fc1565b6040518082815260200191505060405180910390f35b341561045157600080fd5b61047d600480803573ffffffffffffffffffffffffffffffffffffffff16906020019091905050610fc7565b604051808681526020018581526020018481526020018381526020018281526020019550505050505060405180910390f35b34156104ba57600080fd5b6104c2611238565b604051808273ffffffffffffffffffffffffffffffffffffffff1673ffffffffffffffffffffffffffffffffffffffff16815260200191505060405180910390f35b341561050f57600080fd5b61051761125d565b6040518082815260200191505060405180910390f35b341561053857600080fd5b610540611263565b604051808373ffffffffffffffffffffffffffffffffffffffff1673ffffffffffffffffffffffffffffffffffffffff1681526020018281526020019250505060405180910390f35b341561059457600080fd5b61059c611295565b6040518082815260200191505060405180910390f35b34156105bd57600080fd5b6105e9600480803573ffffffffffffffffffffffffffffffffffffffff1690602001909190505061129b565b6040518082815260200191505060405180910390f35b600160009054906101000a900473ffffffffffffffffffffffffffffffffffffffff1681565b600080600860009054906101000a900473ffffffffffffffffffffffffffffffffffffffff1673ffffffffffffffffffffffffffffffffffffffff163373ffffffffffffffffffffffffffffffffffffffff1614151561068457600080fd5b8651885114151561069457600080fd5b835185511415156106a457600080fd5b8273ffffffffffffffffffffffffffffffffffffffff168673ffffffffffffffffffffffffffffffffffffffff16141515156106df57600080fd5b6000809054906101000a900473ffffffffffffffffffffffffffffffffffffffff1673ffffffffffffffffffffffffffffffffffffffff168673ffffffffffffffffffffffffffffffffffffffff1614806107875750600160009054906101000a900473ffffffffffffffffffffffffffffffffffffffff1673ffffffffffffffffffffffffffffffffffffffff168673ffffffffffffffffffffffffffffffffffffffff16145b151561079257600080fd5b6000809054906101000a900473ffffffffffffffffffffffffffffffffffffffff1673ffffffffffffffffffffffffffffffffffffffff168373ffffffffffffffffffffffffffffffffffffffff16148061083a5750600160009054906101000a900473ffffffffffffffffffffffffffffffffffffffff1673ffffffffffffffffffffffffffffffffffffffff168373ffffffffffffffffffffffffffffffffffffffff16145b151561084557600080fd5b85600260000160006101000a81548173ffffffffffffffffffffffffffffffffffffffff021916908373ffffffffffffffffffffffffffffffffffffffff16021790555082600560000160006101000a81548173ffffffffffffffffffffffffffffffffffffffff021916908373ffffffffffffffffffffffffffffffffffffffff160217905550600091505b875182101561098f5786828151811015156108e957fe5b90602001906020020151600260010160008a8581518110151561090857fe5b9060200190602002015173ffffffffffffffffffffffffffffffffffffffff1673ffffffffffffffffffffffffffffffffffffffff16815260200190815260200160002060008282540192505081905550868281518110151561096757fe5b90602001906020020151600280016000828254019250508190555081806001019250506108d2565b600090505b8451811015610a525783818151811015156109ab57fe5b906020019060200201516005600101600087848151811015156109ca57fe5b9060200190602002015173ffffffffffffffffffffffffffffffffffffffff1673ffffffffffffffffffffffffffffffffffffffff168152602001908152602001600020600082825401925050819055508381815181101515610a2957fe5b906020019060200201516005600201600082825401925050819055508080600101915050610994565b610a5a611310565b5050505050505050565b600c60009054906101000a900460ff1681565b60008060011515600c60009054906101000a900460ff161515141515610a9c57600080fd5b600260010160003373ffffffffffffffffffffffffffffffffffffffff1673ffffffffffffffffffffffffffffffffffffffff16815260200190815260200160002054915060008214151515610af157600080fd5b6000600280015414151515610b0557600080fd5b610b19600560020154836002800154610f4c565b905060008114151515610b2b57600080fd5b6000600260010160003373ffffffffffffffffffffffffffffffffffffffff1673ffffffffffffffffffffffffffffffffffffffff16815260200190815260200160002081905550600560000160009054906101000a900473ffffffffffffffffffffffffffffffffffffffff1673ffffffffffffffffffffffffffffffffffffffff1663a9059cbb33836000604051602001526040518363ffffffff167c0100000000000000000000000000000000000000000000000000000000028152600401808373ffffffffffffffffffffffffffffffffffffffff1673ffffffffffffffffffffffffffffffffffffffff16815260200182815260200192505050602060405180830381600087803b1515610c4357600080fd5b6102c65a03f11515610c5457600080fd5b5050506040518051905050600260000160009054906101000a900473ffffffffffffffffffffffffffffffffffffffff1673ffffffffffffffffffffffffffffffffffffffff1663a9059cbb33846000604051602001526040518363ffffffff167c0100000000000000000000000000000000000000000000000000000000028152600401808373ffffffffffffffffffffffffffffffffffffffff1673ffffffffffffffffffffffffffffffffffffffff16815260200182815260200192505050602060405180830381600087803b1515610d2f57600080fd5b6102c65a03f11515610d4057600080fd5b50505060405180519050505050565b6000806000809054906101000a900473ffffffffffffffffffffffffffffffffffffffff1673ffffffffffffffffffffffffffffffffffffffff166370a08231846000604051602001526040518263ffffffff167c0100000000000000000000000000000000000000000000000000000000028152600401808273ffffffffffffffffffffffffffffffffffffffff1673ffffffffffffffffffffffffffffffffffffffff168152602001915050602060405180830381600087803b1515610e1657600080fd5b6102c65a03f11515610e2757600080fd5b50505060405180519050600160009054906101000a900473ffffffffffffffffffffffffffffffffffffffff1673ffffffffffffffffffffffffffffffffffffffff166370a08231856000604051602001526040518263ffffffff167c0100000000000000000000000000000000000000000000000000000000028152600401808273ffffffffffffffffffffffffffffffffffffffff1673ffffffffffffffffffffffffffffffffffffffff168152602001915050602060405180830381600087803b1515610ef657600080fd5b6102c65a03f11515610f0757600080fd5b5050506040518051905091509150915091565b60058060000160009054906101000a900473ffffffffffffffffffffffffffffffffffffffff16908060020154905082565b6000808285101515610f6d5782848602811515610f6557fe5b049150610f93565b60018584811515610f7a57fe5b040190508083028185870202811515610f8f57fe5b0491505b509392505050565b600860009054906101000a900473ffffffffffffffffffffffffffffffffffffffff1681565b600b5481565b60008060008060008060009054906101000a900473ffffffffffffffffffffffffffffffffffffffff1673ffffffffffffffffffffffffffffffffffffffff16600260000160009054906101000a900473ffffffffffffffffffffffffffffffffffffffff1673ffffffffffffffffffffffffffffffffffffffff1614156110ee576001600260010160008873ffffffffffffffffffffffffffffffffffffffff1673ffffffffffffffffffffffffffffffffffffffff16815260200190815260200160002054600560010160008973ffffffffffffffffffffffffffffffffffffffff1673ffffffffffffffffffffffffffffffffffffffff1681526020019081526020016000205460028001546005600201548494509450945094509450945061122f565b600160009054906101000a900473ffffffffffffffffffffffffffffffffffffffff1673ffffffffffffffffffffffffffffffffffffffff16600260000160009054906101000a900473ffffffffffffffffffffffffffffffffffffffff1673ffffffffffffffffffffffffffffffffffffffff16141561120d5760028060010160008873ffffffffffffffffffffffffffffffffffffffff1673ffffffffffffffffffffffffffffffffffffffff16815260200190815260200160002054600560010160008973ffffffffffffffffffffffffffffffffffffffff1673ffffffffffffffffffffffffffffffffffffffff1681526020019081526020016000205460028001546005600201548494509450945094509450945061122f565b6000806000806000849450839350829250819150809050945094509450945094505b91939590929450565b6000809054906101000a900473ffffffffffffffffffffffffffffffffffffffff1681565b60095481565b60028060000160009054906101000a900473ffffffffffffffffffffffffffffffffffffffff16908060020154905082565b600a5481565b60008173ffffffffffffffffffffffffffffffffffffffff16600260000160009054906101000a900473ffffffffffffffffffffffffffffffffffffffff1673ffffffffffffffffffffffffffffffffffffffff161415611302576002800154905061130b565b60056002015490505b919050565b600060056002015414151561145d5761133160056002015460016014610f4c565b600981905550600954600560020160008282540392505081905550600560000160009054906101000a900473ffffffffffffffffffffffffffffffffffffffff1673ffffffffffffffffffffffffffffffffffffffff1663a9059cbb600860009054906101000a900473ffffffffffffffffffffffffffffffffffffffff166009546000604051602001526040518363ffffffff167c0100000000000000000000000000000000000000000000000000000000028152600401808373ffffffffffffffffffffffffffffffffffffffff1673ffffffffffffffffffffffffffffffffffffffff16815260200182815260200192505050602060405180830381600087803b151561144057600080fd5b6102c65a03f1151561145157600080fd5b50505060405180519050505b6001600c60006101000a81548160ff0219169083151502179055505600a165627a7a72305820be078d25a93f5778b18f36643a61c4885e6f669ca27da96fa5ebcc84ae28fc610029",
  "source": "pragma solidity ^0.4.18;\n\n//import { ERC20 } from \"./ERC20.sol\";\n\ncontract ERC20 {\n\n  function balanceOf(address _owner) public view returns (uint256 balance);\n  function transfer(address _to, uint256 _value) public returns (bool success);\n\n}\n\n\ncontract CoinWar {\n\n\n  ERC20 public token1;\n  ERC20 public token2;\n\n\n\n  struct Team {\n    ERC20 tokenContract;\n    mapping (address => uint) tokenMapping;\n    uint totalBet;\n  }\n\n  Team public winner;\n  Team public looser;\n\n  address public owner;\n  uint public ownerFee;\n\n  uint public fromBlock;\n  uint public toBlock;\n\n  //uint public burnAmount;\n  bool public afterFee;\n\n\n  event LogAddress(address addr);\n  event LogString(string str);\n  event LogUint(uint number);\n\n\n\n  function CoinWar(address _token1, address _token2, uint _fromBlock, uint _toBlock)\n    public\n  {\n\n    require(_token1 != address(0));\n    require(_token2 != address(0));\n\n    token1 = ERC20(_token1);\n    token2 = ERC20(_token2);\n\n    fromBlock = _fromBlock;\n    toBlock = _toBlock;\n\n\n    owner = msg.sender;\n\n  }\n\n  function setResults(address[] winningAddresses, uint[] winningBets, address winningContract, address[] loosingAddresses, uint[] loosingBets, address loosingContract)\n    public\n    onlyOwner\n    onlyAfterBlock\n  {\n    require(winningAddresses.length == winningBets.length);\n    require(loosingAddresses.length == loosingBets.length);\n\n    require(winningContract != loosingContract);\n    require((winningContract == address(token1)) || (winningContract == address(token2)));\n    require((loosingContract == address(token1)) || (loosingContract == address(token2)));\n\n    winner.tokenContract = ERC20(winningContract);\n    looser.tokenContract = ERC20(loosingContract);\n\n\n    for (uint i = 0; i < winningAddresses.length; i++) {\n      winner.tokenMapping[winningAddresses[i]] += winningBets[i];\n      winner.totalBet += winningBets[i];\n    }\n\n    for (uint j = 0; j < loosingAddresses.length; j++) {\n      looser.tokenMapping[loosingAddresses[j]] += loosingBets[j];\n      looser.totalBet += loosingBets[j];\n    }\n\n    //burn and take fee\n    takeOwnerFee();\n\n  }\n\n  function takeOwnerFee()\n    internal\n  {\n\n    //require()\n    if (looser.totalBet != 0) {\n\n      // 10% of total bets lost in the loosing coin\n      //burnAmount = fractionOf(looser.totalBet, 1, 10);\n\n      // 5% of the total bets lost in the loosing coin\n      ownerFee = fractionOf(looser.totalBet, 1, 20);\n\n      //looser.totalBet -= burnAmount;\n      looser.totalBet -= ownerFee;\n\n      //\"0x000000000000000000000000000000000000dEaD\" --> burn address to be added\n      //looser.tokenContract.transfer(address(looser.tokenContract), burnAmount);\n\n      // the loosing owner pays fees to the owner of CoinWar contract\n      looser.tokenContract.transfer(owner, ownerFee);\n    }\n\n    afterFee = true;\n  }\n\n  function withdraw()\n    public\n    onlyAfterFee\n  {\n    //add modifier to make sure burn and setResults passed\n    uint userBet = winner.tokenMapping[msg.sender];\n\n    require(userBet != 0);\n    require(winner.totalBet != 0);\n\n    uint winnings = fractionOf(looser.totalBet, userBet, winner.totalBet);\n\n    require(winnings != 0);\n\n    winner.tokenMapping[msg.sender] = 0;\n    looser.tokenContract.transfer(msg.sender, winnings);\n    winner.tokenContract.transfer(msg.sender, userBet);\n  }\n\n  /* Helpers */\n\n  function fractionOf(uint amount, uint numerator, uint denominator)\n    public\n    pure\n    returns (uint)\n  {\n\n    if (amount >= denominator)\n      return (amount*numerator)/denominator;\n\n    uint scalar;\n    scalar = (denominator/amount) + 1;\n\n    return (amount*numerator*scalar)/(denominator*scalar);\n\n  }\n\n  /* Getters */\n\n  function getUserBalance(address user)\n    public\n    view\n    returns (uint, uint)\n  {\n    return (token1.balanceOf(user), token2.balanceOf(user));\n  }\n\n  function getUserBet(address user)\n    public\n    view\n    returns (uint, uint, uint, uint, uint)\n  {\n    if (address(winner.tokenContract) == address(token1)) {\n      return (1, winner.tokenMapping[user],looser.tokenMapping[user], winner.totalBet, looser.totalBet);\n    } else if (address(winner.tokenContract) == address(token2)) {\n      return (2, winner.tokenMapping[user],looser.tokenMapping[user], winner.totalBet, looser.totalBet);\n    } else {\n      return (0, 0, 0, 0, 0);\n    }\n\n\n  }\n\n  function getTeamBet(address team)\n    public\n    view\n    returns (uint)\n  {\n    if (address(winner.tokenContract) == team)\n      return winner.totalBet;\n    return looser.totalBet;\n  }\n\n  /* Modifiers */\n\n  modifier onlyOwner() {\n    require(msg.sender == owner);\n    _ ;\n  }\n\n  modifier onlyAfterBlock() {\n    //require(block.number >= toBlock);\n    _ ;\n  }\n\n  modifier onlyAfterFee() {\n    require(afterFee == true);\n    _ ;\n  }\n\n\n\n\n\n\n\n\n\n\n\n\n\n\n\n}\n",
  "sourcePath": "/Volumes/HD-B1/dapps/coinwars/src/solidity/contracts/CoinWar.sol",
  "compiler": {
    "name": "solc",
    "version": "0.4.19+commit.c4cbbb05.Emscripten.clang"
  },
  "schemaVersion": "2.0.0",
  "updatedAt": "2018-04-11T13:16:07.721Z"
}