{
  "contractName": "CoinWar",
  "abi": [
    {
      "constant": true,
      "inputs": [],
      "name": "token1Decimals",
      "outputs": [
        {
          "name": "",
          "type": "uint256"
        }
      ],
      "payable": false,
      "stateMutability": "view",
      "type": "function"
    },
    {
      "constant": true,
      "inputs": [],
      "name": "token2",
      "outputs": [
        {
          "name": "",
          "type": "address"
        }
      ],
      "payable": false,
      "stateMutability": "view",
      "type": "function"
    },
    {
      "constant": false,
      "inputs": [
        {
          "name": "winningAddresses",
          "type": "address[]"
        },
        {
          "name": "winningBets",
          "type": "uint256[]"
        },
        {
          "name": "winningContract",
          "type": "address"
        },
        {
          "name": "loosingAddresses",
          "type": "address[]"
        },
        {
          "name": "loosingBets",
          "type": "uint256[]"
        },
        {
          "name": "loosingContract",
          "type": "address"
        }
      ],
      "name": "setResults",
      "outputs": [],
      "payable": false,
      "stateMutability": "nonpayable",
      "type": "function"
    },
    {
      "constant": false,
      "inputs": [],
      "name": "withdraw",
      "outputs": [],
      "payable": false,
      "stateMutability": "nonpayable",
      "type": "function"
    },
    {
      "constant": true,
      "inputs": [],
      "name": "afterBurn",
      "outputs": [
        {
          "name": "",
          "type": "bool"
        }
      ],
      "payable": false,
      "stateMutability": "view",
      "type": "function"
    },
    {
      "constant": true,
      "inputs": [],
      "name": "burnAmount",
      "outputs": [
        {
          "name": "",
          "type": "uint256"
        }
      ],
      "payable": false,
      "stateMutability": "view",
      "type": "function"
    },
    {
      "constant": true,
      "inputs": [],
      "name": "getOpponentsBalance",
      "outputs": [
        {
          "name": "",
          "type": "uint256"
        },
        {
          "name": "",
          "type": "uint256"
        }
      ],
      "payable": false,
      "stateMutability": "view",
      "type": "function"
    },
    {
      "constant": true,
      "inputs": [],
      "name": "looser",
      "outputs": [
        {
          "name": "tokenContract",
          "type": "address"
        },
        {
          "name": "totalBet",
          "type": "uint256"
        }
      ],
      "payable": false,
      "stateMutability": "view",
      "type": "function"
    },
    {
      "constant": true,
      "inputs": [
        {
          "name": "amount",
          "type": "uint256"
        },
        {
          "name": "numerator",
          "type": "uint256"
        },
        {
          "name": "denominator",
          "type": "uint256"
        }
      ],
      "name": "fractionOf",
      "outputs": [
        {
          "name": "",
          "type": "uint256"
        }
      ],
      "payable": false,
      "stateMutability": "pure",
      "type": "function"
    },
    {
      "constant": true,
      "inputs": [],
      "name": "owner",
      "outputs": [
        {
          "name": "",
          "type": "address"
        }
      ],
      "payable": false,
      "stateMutability": "view",
      "type": "function"
    },
    {
      "constant": true,
      "inputs": [],
      "name": "toBlock",
      "outputs": [
        {
          "name": "",
          "type": "uint256"
        }
      ],
      "payable": false,
      "stateMutability": "view",
      "type": "function"
    },
    {
      "constant": true,
      "inputs": [
        {
          "name": "user",
          "type": "address"
        }
      ],
      "name": "getUserBet",
      "outputs": [
        {
          "name": "",
          "type": "uint256"
        },
        {
          "name": "",
          "type": "uint256"
        }
      ],
      "payable": false,
      "stateMutability": "view",
      "type": "function"
    },
    {
      "constant": true,
      "inputs": [],
      "name": "token1",
      "outputs": [
        {
          "name": "",
          "type": "address"
        }
      ],
      "payable": false,
      "stateMutability": "view",
      "type": "function"
    },
    {
      "constant": true,
      "inputs": [],
      "name": "ownerFee",
      "outputs": [
        {
          "name": "",
          "type": "uint256"
        }
      ],
      "payable": false,
      "stateMutability": "view",
      "type": "function"
    },
    {
      "constant": true,
      "inputs": [],
      "name": "winner",
      "outputs": [
        {
          "name": "tokenContract",
          "type": "address"
        },
        {
          "name": "totalBet",
          "type": "uint256"
        }
      ],
      "payable": false,
      "stateMutability": "view",
      "type": "function"
    },
    {
      "constant": true,
      "inputs": [],
      "name": "fromBlock",
      "outputs": [
        {
          "name": "",
          "type": "uint256"
        }
      ],
      "payable": false,
      "stateMutability": "view",
      "type": "function"
    },
    {
      "constant": true,
      "inputs": [
        {
          "name": "team",
          "type": "address"
        }
      ],
      "name": "getTeamBet",
      "outputs": [
        {
          "name": "",
          "type": "uint256"
        }
      ],
      "payable": false,
      "stateMutability": "view",
      "type": "function"
    },
    {
      "inputs": [
        {
          "name": "_token1",
          "type": "address"
        },
        {
          "name": "_token2",
          "type": "address"
        },
        {
          "name": "_fromBlock",
          "type": "uint256"
        },
        {
          "name": "_toBlock",
          "type": "uint256"
        }
      ],
      "payable": false,
      "stateMutability": "nonpayable",
      "type": "constructor"
    },
    {
      "anonymous": false,
      "inputs": [
        {
          "indexed": false,
          "name": "addr",
          "type": "address"
        }
      ],
      "name": "LogAddress",
      "type": "event"
    },
    {
      "anonymous": false,
      "inputs": [
        {
          "indexed": false,
          "name": "str",
          "type": "string"
        }
      ],
      "name": "LogString",
      "type": "event"
    },
    {
      "anonymous": false,
      "inputs": [
        {
          "indexed": false,
          "name": "number",
          "type": "uint256"
        }
      ],
      "name": "LogUint",
      "type": "event"
    }
  ],
  "bytecode": "0x6060604052341561000f57600080fd5b6040516080806115e683398101604052808051906020019091908051906020019091908051906020019091908051906020019091905050600073ffffffffffffffffffffffffffffffffffffffff168473ffffffffffffffffffffffffffffffffffffffff161415151561008257600080fd5b600073ffffffffffffffffffffffffffffffffffffffff168373ffffffffffffffffffffffffffffffffffffffff16141515156100be57600080fd5b836000806101000a81548173ffffffffffffffffffffffffffffffffffffffff021916908373ffffffffffffffffffffffffffffffffffffffff16021790555082600160006101000a81548173ffffffffffffffffffffffffffffffffffffffff021916908373ffffffffffffffffffffffffffffffffffffffff16021790555081600b8190555080600c8190555033600960006101000a81548173ffffffffffffffffffffffffffffffffffffffff021916908373ffffffffffffffffffffffffffffffffffffffff16021790555050505050611445806101a16000396000f3006060604052600436106100f1576000357c0100000000000000000000000000000000000000000000000000000000900463ffffffff1680630b77884d146100f657806325be124e1461011f5780632c5bacd9146101745780633ccfd60b146102cc57806342eec2ed146102e1578063486a7e6b1461030e5780635a774cd014610337578063640e48f6146103675780638a8e021b146103c35780638da5cb5b1461040c5780639700659114610461578063c96adb011461048a578063d21220a7146104de578063d5b2a01a14610533578063dfbf53ae1461055c578063ed6a6d28146105b8578063f1820389146105e1575b600080fd5b341561010157600080fd5b61010961062e565b6040518082815260200191505060405180910390f35b341561012a57600080fd5b610132610634565b604051808273ffffffffffffffffffffffffffffffffffffffff1673ffffffffffffffffffffffffffffffffffffffff16815260200191505060405180910390f35b341561017f57600080fd5b6102ca6004808035906020019082018035906020019080806020026020016040519081016040528093929190818152602001838360200280828437820191505050505050919080359060200190820180359060200190808060200260200160405190810160405280939291908181526020018383602002808284378201915050505050509190803573ffffffffffffffffffffffffffffffffffffffff16906020019091908035906020019082018035906020019080806020026020016040519081016040528093929190818152602001838360200280828437820191505050505050919080359060200190820180359060200190808060200260200160405190810160405280939291908181526020018383602002808284378201915050505050509190803573ffffffffffffffffffffffffffffffffffffffff1690602001909190505061065a565b005b34156102d757600080fd5b6102df610a9a565b005b34156102ec57600080fd5b6102f4610d74565b604051808215151515815260200191505060405180910390f35b341561031957600080fd5b610321610d87565b6040518082815260200191505060405180910390f35b341561034257600080fd5b61034a610d8d565b604051808381526020018281526020019250505060405180910390f35b341561037257600080fd5b61037a610f57565b604051808373ffffffffffffffffffffffffffffffffffffffff1673ffffffffffffffffffffffffffffffffffffffff1681526020018281526020019250505060405180910390f35b34156103ce57600080fd5b6103f66004808035906020019091908035906020019091908035906020019091905050610f89565b6040518082815260200191505060405180910390f35b341561041757600080fd5b61041f610fd8565b604051808273ffffffffffffffffffffffffffffffffffffffff1673ffffffffffffffffffffffffffffffffffffffff16815260200191505060405180910390f35b341561046c57600080fd5b610474610ffe565b6040518082815260200191505060405180910390f35b341561049557600080fd5b6104c1600480803573ffffffffffffffffffffffffffffffffffffffff16906020019091905050611004565b604051808381526020018281526020019250505060405180910390f35b34156104e957600080fd5b6104f1611096565b604051808273ffffffffffffffffffffffffffffffffffffffff1673ffffffffffffffffffffffffffffffffffffffff16815260200191505060405180910390f35b341561053e57600080fd5b6105466110bb565b6040518082815260200191505060405180910390f35b341561056757600080fd5b61056f6110c1565b604051808373ffffffffffffffffffffffffffffffffffffffff1673ffffffffffffffffffffffffffffffffffffffff1681526020018281526020019250505060405180910390f35b34156105c357600080fd5b6105cb6110f3565b6040518082815260200191505060405180910390f35b34156105ec57600080fd5b610618600480803573ffffffffffffffffffffffffffffffffffffffff169060200190919050506110f9565b6040518082815260200191505060405180910390f35b60025481565b600160009054906101000a900473ffffffffffffffffffffffffffffffffffffffff1681565b600080600960009054906101000a900473ffffffffffffffffffffffffffffffffffffffff1673ffffffffffffffffffffffffffffffffffffffff163373ffffffffffffffffffffffffffffffffffffffff161415156106b957600080fd5b865188511415156106c957600080fd5b835185511415156106d957600080fd5b8273ffffffffffffffffffffffffffffffffffffffff168673ffffffffffffffffffffffffffffffffffffffff161415151561071457600080fd5b6000809054906101000a900473ffffffffffffffffffffffffffffffffffffffff1673ffffffffffffffffffffffffffffffffffffffff168673ffffffffffffffffffffffffffffffffffffffff1614806107bc5750600160009054906101000a900473ffffffffffffffffffffffffffffffffffffffff1673ffffffffffffffffffffffffffffffffffffffff168673ffffffffffffffffffffffffffffffffffffffff16145b15156107c757600080fd5b6000809054906101000a900473ffffffffffffffffffffffffffffffffffffffff1673ffffffffffffffffffffffffffffffffffffffff168373ffffffffffffffffffffffffffffffffffffffff16148061086f5750600160009054906101000a900473ffffffffffffffffffffffffffffffffffffffff1673ffffffffffffffffffffffffffffffffffffffff168373ffffffffffffffffffffffffffffffffffffffff16145b151561087a57600080fd5b85600360000160006101000a81548173ffffffffffffffffffffffffffffffffffffffff021916908373ffffffffffffffffffffffffffffffffffffffff16021790555082600660000160006101000a81548173ffffffffffffffffffffffffffffffffffffffff021916908373ffffffffffffffffffffffffffffffffffffffff160217905550600091505b87518210156109c557868281518110151561091e57fe5b90602001906020020151600360010160008a8581518110151561093d57fe5b9060200190602002015173ffffffffffffffffffffffffffffffffffffffff1673ffffffffffffffffffffffffffffffffffffffff16815260200190815260200160002060008282540192505081905550868281518110151561099c57fe5b906020019060200201516003600201600082825401925050819055508180600101925050610907565b600090505b8451811015610a885783818151811015156109e157fe5b90602001906020020151600660010160008784815181101515610a0057fe5b9060200190602002015173ffffffffffffffffffffffffffffffffffffffff1673ffffffffffffffffffffffffffffffffffffffff168152602001908152602001600020600082825401925050819055508381815181101515610a5f57fe5b9060200190602002015160066002016000828254019250508190555080806001019150506109ca565b610a9061116f565b5050505050505050565b60008060011515600e60009054906101000a900460ff161515141515610abf57600080fd5b600360010160003373ffffffffffffffffffffffffffffffffffffffff1673ffffffffffffffffffffffffffffffffffffffff16815260200190815260200160002054915060008214151515610b1457600080fd5b600060036002015414151515610b2957600080fd5b610b3e60066002015483600360020154610f89565b905060008114151515610b5057600080fd5b6000600360010160003373ffffffffffffffffffffffffffffffffffffffff1673ffffffffffffffffffffffffffffffffffffffff16815260200190815260200160002081905550600660000160009054906101000a900473ffffffffffffffffffffffffffffffffffffffff1673ffffffffffffffffffffffffffffffffffffffff1663a9059cbb33836000604051602001526040518363ffffffff167c0100000000000000000000000000000000000000000000000000000000028152600401808373ffffffffffffffffffffffffffffffffffffffff1673ffffffffffffffffffffffffffffffffffffffff16815260200182815260200192505050602060405180830381600087803b1515610c6857600080fd5b6102c65a03f11515610c7957600080fd5b5050506040518051905050600360000160009054906101000a900473ffffffffffffffffffffffffffffffffffffffff1673ffffffffffffffffffffffffffffffffffffffff1663a9059cbb33846000604051602001526040518363ffffffff167c0100000000000000000000000000000000000000000000000000000000028152600401808373ffffffffffffffffffffffffffffffffffffffff1673ffffffffffffffffffffffffffffffffffffffff16815260200182815260200192505050602060405180830381600087803b1515610d5457600080fd5b6102c65a03f11515610d6557600080fd5b50505060405180519050505050565b600e60009054906101000a900460ff1681565b600d5481565b6000806000809054906101000a900473ffffffffffffffffffffffffffffffffffffffff1673ffffffffffffffffffffffffffffffffffffffff166370a08231306000604051602001526040518263ffffffff167c0100000000000000000000000000000000000000000000000000000000028152600401808273ffffffffffffffffffffffffffffffffffffffff1673ffffffffffffffffffffffffffffffffffffffff168152602001915050602060405180830381600087803b1515610e5457600080fd5b6102c65a03f11515610e6557600080fd5b50505060405180519050600160009054906101000a900473ffffffffffffffffffffffffffffffffffffffff1673ffffffffffffffffffffffffffffffffffffffff166370a08231306000604051602001526040518263ffffffff167c0100000000000000000000000000000000000000000000000000000000028152600401808273ffffffffffffffffffffffffffffffffffffffff1673ffffffffffffffffffffffffffffffffffffffff168152602001915050602060405180830381600087803b1515610f3457600080fd5b6102c65a03f11515610f4557600080fd5b50505060405180519050915091509091565b60068060000160009054906101000a900473ffffffffffffffffffffffffffffffffffffffff16908060020154905082565b6000808285101515610faa5782848602811515610fa257fe5b049150610fd0565b60018584811515610fb757fe5b040190508083028185870202811515610fcc57fe5b0491505b509392505050565b600960009054906101000a900473ffffffffffffffffffffffffffffffffffffffff1681565b600c5481565b600080600360010160008473ffffffffffffffffffffffffffffffffffffffff1673ffffffffffffffffffffffffffffffffffffffff16815260200190815260200160002054600660010160008573ffffffffffffffffffffffffffffffffffffffff1673ffffffffffffffffffffffffffffffffffffffff1681526020019081526020016000205491509150915091565b6000809054906101000a900473ffffffffffffffffffffffffffffffffffffffff1681565b600a5481565b60038060000160009054906101000a900473ffffffffffffffffffffffffffffffffffffffff16908060020154905082565b600b5481565b60008173ffffffffffffffffffffffffffffffffffffffff16600360000160009054906101000a900473ffffffffffffffffffffffffffffffffffffffff1673ffffffffffffffffffffffffffffffffffffffff16141561116157600360020154905061116a565b60066002015490505b919050565b60006006600201541415156113fc576111906006600201546001600a610f89565b600d819055506111a860066002015460016014610f89565b600a81905550600d54600660020160008282540392505081905550600a54600660020160008282540392505081905550600660000160009054906101000a900473ffffffffffffffffffffffffffffffffffffffff1673ffffffffffffffffffffffffffffffffffffffff1663a9059cbb600660000160009054906101000a900473ffffffffffffffffffffffffffffffffffffffff16600d546000604051602001526040518363ffffffff167c0100000000000000000000000000000000000000000000000000000000028152600401808373ffffffffffffffffffffffffffffffffffffffff1673ffffffffffffffffffffffffffffffffffffffff16815260200182815260200192505050602060405180830381600087803b15156112cf57600080fd5b6102c65a03f115156112e057600080fd5b5050506040518051905050600660000160009054906101000a900473ffffffffffffffffffffffffffffffffffffffff1673ffffffffffffffffffffffffffffffffffffffff1663a9059cbb600960009054906101000a900473ffffffffffffffffffffffffffffffffffffffff16600a546000604051602001526040518363ffffffff167c0100000000000000000000000000000000000000000000000000000000028152600401808373ffffffffffffffffffffffffffffffffffffffff1673ffffffffffffffffffffffffffffffffffffffff16815260200182815260200192505050602060405180830381600087803b15156113df57600080fd5b6102c65a03f115156113f057600080fd5b50505060405180519050505b6001600e60006101000a81548160ff0219169083151502179055505600a165627a7a723058201ea588c273cf59ea8b237b6fc0e3811752961c57a277ce53641474202cf47f160029",
  "source": "pragma solidity ^0.4.18;\n\n//import { ERC20 } from \"./ERC20.sol\";\n\ncontract ERC20 {\n\n  function balanceOf(address _owner) public view returns (uint256 balance);\n  function transfer(address _to, uint256 _value) public returns (bool success);\n\n}\n\n\ncontract CoinWar {\n\n\n  ERC20 public token1;\n  ERC20 public token2;\n\n  uint public token1Decimals;\n\n  struct Team {\n    ERC20 tokenContract;\n    mapping (address => uint) tokenMapping;\n    uint totalBet;\n  }\n\n  Team public winner;\n  Team public looser;\n\n  address public owner;\n  uint public ownerFee;\n\n  uint public fromBlock;\n  uint public toBlock;\n\n  uint public burnAmount;\n  bool public afterBurn;\n\n\n  event LogAddress(address addr);\n  event LogString(string str);\n  event LogUint(uint number);\n\n\n\n  function CoinWar(address _token1, address _token2, uint _fromBlock, uint _toBlock)\n    public\n  {\n\n    require(_token1 != address(0));\n    require(_token2 != address(0));\n\n    token1 = ERC20(_token1);\n    token2 = ERC20(_token2);\n\n    fromBlock = _fromBlock;\n    toBlock = _toBlock;\n\n\n    owner = msg.sender;\n\n  }\n\n  function setResults(address[] winningAddresses, uint[] winningBets, address winningContract, address[] loosingAddresses, uint[] loosingBets, address loosingContract)\n    public\n    onlyOwner\n    onlyAfterBlock\n  {\n    require(winningAddresses.length == winningBets.length);\n    require(loosingAddresses.length == loosingBets.length);\n\n    require(winningContract != loosingContract);\n    require((winningContract == address(token1)) || (winningContract == address(token2)));\n    require((loosingContract == address(token1)) || (loosingContract == address(token2)));\n\n    winner.tokenContract = ERC20(winningContract);\n    looser.tokenContract = ERC20(loosingContract);\n\n\n    for (uint i = 0; i < winningAddresses.length; i++) {\n      winner.tokenMapping[winningAddresses[i]] += winningBets[i];\n      winner.totalBet += winningBets[i];\n    }\n\n    for (uint j = 0; j < loosingAddresses.length; j++) {\n      looser.tokenMapping[loosingAddresses[j]] += loosingBets[j];\n      looser.totalBet += loosingBets[j];\n    }\n\n    //burn and take fee\n    burn();\n\n  }\n\n  function burn()\n    internal\n  {\n\n    //require()\n    if (looser.totalBet != 0) {\n\n      // 10% of total bets lost in the loosing coin\n      burnAmount = fractionOf(looser.totalBet, 1, 10);\n\n      // 5% of the total bets lost in the loosing coin\n      ownerFee = fractionOf(looser.totalBet, 1, 20);\n\n      looser.totalBet -= burnAmount;\n      looser.totalBet -= ownerFee;\n\n      //\"0x000000000000000000000000000000000000dEaD\" --> burn address to be added\n      looser.tokenContract.transfer(address(looser.tokenContract), burnAmount);\n\n      // the loosing owner pays fees to the owner of CoinWar contract\n      looser.tokenContract.transfer(owner, ownerFee);\n    }\n\n    afterBurn = true;\n  }\n\n  function withdraw()\n    public\n    onlyAfterBurn\n  {\n    //add modifier to make sure burn and setResults passed\n    uint userBet = winner.tokenMapping[msg.sender];\n\n    require(userBet != 0);\n    require(winner.totalBet != 0);\n\n    uint winnings = fractionOf(looser.totalBet, userBet, winner.totalBet);\n\n    require(winnings != 0);\n\n    winner.tokenMapping[msg.sender] = 0;\n    looser.tokenContract.transfer(msg.sender, winnings);\n    winner.tokenContract.transfer(msg.sender, userBet);\n  }\n\n  /* Helpers */\n\n  function fractionOf(uint amount, uint numerator, uint denominator)\n    public\n    pure\n    returns (uint)\n  {\n\n    if (amount >= denominator)\n      return (amount*numerator)/denominator;\n\n    uint scalar;\n    scalar = (denominator/amount) + 1;\n\n    return (amount*numerator*scalar)/(denominator*scalar);\n\n  }\n\n  /* Getters */\n\n  function getOpponentsBalance()\n    public\n    view\n    returns (uint, uint)\n  {\n    return (token1.balanceOf(address(this)), token2.balanceOf(address(this)));\n  }\n\n  function getUserBet(address user)\n    public\n    view\n    returns (uint, uint)\n  {\n    return (winner.tokenMapping[user],looser.tokenMapping[user]);\n  }\n\n  function getTeamBet(address team)\n    public\n    view\n    returns (uint)\n  {\n    if (address(winner.tokenContract) == team)\n      return winner.totalBet;\n    return looser.totalBet;\n  }\n\n  /* Modifiers */\n\n  modifier onlyOwner() {\n    require(msg.sender == owner);\n    _ ;\n  }\n\n  modifier onlyAfterBlock() {\n    //require(block.number >= toBlock);\n    _ ;\n  }\n\n  modifier onlyAfterBurn() {\n    require(afterBurn == true);\n    _ ;\n  }\n\n\n\n\n\n\n\n\n\n\n\n\n\n\n\n}\n",
  "sourcePath": "/Volumes/HD-B1/dapps/coinwars/src/solidity/contracts/CoinWar.sol",
  "compiler": {
    "name": "solc",
    "version": "0.4.19+commit.c4cbbb05.Emscripten.clang"
  },
  "schemaVersion": "2.0.0",
  "updatedAt": "2018-04-08T06:40:54.154Z"
}