{
  "contractName": "CoinWar",
  "abi": [
    {
      "constant": true,
      "inputs": [],
      "name": "token2",
      "outputs": [
        {
          "name": "",
          "type": "address"
        }
      ],
      "payable": false,
      "stateMutability": "view",
      "type": "function"
    },
    {
      "constant": true,
      "inputs": [],
      "name": "afterBurn",
      "outputs": [
        {
          "name": "",
          "type": "bool"
        }
      ],
      "payable": false,
      "stateMutability": "view",
      "type": "function"
    },
    {
      "constant": true,
      "inputs": [],
      "name": "burnAmount",
      "outputs": [
        {
          "name": "",
          "type": "uint256"
        }
      ],
      "payable": false,
      "stateMutability": "view",
      "type": "function"
    },
    {
      "constant": true,
      "inputs": [],
      "name": "looser",
      "outputs": [
        {
          "name": "tokenContract",
          "type": "address"
        },
        {
          "name": "totalBet",
          "type": "uint256"
        }
      ],
      "payable": false,
      "stateMutability": "view",
      "type": "function"
    },
    {
      "constant": true,
      "inputs": [],
      "name": "owner",
      "outputs": [
        {
          "name": "",
          "type": "address"
        }
      ],
      "payable": false,
      "stateMutability": "view",
      "type": "function"
    },
    {
      "constant": true,
      "inputs": [],
      "name": "toBlock",
      "outputs": [
        {
          "name": "",
          "type": "uint256"
        }
      ],
      "payable": false,
      "stateMutability": "view",
      "type": "function"
    },
    {
      "constant": true,
      "inputs": [],
      "name": "token1",
      "outputs": [
        {
          "name": "",
          "type": "address"
        }
      ],
      "payable": false,
      "stateMutability": "view",
      "type": "function"
    },
    {
      "constant": true,
      "inputs": [],
      "name": "ownerFee",
      "outputs": [
        {
          "name": "",
          "type": "uint256"
        }
      ],
      "payable": false,
      "stateMutability": "view",
      "type": "function"
    },
    {
      "constant": true,
      "inputs": [],
      "name": "winner",
      "outputs": [
        {
          "name": "tokenContract",
          "type": "address"
        },
        {
          "name": "totalBet",
          "type": "uint256"
        }
      ],
      "payable": false,
      "stateMutability": "view",
      "type": "function"
    },
    {
      "constant": true,
      "inputs": [],
      "name": "fromBlock",
      "outputs": [
        {
          "name": "",
          "type": "uint256"
        }
      ],
      "payable": false,
      "stateMutability": "view",
      "type": "function"
    },
    {
      "inputs": [
        {
          "name": "_token1",
          "type": "address"
        },
        {
          "name": "_token2",
          "type": "address"
        },
        {
          "name": "_fromBlock",
          "type": "uint256"
        },
        {
          "name": "_toBlock",
          "type": "uint256"
        }
      ],
      "payable": false,
      "stateMutability": "nonpayable",
      "type": "constructor"
    },
    {
      "anonymous": false,
      "inputs": [
        {
          "indexed": false,
          "name": "addr",
          "type": "address"
        }
      ],
      "name": "LogAddress",
      "type": "event"
    },
    {
      "anonymous": false,
      "inputs": [
        {
          "indexed": false,
          "name": "str",
          "type": "string"
        }
      ],
      "name": "LogString",
      "type": "event"
    },
    {
      "anonymous": false,
      "inputs": [
        {
          "indexed": false,
          "name": "number",
          "type": "uint256"
        }
      ],
      "name": "LogUint",
      "type": "event"
    },
    {
      "constant": false,
      "inputs": [
        {
          "name": "winningAddresses",
          "type": "address[]"
        },
        {
          "name": "winningBets",
          "type": "uint256[]"
        },
        {
          "name": "winningContract",
          "type": "address"
        },
        {
          "name": "loosingAddresses",
          "type": "address[]"
        },
        {
          "name": "loosingBets",
          "type": "uint256[]"
        },
        {
          "name": "loosingContract",
          "type": "address"
        }
      ],
      "name": "setResults",
      "outputs": [],
      "payable": false,
      "stateMutability": "nonpayable",
      "type": "function"
    },
    {
      "constant": false,
      "inputs": [],
      "name": "withdraw",
      "outputs": [],
      "payable": false,
      "stateMutability": "nonpayable",
      "type": "function"
    },
    {
      "constant": true,
      "inputs": [
        {
          "name": "amount",
          "type": "uint256"
        },
        {
          "name": "numerator",
          "type": "uint256"
        },
        {
          "name": "denominator",
          "type": "uint256"
        }
      ],
      "name": "fractionOf",
      "outputs": [
        {
          "name": "",
          "type": "uint256"
        }
      ],
      "payable": false,
      "stateMutability": "pure",
      "type": "function"
    },
    {
      "constant": true,
      "inputs": [],
      "name": "getOpponentsBalance",
      "outputs": [
        {
          "name": "",
          "type": "uint256"
        },
        {
          "name": "",
          "type": "uint256"
        }
      ],
      "payable": false,
      "stateMutability": "view",
      "type": "function"
    },
    {
      "constant": true,
      "inputs": [
        {
          "name": "user",
          "type": "address"
        }
      ],
      "name": "getUserBet",
      "outputs": [
        {
          "name": "",
          "type": "uint256"
        },
        {
          "name": "",
          "type": "uint256"
        }
      ],
      "payable": false,
      "stateMutability": "view",
      "type": "function"
    },
    {
      "constant": true,
      "inputs": [
        {
          "name": "team",
          "type": "address"
        }
      ],
      "name": "getTeamBet",
      "outputs": [
        {
          "name": "",
          "type": "uint256"
        }
      ],
      "payable": false,
      "stateMutability": "view",
      "type": "function"
    }
  ],
  "bytecode": "0x6060604052341561000f57600080fd5b6040516080806115a883398101604052808051906020019091908051906020019091908051906020019091908051906020019091905050600073ffffffffffffffffffffffffffffffffffffffff168473ffffffffffffffffffffffffffffffffffffffff161415151561008257600080fd5b600073ffffffffffffffffffffffffffffffffffffffff168373ffffffffffffffffffffffffffffffffffffffff16141515156100be57600080fd5b836000806101000a81548173ffffffffffffffffffffffffffffffffffffffff021916908373ffffffffffffffffffffffffffffffffffffffff16021790555082600160006101000a81548173ffffffffffffffffffffffffffffffffffffffff021916908373ffffffffffffffffffffffffffffffffffffffff16021790555081600a8190555080600b8190555033600860006101000a81548173ffffffffffffffffffffffffffffffffffffffff021916908373ffffffffffffffffffffffffffffffffffffffff16021790555050505050611407806101a16000396000f3006060604052600436106100e6576000357c0100000000000000000000000000000000000000000000000000000000900463ffffffff16806325be124e146100eb5780632c5bacd9146101405780633ccfd60b1461029857806342eec2ed146102ad578063486a7e6b146102da5780635a774cd014610303578063640e48f6146103335780638a8e021b1461038f5780638da5cb5b146103d8578063970065911461042d578063c96adb0114610456578063d21220a7146104aa578063d5b2a01a146104ff578063dfbf53ae14610528578063ed6a6d2814610584578063f1820389146105ad575b600080fd5b34156100f657600080fd5b6100fe6105fa565b604051808273ffffffffffffffffffffffffffffffffffffffff1673ffffffffffffffffffffffffffffffffffffffff16815260200191505060405180910390f35b341561014b57600080fd5b6102966004808035906020019082018035906020019080806020026020016040519081016040528093929190818152602001838360200280828437820191505050505050919080359060200190820180359060200190808060200260200160405190810160405280939291908181526020018383602002808284378201915050505050509190803573ffffffffffffffffffffffffffffffffffffffff16906020019091908035906020019082018035906020019080806020026020016040519081016040528093929190818152602001838360200280828437820191505050505050919080359060200190820180359060200190808060200260200160405190810160405280939291908181526020018383602002808284378201915050505050509190803573ffffffffffffffffffffffffffffffffffffffff16906020019091905050610620565b005b34156102a357600080fd5b6102ab610a5f565b005b34156102b857600080fd5b6102c0610d37565b604051808215151515815260200191505060405180910390f35b34156102e557600080fd5b6102ed610d4a565b6040518082815260200191505060405180910390f35b341561030e57600080fd5b610316610d50565b604051808381526020018281526020019250505060405180910390f35b341561033e57600080fd5b610346610f1a565b604051808373ffffffffffffffffffffffffffffffffffffffff1673ffffffffffffffffffffffffffffffffffffffff1681526020018281526020019250505060405180910390f35b341561039a57600080fd5b6103c26004808035906020019091908035906020019091908035906020019091905050610f4c565b6040518082815260200191505060405180910390f35b34156103e357600080fd5b6103eb610f9b565b604051808273ffffffffffffffffffffffffffffffffffffffff1673ffffffffffffffffffffffffffffffffffffffff16815260200191505060405180910390f35b341561043857600080fd5b610440610fc1565b6040518082815260200191505060405180910390f35b341561046157600080fd5b61048d600480803573ffffffffffffffffffffffffffffffffffffffff16906020019091905050610fc7565b604051808381526020018281526020019250505060405180910390f35b34156104b557600080fd5b6104bd611059565b604051808273ffffffffffffffffffffffffffffffffffffffff1673ffffffffffffffffffffffffffffffffffffffff16815260200191505060405180910390f35b341561050a57600080fd5b61051261107e565b6040518082815260200191505060405180910390f35b341561053357600080fd5b61053b611084565b604051808373ffffffffffffffffffffffffffffffffffffffff1673ffffffffffffffffffffffffffffffffffffffff1681526020018281526020019250505060405180910390f35b341561058f57600080fd5b6105976110b6565b6040518082815260200191505060405180910390f35b34156105b857600080fd5b6105e4600480803573ffffffffffffffffffffffffffffffffffffffff169060200190919050506110bc565b6040518082815260200191505060405180910390f35b600160009054906101000a900473ffffffffffffffffffffffffffffffffffffffff1681565b600080600860009054906101000a900473ffffffffffffffffffffffffffffffffffffffff1673ffffffffffffffffffffffffffffffffffffffff163373ffffffffffffffffffffffffffffffffffffffff1614151561067f57600080fd5b8651885114151561068f57600080fd5b8351855114151561069f57600080fd5b8273ffffffffffffffffffffffffffffffffffffffff168673ffffffffffffffffffffffffffffffffffffffff16141515156106da57600080fd5b6000809054906101000a900473ffffffffffffffffffffffffffffffffffffffff1673ffffffffffffffffffffffffffffffffffffffff168673ffffffffffffffffffffffffffffffffffffffff1614806107825750600160009054906101000a900473ffffffffffffffffffffffffffffffffffffffff1673ffffffffffffffffffffffffffffffffffffffff168673ffffffffffffffffffffffffffffffffffffffff16145b151561078d57600080fd5b6000809054906101000a900473ffffffffffffffffffffffffffffffffffffffff1673ffffffffffffffffffffffffffffffffffffffff168373ffffffffffffffffffffffffffffffffffffffff1614806108355750600160009054906101000a900473ffffffffffffffffffffffffffffffffffffffff1673ffffffffffffffffffffffffffffffffffffffff168373ffffffffffffffffffffffffffffffffffffffff16145b151561084057600080fd5b85600260000160006101000a81548173ffffffffffffffffffffffffffffffffffffffff021916908373ffffffffffffffffffffffffffffffffffffffff16021790555082600560000160006101000a81548173ffffffffffffffffffffffffffffffffffffffff021916908373ffffffffffffffffffffffffffffffffffffffff160217905550600091505b875182101561098a5786828151811015156108e457fe5b90602001906020020151600260010160008a8581518110151561090357fe5b9060200190602002015173ffffffffffffffffffffffffffffffffffffffff1673ffffffffffffffffffffffffffffffffffffffff16815260200190815260200160002060008282540192505081905550868281518110151561096257fe5b90602001906020020151600280016000828254019250508190555081806001019250506108cd565b600090505b8451811015610a4d5783818151811015156109a657fe5b906020019060200201516005600101600087848151811015156109c557fe5b9060200190602002015173ffffffffffffffffffffffffffffffffffffffff1673ffffffffffffffffffffffffffffffffffffffff168152602001908152602001600020600082825401925050819055508381815181101515610a2457fe5b90602001906020020151600560020160008282540192505081905550808060010191505061098f565b610a55611131565b5050505050505050565b60008060011515600d60009054906101000a900460ff161515141515610a8457600080fd5b600260010160003373ffffffffffffffffffffffffffffffffffffffff1673ffffffffffffffffffffffffffffffffffffffff16815260200190815260200160002054915060008214151515610ad957600080fd5b6000600280015414151515610aed57600080fd5b610b01600560020154836002800154610f4c565b905060008114151515610b1357600080fd5b6000600260010160003373ffffffffffffffffffffffffffffffffffffffff1673ffffffffffffffffffffffffffffffffffffffff16815260200190815260200160002081905550600560000160009054906101000a900473ffffffffffffffffffffffffffffffffffffffff1673ffffffffffffffffffffffffffffffffffffffff1663a9059cbb33836000604051602001526040518363ffffffff167c0100000000000000000000000000000000000000000000000000000000028152600401808373ffffffffffffffffffffffffffffffffffffffff1673ffffffffffffffffffffffffffffffffffffffff16815260200182815260200192505050602060405180830381600087803b1515610c2b57600080fd5b6102c65a03f11515610c3c57600080fd5b5050506040518051905050600260000160009054906101000a900473ffffffffffffffffffffffffffffffffffffffff1673ffffffffffffffffffffffffffffffffffffffff1663a9059cbb33846000604051602001526040518363ffffffff167c0100000000000000000000000000000000000000000000000000000000028152600401808373ffffffffffffffffffffffffffffffffffffffff1673ffffffffffffffffffffffffffffffffffffffff16815260200182815260200192505050602060405180830381600087803b1515610d1757600080fd5b6102c65a03f11515610d2857600080fd5b50505060405180519050505050565b600d60009054906101000a900460ff1681565b600c5481565b6000806000809054906101000a900473ffffffffffffffffffffffffffffffffffffffff1673ffffffffffffffffffffffffffffffffffffffff166370a08231306000604051602001526040518263ffffffff167c0100000000000000000000000000000000000000000000000000000000028152600401808273ffffffffffffffffffffffffffffffffffffffff1673ffffffffffffffffffffffffffffffffffffffff168152602001915050602060405180830381600087803b1515610e1757600080fd5b6102c65a03f11515610e2857600080fd5b50505060405180519050600160009054906101000a900473ffffffffffffffffffffffffffffffffffffffff1673ffffffffffffffffffffffffffffffffffffffff166370a08231306000604051602001526040518263ffffffff167c0100000000000000000000000000000000000000000000000000000000028152600401808273ffffffffffffffffffffffffffffffffffffffff1673ffffffffffffffffffffffffffffffffffffffff168152602001915050602060405180830381600087803b1515610ef757600080fd5b6102c65a03f11515610f0857600080fd5b50505060405180519050915091509091565b60058060000160009054906101000a900473ffffffffffffffffffffffffffffffffffffffff16908060020154905082565b6000808285101515610f6d5782848602811515610f6557fe5b049150610f93565b60018584811515610f7a57fe5b040190508083028185870202811515610f8f57fe5b0491505b509392505050565b600860009054906101000a900473ffffffffffffffffffffffffffffffffffffffff1681565b600b5481565b600080600260010160008473ffffffffffffffffffffffffffffffffffffffff1673ffffffffffffffffffffffffffffffffffffffff16815260200190815260200160002054600560010160008573ffffffffffffffffffffffffffffffffffffffff1673ffffffffffffffffffffffffffffffffffffffff1681526020019081526020016000205491509150915091565b6000809054906101000a900473ffffffffffffffffffffffffffffffffffffffff1681565b60095481565b60028060000160009054906101000a900473ffffffffffffffffffffffffffffffffffffffff16908060020154905082565b600a5481565b60008173ffffffffffffffffffffffffffffffffffffffff16600260000160009054906101000a900473ffffffffffffffffffffffffffffffffffffffff1673ffffffffffffffffffffffffffffffffffffffff161415611123576002800154905061112c565b60056002015490505b919050565b60006005600201541415156113be576111526005600201546001600a610f4c565b600c8190555061116a60056002015460016014610f4c565b600981905550600c54600560020160008282540392505081905550600954600560020160008282540392505081905550600560000160009054906101000a900473ffffffffffffffffffffffffffffffffffffffff1673ffffffffffffffffffffffffffffffffffffffff1663a9059cbb600560000160009054906101000a900473ffffffffffffffffffffffffffffffffffffffff16600c546000604051602001526040518363ffffffff167c0100000000000000000000000000000000000000000000000000000000028152600401808373ffffffffffffffffffffffffffffffffffffffff1673ffffffffffffffffffffffffffffffffffffffff16815260200182815260200192505050602060405180830381600087803b151561129157600080fd5b6102c65a03f115156112a257600080fd5b5050506040518051905050600560000160009054906101000a900473ffffffffffffffffffffffffffffffffffffffff1673ffffffffffffffffffffffffffffffffffffffff1663a9059cbb600860009054906101000a900473ffffffffffffffffffffffffffffffffffffffff166009546000604051602001526040518363ffffffff167c0100000000000000000000000000000000000000000000000000000000028152600401808373ffffffffffffffffffffffffffffffffffffffff1673ffffffffffffffffffffffffffffffffffffffff16815260200182815260200192505050602060405180830381600087803b15156113a157600080fd5b6102c65a03f115156113b257600080fd5b50505060405180519050505b6001600d60006101000a81548160ff0219169083151502179055505600a165627a7a72305820ca4e1c054fdcd8570aa634983ebb3217de2681b248b7f929386168b1ea0262e80029",
  "source": "pragma solidity ^0.4.18;\n\nimport { ERC20 } from \"./ERC20.sol\";\n\n/* Eventually Replace With 1 ERC20 Wrapper\ncontract ERC20 {\n  function transfer(address _to, uint256 _value) public returns (bool success);\n}\n*/\n\ncontract CoinWar {\n\n\n  ERC20 public token1;\n  ERC20 public token2;\n\n  struct Team {\n    ERC20 tokenContract;\n    mapping (address => uint) tokenMapping;\n    uint totalBet;\n  }\n\n  Team public winner;\n  Team public looser;\n\n  address public owner;\n  uint public ownerFee;\n\n  uint public fromBlock;\n  uint public toBlock;\n\n  uint public burnAmount;\n  bool public afterBurn;\n\n\n  event LogAddress(address addr);\n  event LogString(string str);\n  event LogUint(uint number);\n\n\n\n  function CoinWar(address _token1, address _token2, uint _fromBlock, uint _toBlock)\n    public\n  {\n\n    require(_token1 != address(0));\n    require(_token2 != address(0));\n\n    token1 = ERC20(_token1);\n    token2 = ERC20(_token2);\n\n    fromBlock = _fromBlock;\n    toBlock = _toBlock;\n\n\n    owner = msg.sender;\n\n  }\n\n  function setResults(address[] winningAddresses, uint[] winningBets, address winningContract, address[] loosingAddresses, uint[] loosingBets, address loosingContract)\n    public\n    onlyOwner\n    onlyAfterBlock\n  {\n    require(winningAddresses.length == winningBets.length);\n    require(loosingAddresses.length == loosingBets.length);\n\n    require(winningContract != loosingContract);\n    require((winningContract == address(token1)) || (winningContract == address(token2)));\n    require((loosingContract == address(token1)) || (loosingContract == address(token2)));\n\n    winner.tokenContract = ERC20(winningContract);\n    looser.tokenContract = ERC20(loosingContract);\n\n\n    for (uint i = 0; i < winningAddresses.length; i++) {\n      winner.tokenMapping[winningAddresses[i]] += winningBets[i];\n      winner.totalBet += winningBets[i];\n    }\n\n    for (uint j = 0; j < loosingAddresses.length; j++) {\n      looser.tokenMapping[loosingAddresses[j]] += loosingBets[j];\n      looser.totalBet += loosingBets[j];\n    }\n\n    //burn and take fee\n    burn();\n\n  }\n\n  function burn()\n    internal\n  {\n    //require()\n    if (looser.totalBet != 0) {\n\n      burnAmount = fractionOf(looser.totalBet, 1, 10);\n      ownerFee = fractionOf(looser.totalBet, 1, 20);\n\n      looser.totalBet -= burnAmount;\n      looser.totalBet -= ownerFee;\n\n      //\"0x000000000000000000000000000000000000dEaD\" --> burn address to be added\n      looser.tokenContract.transfer(address(looser.tokenContract), burnAmount);\n      looser.tokenContract.transfer(owner, ownerFee);\n    }\n\n    afterBurn = true;\n  }\n\n  function withdraw()\n    public\n    onlyAfterBurn\n  {\n    //add modifier to make sure burn and setResults passed\n    uint userBet = winner.tokenMapping[msg.sender];\n\n    require(userBet != 0);\n    require(winner.totalBet != 0);\n\n    uint winnings = fractionOf(looser.totalBet, userBet, winner.totalBet);\n\n    require(winnings != 0);\n\n    winner.tokenMapping[msg.sender] = 0;\n    looser.tokenContract.transfer(msg.sender, winnings);\n    winner.tokenContract.transfer(msg.sender, userBet);\n  }\n\n  /* Helpers */\n\n  function fractionOf(uint amount, uint numerator, uint denominator)\n    public\n    pure\n    returns (uint)\n  {\n\n    if (amount >= denominator)\n      return (amount*numerator)/denominator;\n\n    uint scalar;\n    scalar = (denominator/amount) + 1;\n\n    return (amount*numerator*scalar)/(denominator*scalar);\n\n  }\n\n  /* Getters */\n\n  function getOpponentsBalance()\n    public\n    view\n    returns (uint, uint)\n  {\n    return (token1.balanceOf(address(this)), token2.balanceOf(address(this)));\n  }\n\n  function getUserBet(address user)\n    public\n    view\n    returns (uint, uint)\n  {\n    return (winner.tokenMapping[user],looser.tokenMapping[user]);\n  }\n\n  function getTeamBet(address team)\n    public\n    view\n    returns (uint)\n  {\n    if (address(winner.tokenContract) == team)\n      return winner.totalBet;\n    return looser.totalBet;\n  }\n\n  /* Modifiers */\n\n  modifier onlyOwner() {\n    require(msg.sender == owner);\n    _ ;\n  }\n\n  modifier onlyAfterBlock() {\n    //require(block.number >= toBlock);\n    _ ;\n  }\n\n  modifier onlyAfterBurn() {\n    require(afterBurn == true);\n    _ ;\n  }\n\n\n\n\n\n\n\n\n\n\n\n\n\n\n\n}\n",
  "sourcePath": "/Volumes/HD-B1/dapps/coinwars/src/solidity/contracts/CoinWar.sol",
  "compiler": {
    "name": "solc",
    "version": "0.4.19+commit.c4cbbb05.Emscripten.clang"
  },
  "schemaVersion": "2.0.0",
  "updatedAt": "2018-03-31T04:06:32.067Z"
}