{
  "contractName": "RinkebyWithdraw",
  "abi": [
    {
      "constant": true,
      "inputs": [],
      "name": "tron",
      "outputs": [
        {
          "name": "",
          "type": "address"
        }
      ],
      "payable": false,
      "stateMutability": "view",
      "type": "function"
    },
    {
      "constant": true,
      "inputs": [],
      "name": "binance",
      "outputs": [
        {
          "name": "",
          "type": "address"
        }
      ],
      "payable": false,
      "stateMutability": "view",
      "type": "function"
    },
    {
      "constant": true,
      "inputs": [],
      "name": "eos",
      "outputs": [
        {
          "name": "",
          "type": "address"
        }
      ],
      "payable": false,
      "stateMutability": "view",
      "type": "function"
    },
    {
      "constant": true,
      "inputs": [],
      "name": "ven",
      "outputs": [
        {
          "name": "",
          "type": "address"
        }
      ],
      "payable": false,
      "stateMutability": "view",
      "type": "function"
    },
    {
      "inputs": [],
      "payable": false,
      "stateMutability": "nonpayable",
      "type": "constructor"
    },
    {
      "constant": false,
      "inputs": [],
      "name": "withdrawTokens",
      "outputs": [],
      "payable": false,
      "stateMutability": "nonpayable",
      "type": "function"
    }
  ],
  "bytecode": "0x6060604052341561000f57600080fd5b7384b6962db7114fc45a673db1be75d1c95fcd7dd66000806101000a81548173ffffffffffffffffffffffffffffffffffffffff021916908373ffffffffffffffffffffffffffffffffffffffff16021790555073a71a212c041e9c3b70d1b7f2f1170bb1d75d0586600160006101000a81548173ffffffffffffffffffffffffffffffffffffffff021916908373ffffffffffffffffffffffffffffffffffffffff160217905550732aa0878102ccf1fe74c9aecad520d0ebe25f3d54600260006101000a81548173ffffffffffffffffffffffffffffffffffffffff021916908373ffffffffffffffffffffffffffffffffffffffff160217905550732f701fac7768b45a9c5cb383b7a463ff86abacdc600360006101000a81548173ffffffffffffffffffffffffffffffffffffffff021916908373ffffffffffffffffffffffffffffffffffffffff1602179055506106fe806101716000396000f30060606040526004361061006d576000357c0100000000000000000000000000000000000000000000000000000000900463ffffffff1680636693117d14610072578063886f359d146100c75780638d8f2adb1461011c578063913cf5ca14610131578063b320ea8014610186575b600080fd5b341561007d57600080fd5b6100856101db565b604051808273ffffffffffffffffffffffffffffffffffffffff1673ffffffffffffffffffffffffffffffffffffffff16815260200191505060405180910390f35b34156100d257600080fd5b6100da610201565b604051808273ffffffffffffffffffffffffffffffffffffffff1673ffffffffffffffffffffffffffffffffffffffff16815260200191505060405180910390f35b341561012757600080fd5b61012f610227565b005b341561013c57600080fd5b610144610687565b604051808273ffffffffffffffffffffffffffffffffffffffff1673ffffffffffffffffffffffffffffffffffffffff16815260200191505060405180910390f35b341561019157600080fd5b6101996106ac565b604051808273ffffffffffffffffffffffffffffffffffffffff1673ffffffffffffffffffffffffffffffffffffffff16815260200191505060405180910390f35b600160009054906101000a900473ffffffffffffffffffffffffffffffffffffffff1681565b600260009054906101000a900473ffffffffffffffffffffffffffffffffffffffff1681565b60001515600460003373ffffffffffffffffffffffffffffffffffffffff1673ffffffffffffffffffffffffffffffffffffffff16815260200190815260200160002060009054906101000a900460ff16151514151561028657600080fd5b6001600460003373ffffffffffffffffffffffffffffffffffffffff1673ffffffffffffffffffffffffffffffffffffffff16815260200190815260200160002060006101000a81548160ff0219169083151502179055506000809054906101000a900473ffffffffffffffffffffffffffffffffffffffff1673ffffffffffffffffffffffffffffffffffffffff1663a9059cbb3360646000604051602001526040518363ffffffff167c0100000000000000000000000000000000000000000000000000000000028152600401808373ffffffffffffffffffffffffffffffffffffffff1673ffffffffffffffffffffffffffffffffffffffff16815260200182815260200192505050602060405180830381600087803b15156103ab57600080fd5b6102c65a03f115156103bc57600080fd5b5050506040518051905050600160009054906101000a900473ffffffffffffffffffffffffffffffffffffffff1673ffffffffffffffffffffffffffffffffffffffff1663a9059cbb3360646000604051602001526040518363ffffffff167c0100000000000000000000000000000000000000000000000000000000028152600401808373ffffffffffffffffffffffffffffffffffffffff1673ffffffffffffffffffffffffffffffffffffffff16815260200182815260200192505050602060405180830381600087803b151561049557600080fd5b6102c65a03f115156104a657600080fd5b5050506040518051905050600260009054906101000a900473ffffffffffffffffffffffffffffffffffffffff1673ffffffffffffffffffffffffffffffffffffffff1663a9059cbb3360646000604051602001526040518363ffffffff167c0100000000000000000000000000000000000000000000000000000000028152600401808373ffffffffffffffffffffffffffffffffffffffff1673ffffffffffffffffffffffffffffffffffffffff16815260200182815260200192505050602060405180830381600087803b151561057f57600080fd5b6102c65a03f1151561059057600080fd5b5050506040518051905050600360009054906101000a900473ffffffffffffffffffffffffffffffffffffffff1673ffffffffffffffffffffffffffffffffffffffff1663a9059cbb3360646000604051602001526040518363ffffffff167c0100000000000000000000000000000000000000000000000000000000028152600401808373ffffffffffffffffffffffffffffffffffffffff1673ffffffffffffffffffffffffffffffffffffffff16815260200182815260200192505050602060405180830381600087803b151561066957600080fd5b6102c65a03f1151561067a57600080fd5b5050506040518051905050565b6000809054906101000a900473ffffffffffffffffffffffffffffffffffffffff1681565b600360009054906101000a900473ffffffffffffffffffffffffffffffffffffffff16815600a165627a7a7230582007c667dac4dc040180f4d2220300c9f0ff325e733a0458691ac0bb6c47b256e60029",
  "source": "pragma solidity ^0.4.18;\n\nimport { ERC20 } from \"./ERC20.sol\";\n\ncontract RinkebyWithdraw {\n\n\n  ERC20 public eos;\n  ERC20 public tron;\n  ERC20 public binance;\n  ERC20 public ven;\n\n  mapping (address => bool) hasWithdrawn;\n\n  function RinkebyWithdraw()\n    public\n  {\n\n    eos = ERC20(address(0x84b6962db7114fc45a673db1be75d1c95fcd7dd6));\n    tron = ERC20(address(0xa71a212c041e9c3b70d1b7f2f1170bb1d75d0586));\n    binance = ERC20(address(0x2aa0878102ccf1fe74c9aecad520d0ebe25f3d54));\n    ven = ERC20(address(0x2f701fac7768b45a9c5cb383b7a463ff86abacdc));\n\n  }\n\n  function withdrawTokens()\n    public\n    onlyOneWithdraw\n  {\n    hasWithdrawn[msg.sender] = true;\n\n    eos.transfer(msg.sender, 100);\n    tron.transfer(msg.sender, 100);\n    binance.transfer(msg.sender, 100);\n    ven.transfer(msg.sender, 100);\n  }\n\n  modifier onlyOneWithdraw() {\n    require(hasWithdrawn[msg.sender] == false);\n    _ ;\n  }\n\n}\n",
  "sourcePath": "/Users/rahulkapur/Desktop/Projects/CoinWars/src/solidity/contracts/RinkebyWithdraw.sol",
  "compiler": {
    "name": "solc",
    "version": "0.4.19+commit.c4cbbb05.Emscripten.clang"
  },
  "schemaVersion": "2.0.0",
  "updatedAt": "2018-04-24T12:42:39.545Z"
}