{
  "contractName": "WarFactory",
  "abi": [
    {
      "constant": true,
      "inputs": [],
      "name": "ongGoingWars",
      "outputs": [
        {
          "name": "",
          "type": "uint256"
        }
      ],
      "payable": false,
      "stateMutability": "view",
      "type": "function"
    },
    {
      "constant": true,
      "inputs": [],
      "name": "owner",
      "outputs": [
        {
          "name": "",
          "type": "address"
        }
      ],
      "payable": false,
      "stateMutability": "view",
      "type": "function"
    },
    {
      "constant": true,
      "inputs": [
        {
          "name": "",
          "type": "uint256"
        }
      ],
      "name": "allWars",
      "outputs": [
        {
          "name": "opponents",
          "type": "string"
        },
        {
          "name": "coinWar",
          "type": "address"
        },
        {
          "name": "isOngoing",
          "type": "bool"
        }
      ],
      "payable": false,
      "stateMutability": "view",
      "type": "function"
    },
    {
      "inputs": [],
      "payable": false,
      "stateMutability": "nonpayable",
      "type": "constructor"
    },
    {
      "anonymous": false,
      "inputs": [
        {
          "indexed": false,
          "name": "index",
          "type": "uint256"
        }
      ],
      "name": "WarClosed",
      "type": "event"
    },
    {
      "anonymous": false,
      "inputs": [
        {
          "indexed": false,
          "name": "opponents",
          "type": "string"
        }
      ],
      "name": "NewWarCreated",
      "type": "event"
    },
    {
      "constant": false,
      "inputs": [
        {
          "name": "_opponents",
          "type": "string"
        },
        {
          "name": "_tokeOne",
          "type": "address"
        },
        {
          "name": "_tokenTwo",
          "type": "address"
        },
        {
          "name": "_fromBlock",
          "type": "uint256"
        },
        {
          "name": "_toBlock",
          "type": "uint256"
        }
      ],
      "name": "createCoinWar",
      "outputs": [],
      "payable": false,
      "stateMutability": "nonpayable",
      "type": "function"
    },
    {
      "constant": false,
      "inputs": [
        {
          "name": "index",
          "type": "uint256"
        },
        {
          "name": "winningAddresses",
          "type": "address[]"
        },
        {
          "name": "winningBets",
          "type": "uint256[]"
        },
        {
          "name": "winningContract",
          "type": "address"
        },
        {
          "name": "loosingAddresses",
          "type": "address[]"
        },
        {
          "name": "loosingBets",
          "type": "uint256[]"
        },
        {
          "name": "loosingContract",
          "type": "address"
        }
      ],
      "name": "closeWarAtIndex",
      "outputs": [],
      "payable": false,
      "stateMutability": "nonpayable",
      "type": "function"
    },
    {
      "constant": true,
      "inputs": [
        {
          "name": "index",
          "type": "uint256"
        }
      ],
      "name": "getWarAtIndex",
      "outputs": [
        {
          "name": "",
          "type": "string"
        },
        {
          "name": "",
          "type": "address"
        },
        {
          "name": "",
          "type": "address"
        },
        {
          "name": "",
          "type": "uint256"
        },
        {
          "name": "",
          "type": "uint256"
        },
        {
          "name": "",
          "type": "uint256"
        },
        {
          "name": "",
          "type": "uint256"
        },
        {
          "name": "",
          "type": "address"
        }
      ],
      "payable": false,
      "stateMutability": "view",
      "type": "function"
    },
    {
      "constant": true,
      "inputs": [
        {
          "name": "index",
          "type": "uint256"
        }
      ],
      "name": "isWarClosedAtIndex",
      "outputs": [
        {
          "name": "",
          "type": "bool"
        },
        {
          "name": "",
          "type": "address"
        }
      ],
      "payable": false,
      "stateMutability": "view",
      "type": "function"
    },
    {
      "constant": true,
      "inputs": [
        {
          "name": "index",
          "type": "uint256"
        },
        {
          "name": "user",
          "type": "address"
        }
      ],
      "name": "getResultsAtIndexForUser",
      "outputs": [
        {
          "name": "",
          "type": "string"
        },
        {
          "name": "",
          "type": "uint256"
        },
        {
          "name": "",
          "type": "uint256"
        },
        {
          "name": "",
          "type": "uint256"
        },
        {
          "name": "",
          "type": "uint256"
        },
        {
          "name": "",
          "type": "uint256"
        },
        {
          "name": "",
          "type": "address"
        }
      ],
      "payable": false,
      "stateMutability": "view",
      "type": "function"
    },
    {
      "constant": true,
      "inputs": [],
      "name": "getWarsCount",
      "outputs": [
        {
          "name": "",
          "type": "uint256"
        }
      ],
      "payable": false,
      "stateMutability": "view",
      "type": "function"
    }
  ],
  "bytecode": "0x6060604052341561000f57600080fd5b33600260006101000a81548173ffffffffffffffffffffffffffffffffffffffff021916908373ffffffffffffffffffffffffffffffffffffffff160217905550612c4c8061005f6000396000f300606060405260043610610099576000357c0100000000000000000000000000000000000000000000000000000000900463ffffffff16806310302a611461009e5780633af6f418146101ef578063445bca0b1461029c5780635cc520a5146102c55780635d9d425b146103d65780638da5cb5b146105375780639109ec901461058c578063b0d8ce0f146105fa578063f4581b67146106f1575b600080fd5b34156100a957600080fd5b6100bf600480803590602001909190505061071a565b60405180806020018973ffffffffffffffffffffffffffffffffffffffff1673ffffffffffffffffffffffffffffffffffffffff1681526020018873ffffffffffffffffffffffffffffffffffffffff1673ffffffffffffffffffffffffffffffffffffffff1681526020018781526020018681526020018581526020018481526020018373ffffffffffffffffffffffffffffffffffffffff1673ffffffffffffffffffffffffffffffffffffffff16815260200182810382528a818151815260200191508051906020019080838360005b838110156101ad578082015181840152602081019050610192565b50505050905090810190601f1680156101da5780820380516001836020036101000a031916815260200191505b50995050505050505050505060405180910390f35b34156101fa57600080fd5b61029a600480803590602001908201803590602001908080601f0160208091040260200160405190810160405280939291908181526020018383808284378201915050505050509190803573ffffffffffffffffffffffffffffffffffffffff1690602001909190803573ffffffffffffffffffffffffffffffffffffffff16906020019091908035906020019091908035906020019091905050610b34565b005b34156102a757600080fd5b6102af610dc6565b6040518082815260200191505060405180910390f35b34156102d057600080fd5b610305600480803590602001909190803573ffffffffffffffffffffffffffffffffffffffff16906020019091905050610dcc565b60405180806020018881526020018781526020018681526020018581526020018481526020018373ffffffffffffffffffffffffffffffffffffffff1673ffffffffffffffffffffffffffffffffffffffff168152602001828103825289818151815260200191508051906020019080838360005b8381101561039557808201518184015260208101905061037a565b50505050905090810190601f1680156103c25780820380516001836020036101000a031916815260200191505b509850505050505050505060405180910390f35b34156103e157600080fd5b6105356004808035906020019091908035906020019082018035906020019080806020026020016040519081016040528093929190818152602001838360200280828437820191505050505050919080359060200190820180359060200190808060200260200160405190810160405280939291908181526020018383602002808284378201915050505050509190803573ffffffffffffffffffffffffffffffffffffffff16906020019091908035906020019082018035906020019080806020026020016040519081016040528093929190818152602001838360200280828437820191505050505050919080359060200190820180359060200190808060200260200160405190810160405280939291908181526020018383602002808284378201915050505050509190803573ffffffffffffffffffffffffffffffffffffffff16906020019091905050610feb565b005b341561054257600080fd5b61054a611315565b604051808273ffffffffffffffffffffffffffffffffffffffff1673ffffffffffffffffffffffffffffffffffffffff16815260200191505060405180910390f35b341561059757600080fd5b6105ad600480803590602001909190505061133b565b60405180831515151581526020018273ffffffffffffffffffffffffffffffffffffffff1673ffffffffffffffffffffffffffffffffffffffff1681526020019250505060405180910390f35b341561060557600080fd5b61061b60048080359060200190919050506113bb565b60405180806020018473ffffffffffffffffffffffffffffffffffffffff1673ffffffffffffffffffffffffffffffffffffffff168152602001831515151581526020018281038252858181546001816001161561010002031660029004815260200191508054600181600116156101000203166002900480156106e05780601f106106b5576101008083540402835291602001916106e0565b820191906000526020600020905b8154815290600101906020018083116106c357829003601f168201915b505094505050505060405180910390f35b34156106fc57600080fd5b610704611420565b6040518082815260200191505060405180910390f35b61072261142c565b60008060008060008060008060008060008c81548110151561074057fe5b906000526020600020906002020160010160009054906101000a900473ffffffffffffffffffffffffffffffffffffffff1692508273ffffffffffffffffffffffffffffffffffffffff166347734892336000604051604001526040518263ffffffff167c0100000000000000000000000000000000000000000000000000000000028152600401808273ffffffffffffffffffffffffffffffffffffffff1673ffffffffffffffffffffffffffffffffffffffff1681526020019150506040805180830381600087803b151561081657600080fd5b6102c65a03f1151561082757600080fd5b505050604051805190602001805190509150915060008c81548110151561084a57fe5b90600052602060002090600202016000018373ffffffffffffffffffffffffffffffffffffffff1663d21220a76000604051602001526040518163ffffffff167c0100000000000000000000000000000000000000000000000000000000028152600401602060405180830381600087803b15156108c757600080fd5b6102c65a03f115156108d857600080fd5b505050604051805190508473ffffffffffffffffffffffffffffffffffffffff166325be124e6000604051602001526040518163ffffffff167c0100000000000000000000000000000000000000000000000000000000028152600401602060405180830381600087803b151561094e57600080fd5b6102c65a03f1151561095f57600080fd5b5050506040518051905084848773ffffffffffffffffffffffffffffffffffffffff1663ed6a6d286000604051602001526040518163ffffffff167c0100000000000000000000000000000000000000000000000000000000028152600401602060405180830381600087803b15156109d757600080fd5b6102c65a03f115156109e857600080fd5b505050604051805190508873ffffffffffffffffffffffffffffffffffffffff1663970065916000604051602001526040518163ffffffff167c0100000000000000000000000000000000000000000000000000000000028152600401602060405180830381600087803b1515610a5e57600080fd5b6102c65a03f11515610a6f57600080fd5b5050506040518051905089878054600181600116156101000203166002900480601f016020809104026020016040519081016040528092919081815260200182805460018160011615610100020316600290048015610b0f5780601f10610ae457610100808354040283529160200191610b0f565b820191906000526020600020905b815481529060010190602001808311610af257829003601f168201915b505050505097509a509a509a509a509a509a509a509a50505050919395975091939597565b6000600260009054906101000a900473ffffffffffffffffffffffffffffffffffffffff1673ffffffffffffffffffffffffffffffffffffffff163373ffffffffffffffffffffffffffffffffffffffff16141515610b9257600080fd5b6001806000828254019250508190555084848484610bae611440565b808573ffffffffffffffffffffffffffffffffffffffff1673ffffffffffffffffffffffffffffffffffffffff1681526020018473ffffffffffffffffffffffffffffffffffffffff1673ffffffffffffffffffffffffffffffffffffffff168152602001838152602001828152602001945050505050604051809103906000f0801515610c3b57600080fd5b905060008054806001018281610c519190611450565b916000526020600020906002020160006060604051908101604052808a81526020018573ffffffffffffffffffffffffffffffffffffffff1681526020016001151581525090919091506000820151816000019080519060200190610cb7929190611482565b5060208201518160010160006101000a81548173ffffffffffffffffffffffffffffffffffffffff021916908373ffffffffffffffffffffffffffffffffffffffff16021790555060408201518160010160146101000a81548160ff0219169083151502179055505050507f81751ef8b923c5cecff9aab0a8a18d655dfad8854a84a10f350cd2a99b012aef866040518080602001828103825283818151815260200191508051906020019080838360005b83811015610d84578082015181840152602081019050610d69565b50505050905090810190601f168015610db15780820380516001836020036101000a031916815260200191505b509250505060405180910390a1505050505050565b60015481565b610dd461142c565b60008060008060008060008060008060008060008f815481101515610df557fe5b906000526020600020906002020160010160009054906101000a900473ffffffffffffffffffffffffffffffffffffffff1695508573ffffffffffffffffffffffffffffffffffffffff1663c96adb018f600060405160a001526040518263ffffffff167c0100000000000000000000000000000000000000000000000000000000028152600401808273ffffffffffffffffffffffffffffffffffffffff1673ffffffffffffffffffffffffffffffffffffffff16815260200191505060a060405180830381600087803b1515610ecc57600080fd5b6102c65a03f11515610edd57600080fd5b505050604051805190602001805190602001805190602001805190602001805190509450945094509450945060008f815481101515610f1857fe5b906000526020600020906002020160000185858585858b868054600181600116156101000203166002900480601f016020809104026020016040519081016040528092919081815260200182805460018160011615610100020316600290048015610fc45780601f10610f9957610100808354040283529160200191610fc4565b820191906000526020600020905b815481529060010190602001808311610fa757829003601f168201915b505050505096509c509c509c509c509c509c509c5050505050505092959891949750929550565b600260009054906101000a900473ffffffffffffffffffffffffffffffffffffffff1673ffffffffffffffffffffffffffffffffffffffff163373ffffffffffffffffffffffffffffffffffffffff1614151561104757600080fd5b600180600082825403925050819055506000808881548110151561106757fe5b906000526020600020906002020160010160146101000a81548160ff02191690831515021790555060008781548110151561109e57fe5b906000526020600020906002020160010160009054906101000a900473ffffffffffffffffffffffffffffffffffffffff1673ffffffffffffffffffffffffffffffffffffffff16632c5bacd98787878787876040518763ffffffff167c01000000000000000000000000000000000000000000000000000000000281526004018080602001806020018773ffffffffffffffffffffffffffffffffffffffff1673ffffffffffffffffffffffffffffffffffffffff16815260200180602001806020018673ffffffffffffffffffffffffffffffffffffffff1673ffffffffffffffffffffffffffffffffffffffff16815260200185810385528b818151815260200191508051906020019060200280838360005b838110156111cf5780820151818401526020810190506111b4565b5050505090500185810384528a818151815260200191508051906020019060200280838360005b838110156112115780820151818401526020810190506111f6565b50505050905001858103835288818151815260200191508051906020019060200280838360005b83811015611253578082015181840152602081019050611238565b50505050905001858103825287818151815260200191508051906020019060200280838360005b8381101561129557808201518184015260208101905061127a565b505050509050019a5050505050505050505050600060405180830381600087803b15156112c157600080fd5b6102c65a03f115156112d257600080fd5b5050507f51e788a162c32dbd4ba0c09fde4333bbf53bc60ca1491ea205c94614875e22ad876040518082815260200191505060405180910390a150505050505050565b600260009054906101000a900473ffffffffffffffffffffffffffffffffffffffff1681565b6000806000808481548110151561134e57fe5b906000526020600020906002020160010160009054906101000a900473ffffffffffffffffffffffffffffffffffffffff16905060008481548110151561139157fe5b906000526020600020906002020160010160149054906101000a900460ff16819250925050915091565b6000818154811015156113ca57fe5b906000526020600020906002020160009150905080600001908060010160009054906101000a900473ffffffffffffffffffffffffffffffffffffffff16908060010160149054906101000a900460ff16905083565b60008080549050905090565b602060405190810160405280600081525090565b604051611647806115da83390190565b81548183558181151161147d5760020281600202836000526020600020918201910161147c9190611502565b5b505050565b828054600181600116156101000203166002900490600052602060002090601f016020900481019282601f106114c357805160ff19168380011785556114f1565b828001600101855582156114f1579182015b828111156114f05782518255916020019190600101906114d5565b5b5090506114fe919061156c565b5090565b61156991905b8082111561156557600080820160006115219190611591565b6001820160006101000a81549073ffffffffffffffffffffffffffffffffffffffff02191690556001820160146101000a81549060ff021916905550600201611508565b5090565b90565b61158e91905b8082111561158a576000816000905550600101611572565b5090565b90565b50805460018160011615610100020316600290046000825580601f106115b757506115d6565b601f0160209004906000526020600020908101906115d5919061156c565b5b5056006060604052341561000f57600080fd5b60405160808061164783398101604052808051906020019091908051906020019091908051906020019091908051906020019091905050600073ffffffffffffffffffffffffffffffffffffffff168473ffffffffffffffffffffffffffffffffffffffff161415151561008257600080fd5b600073ffffffffffffffffffffffffffffffffffffffff168373ffffffffffffffffffffffffffffffffffffffff16141515156100be57600080fd5b836000806101000a81548173ffffffffffffffffffffffffffffffffffffffff021916908373ffffffffffffffffffffffffffffffffffffffff16021790555082600160006101000a81548173ffffffffffffffffffffffffffffffffffffffff021916908373ffffffffffffffffffffffffffffffffffffffff16021790555081600a8190555080600b8190555033600860006101000a81548173ffffffffffffffffffffffffffffffffffffffff021916908373ffffffffffffffffffffffffffffffffffffffff160217905550505050506114a6806101a16000396000f3006060604052600436106100db576000357c0100000000000000000000000000000000000000000000000000000000900463ffffffff16806325be124e146100e05780632c5bacd91461013557806336595d381461028d5780633ccfd60b146102ba57806347734892146102cf578063640e48f6146103235780638a8e021b1461037f5780638da5cb5b146103c8578063970065911461041d578063c96adb0114610446578063d21220a7146104af578063d5b2a01a14610504578063dfbf53ae1461052d578063ed6a6d2814610589578063f1820389146105b2575b600080fd5b34156100eb57600080fd5b6100f36105ff565b604051808273ffffffffffffffffffffffffffffffffffffffff1673ffffffffffffffffffffffffffffffffffffffff16815260200191505060405180910390f35b341561014057600080fd5b61028b6004808035906020019082018035906020019080806020026020016040519081016040528093929190818152602001838360200280828437820191505050505050919080359060200190820180359060200190808060200260200160405190810160405280939291908181526020018383602002808284378201915050505050509190803573ffffffffffffffffffffffffffffffffffffffff16906020019091908035906020019082018035906020019080806020026020016040519081016040528093929190818152602001838360200280828437820191505050505050919080359060200190820180359060200190808060200260200160405190810160405280939291908181526020018383602002808284378201915050505050509190803573ffffffffffffffffffffffffffffffffffffffff16906020019091905050610625565b005b341561029857600080fd5b6102a0610a64565b604051808215151515815260200191505060405180910390f35b34156102c557600080fd5b6102cd610a77565b005b34156102da57600080fd5b610306600480803573ffffffffffffffffffffffffffffffffffffffff16906020019091905050610d4f565b604051808381526020018281526020019250505060405180910390f35b341561032e57600080fd5b610336610f1a565b604051808373ffffffffffffffffffffffffffffffffffffffff1673ffffffffffffffffffffffffffffffffffffffff1681526020018281526020019250505060405180910390f35b341561038a57600080fd5b6103b26004808035906020019091908035906020019091908035906020019091905050610f4c565b6040518082815260200191505060405180910390f35b34156103d357600080fd5b6103db610f9b565b604051808273ffffffffffffffffffffffffffffffffffffffff1673ffffffffffffffffffffffffffffffffffffffff16815260200191505060405180910390f35b341561042857600080fd5b610430610fc1565b6040518082815260200191505060405180910390f35b341561045157600080fd5b61047d600480803573ffffffffffffffffffffffffffffffffffffffff16906020019091905050610fc7565b604051808681526020018581526020018481526020018381526020018281526020019550505050505060405180910390f35b34156104ba57600080fd5b6104c2611238565b604051808273ffffffffffffffffffffffffffffffffffffffff1673ffffffffffffffffffffffffffffffffffffffff16815260200191505060405180910390f35b341561050f57600080fd5b61051761125d565b6040518082815260200191505060405180910390f35b341561053857600080fd5b610540611263565b604051808373ffffffffffffffffffffffffffffffffffffffff1673ffffffffffffffffffffffffffffffffffffffff1681526020018281526020019250505060405180910390f35b341561059457600080fd5b61059c611295565b6040518082815260200191505060405180910390f35b34156105bd57600080fd5b6105e9600480803573ffffffffffffffffffffffffffffffffffffffff1690602001909190505061129b565b6040518082815260200191505060405180910390f35b600160009054906101000a900473ffffffffffffffffffffffffffffffffffffffff1681565b600080600860009054906101000a900473ffffffffffffffffffffffffffffffffffffffff1673ffffffffffffffffffffffffffffffffffffffff163373ffffffffffffffffffffffffffffffffffffffff1614151561068457600080fd5b8651885114151561069457600080fd5b835185511415156106a457600080fd5b8273ffffffffffffffffffffffffffffffffffffffff168673ffffffffffffffffffffffffffffffffffffffff16141515156106df57600080fd5b6000809054906101000a900473ffffffffffffffffffffffffffffffffffffffff1673ffffffffffffffffffffffffffffffffffffffff168673ffffffffffffffffffffffffffffffffffffffff1614806107875750600160009054906101000a900473ffffffffffffffffffffffffffffffffffffffff1673ffffffffffffffffffffffffffffffffffffffff168673ffffffffffffffffffffffffffffffffffffffff16145b151561079257600080fd5b6000809054906101000a900473ffffffffffffffffffffffffffffffffffffffff1673ffffffffffffffffffffffffffffffffffffffff168373ffffffffffffffffffffffffffffffffffffffff16148061083a5750600160009054906101000a900473ffffffffffffffffffffffffffffffffffffffff1673ffffffffffffffffffffffffffffffffffffffff168373ffffffffffffffffffffffffffffffffffffffff16145b151561084557600080fd5b85600260000160006101000a81548173ffffffffffffffffffffffffffffffffffffffff021916908373ffffffffffffffffffffffffffffffffffffffff16021790555082600560000160006101000a81548173ffffffffffffffffffffffffffffffffffffffff021916908373ffffffffffffffffffffffffffffffffffffffff160217905550600091505b875182101561098f5786828151811015156108e957fe5b90602001906020020151600260010160008a8581518110151561090857fe5b9060200190602002015173ffffffffffffffffffffffffffffffffffffffff1673ffffffffffffffffffffffffffffffffffffffff16815260200190815260200160002060008282540192505081905550868281518110151561096757fe5b90602001906020020151600280016000828254019250508190555081806001019250506108d2565b600090505b8451811015610a525783818151811015156109ab57fe5b906020019060200201516005600101600087848151811015156109ca57fe5b9060200190602002015173ffffffffffffffffffffffffffffffffffffffff1673ffffffffffffffffffffffffffffffffffffffff168152602001908152602001600020600082825401925050819055508381815181101515610a2957fe5b906020019060200201516005600201600082825401925050819055508080600101915050610994565b610a5a611310565b5050505050505050565b600c60009054906101000a900460ff1681565b60008060011515600c60009054906101000a900460ff161515141515610a9c57600080fd5b600260010160003373ffffffffffffffffffffffffffffffffffffffff1673ffffffffffffffffffffffffffffffffffffffff16815260200190815260200160002054915060008214151515610af157600080fd5b6000600280015414151515610b0557600080fd5b610b19600560020154836002800154610f4c565b905060008114151515610b2b57600080fd5b6000600260010160003373ffffffffffffffffffffffffffffffffffffffff1673ffffffffffffffffffffffffffffffffffffffff16815260200190815260200160002081905550600560000160009054906101000a900473ffffffffffffffffffffffffffffffffffffffff1673ffffffffffffffffffffffffffffffffffffffff1663a9059cbb33836000604051602001526040518363ffffffff167c0100000000000000000000000000000000000000000000000000000000028152600401808373ffffffffffffffffffffffffffffffffffffffff1673ffffffffffffffffffffffffffffffffffffffff16815260200182815260200192505050602060405180830381600087803b1515610c4357600080fd5b6102c65a03f11515610c5457600080fd5b5050506040518051905050600260000160009054906101000a900473ffffffffffffffffffffffffffffffffffffffff1673ffffffffffffffffffffffffffffffffffffffff1663a9059cbb33846000604051602001526040518363ffffffff167c0100000000000000000000000000000000000000000000000000000000028152600401808373ffffffffffffffffffffffffffffffffffffffff1673ffffffffffffffffffffffffffffffffffffffff16815260200182815260200192505050602060405180830381600087803b1515610d2f57600080fd5b6102c65a03f11515610d4057600080fd5b50505060405180519050505050565b6000806000809054906101000a900473ffffffffffffffffffffffffffffffffffffffff1673ffffffffffffffffffffffffffffffffffffffff166370a08231846000604051602001526040518263ffffffff167c0100000000000000000000000000000000000000000000000000000000028152600401808273ffffffffffffffffffffffffffffffffffffffff1673ffffffffffffffffffffffffffffffffffffffff168152602001915050602060405180830381600087803b1515610e1657600080fd5b6102c65a03f11515610e2757600080fd5b50505060405180519050600160009054906101000a900473ffffffffffffffffffffffffffffffffffffffff1673ffffffffffffffffffffffffffffffffffffffff166370a08231856000604051602001526040518263ffffffff167c0100000000000000000000000000000000000000000000000000000000028152600401808273ffffffffffffffffffffffffffffffffffffffff1673ffffffffffffffffffffffffffffffffffffffff168152602001915050602060405180830381600087803b1515610ef657600080fd5b6102c65a03f11515610f0757600080fd5b5050506040518051905091509150915091565b60058060000160009054906101000a900473ffffffffffffffffffffffffffffffffffffffff16908060020154905082565b6000808285101515610f6d5782848602811515610f6557fe5b049150610f93565b60018584811515610f7a57fe5b040190508083028185870202811515610f8f57fe5b0491505b509392505050565b600860009054906101000a900473ffffffffffffffffffffffffffffffffffffffff1681565b600b5481565b60008060008060008060009054906101000a900473ffffffffffffffffffffffffffffffffffffffff1673ffffffffffffffffffffffffffffffffffffffff16600260000160009054906101000a900473ffffffffffffffffffffffffffffffffffffffff1673ffffffffffffffffffffffffffffffffffffffff1614156110ee576001600260010160008873ffffffffffffffffffffffffffffffffffffffff1673ffffffffffffffffffffffffffffffffffffffff16815260200190815260200160002054600560010160008973ffffffffffffffffffffffffffffffffffffffff1673ffffffffffffffffffffffffffffffffffffffff1681526020019081526020016000205460028001546005600201548494509450945094509450945061122f565b600160009054906101000a900473ffffffffffffffffffffffffffffffffffffffff1673ffffffffffffffffffffffffffffffffffffffff16600260000160009054906101000a900473ffffffffffffffffffffffffffffffffffffffff1673ffffffffffffffffffffffffffffffffffffffff16141561120d5760028060010160008873ffffffffffffffffffffffffffffffffffffffff1673ffffffffffffffffffffffffffffffffffffffff16815260200190815260200160002054600560010160008973ffffffffffffffffffffffffffffffffffffffff1673ffffffffffffffffffffffffffffffffffffffff1681526020019081526020016000205460028001546005600201548494509450945094509450945061122f565b6000806000806000849450839350829250819150809050945094509450945094505b91939590929450565b6000809054906101000a900473ffffffffffffffffffffffffffffffffffffffff1681565b60095481565b60028060000160009054906101000a900473ffffffffffffffffffffffffffffffffffffffff16908060020154905082565b600a5481565b60008173ffffffffffffffffffffffffffffffffffffffff16600260000160009054906101000a900473ffffffffffffffffffffffffffffffffffffffff1673ffffffffffffffffffffffffffffffffffffffff161415611302576002800154905061130b565b60056002015490505b919050565b600060056002015414151561145d5761133160056002015460016014610f4c565b600981905550600954600560020160008282540392505081905550600560000160009054906101000a900473ffffffffffffffffffffffffffffffffffffffff1673ffffffffffffffffffffffffffffffffffffffff1663a9059cbb600860009054906101000a900473ffffffffffffffffffffffffffffffffffffffff166009546000604051602001526040518363ffffffff167c0100000000000000000000000000000000000000000000000000000000028152600401808373ffffffffffffffffffffffffffffffffffffffff1673ffffffffffffffffffffffffffffffffffffffff16815260200182815260200192505050602060405180830381600087803b151561144057600080fd5b6102c65a03f1151561145157600080fd5b50505060405180519050505b6001600c60006101000a81548160ff0219169083151502179055505600a165627a7a7230582045a0a706bd9b760e0ed4cb37b2b4c7b1185f26544629b9439ace550dbf8e9ef00029a165627a7a72305820e70e4390ec8abf22027accdeaa093e9ef57d362fbfc155ab96c17e54c34f01da0029",
  "source": "pragma solidity ^0.4.18;\nimport { CoinWar } from \"./CoinWar.sol\";\n\ncontract WarFactory {\n\n  struct War {\n    string opponents;\n    CoinWar coinWar;\n    bool isOngoing;\n  }\n\n  War[] public allWars;\n  uint public ongGoingWars;\n\n  address public owner;\n  event WarClosed(uint index);\n  event NewWarCreated(string opponents);\n\n  function WarFactory()\n    public\n  {\n    owner = msg.sender;\n  }\n\n  function createCoinWar(string _opponents, address _tokeOne, address _tokenTwo, uint _fromBlock, uint _toBlock)\n    public\n    onlyOwner\n  {\n    ongGoingWars += 1;\n    CoinWar newWar = new CoinWar(_tokeOne, _tokenTwo, _fromBlock, _toBlock);\n    allWars.push(War(_opponents, newWar, true));\n    NewWarCreated(_opponents);\n  }\n\n  function closeWarAtIndex(uint index, address[] winningAddresses, uint[] winningBets, address winningContract, address[] loosingAddresses, uint[] loosingBets, address loosingContract)\n    public\n    onlyOwner\n  {\n    ongGoingWars -= 1;\n    allWars[index].isOngoing = false;\n    CoinWar(allWars[index].coinWar).setResults(winningAddresses, winningBets, winningContract, loosingAddresses, loosingBets, loosingContract);\n    WarClosed(index);\n  }\n\n  function getWarAtIndex(uint index)\n    public\n    view\n    returns (string,address, address, uint, uint, uint, uint, address)\n  {\n    CoinWar coinWar = CoinWar(allWars[index].coinWar);\n    var (balance1, balance2) = coinWar.getUserBalance(msg.sender);\n    return (allWars[index].opponents, address(coinWar.token1()), address(coinWar.token2()), balance1, balance2, coinWar.fromBlock(), coinWar.toBlock(), address(coinWar));\n  }\n\n  function isWarClosedAtIndex(uint index) public view returns (bool, address) {\n    CoinWar coinWar = CoinWar(allWars[index].coinWar);\n    return (allWars[index].isOngoing, address(coinWar));\n  }\n\n  function getResultsAtIndexForUser(uint index, address user)\n    public\n    view\n    returns (string, uint, uint, uint, uint, uint, address)\n  {\n    CoinWar coinWar = CoinWar(allWars[index].coinWar);\n    var (winnerIndex, winningBet, loosingBet, totalWinningBet, totalLoosingBet) = coinWar.getUserBet(user);\n\n    return (allWars[index].opponents, winnerIndex, winningBet, loosingBet, totalWinningBet, totalLoosingBet, address(coinWar));\n\n  }\n\n  modifier onlyOwner() {\n    require(msg.sender == owner);\n    _ ;\n  }\n\n  function getWarsCount() public view returns (uint) {\n    return allWars.length;\n  }\n\n}\n",
  "sourcePath": "/Users/rahulkapur/Desktop/Projects/CoinWars/src/solidity/contracts/WarFactory.sol",
  "compiler": {
    "name": "solc",
    "version": "0.4.19+commit.c4cbbb05.Emscripten.clang"
  },
  "schemaVersion": "2.0.0",
  "updatedAt": "2018-04-28T11:24:22.458Z"
}