{
  "contractName": "WarFactory",
  "abi": [
    {
      "constant": true,
      "inputs": [],
      "name": "ongGoingWars",
      "outputs": [
        {
          "name": "",
          "type": "uint256"
        }
      ],
      "payable": false,
      "stateMutability": "view",
      "type": "function"
    },
    {
      "constant": true,
      "inputs": [],
      "name": "owner",
      "outputs": [
        {
          "name": "",
          "type": "address"
        }
      ],
      "payable": false,
      "stateMutability": "view",
      "type": "function"
    },
    {
      "constant": true,
      "inputs": [
        {
          "name": "",
          "type": "uint256"
        }
      ],
      "name": "allWars",
      "outputs": [
        {
          "name": "opponents",
          "type": "string"
        },
        {
          "name": "coinWar",
          "type": "address"
        },
        {
          "name": "isOngoing",
          "type": "bool"
        }
      ],
      "payable": false,
      "stateMutability": "view",
      "type": "function"
    },
    {
      "inputs": [],
      "payable": false,
      "stateMutability": "nonpayable",
      "type": "constructor"
    },
    {
      "anonymous": false,
      "inputs": [
        {
          "indexed": false,
          "name": "index",
          "type": "uint256"
        }
      ],
      "name": "WarClosed",
      "type": "event"
    },
    {
      "constant": false,
      "inputs": [
        {
          "name": "_opponents",
          "type": "string"
        },
        {
          "name": "_tokeOne",
          "type": "address"
        },
        {
          "name": "_tokenTwo",
          "type": "address"
        },
        {
          "name": "_fromBlock",
          "type": "uint256"
        },
        {
          "name": "_toBlock",
          "type": "uint256"
        }
      ],
      "name": "createCoinWar",
      "outputs": [],
      "payable": false,
      "stateMutability": "nonpayable",
      "type": "function"
    },
    {
      "constant": false,
      "inputs": [
        {
          "name": "index",
          "type": "uint256"
        },
        {
          "name": "winningAddresses",
          "type": "address[]"
        },
        {
          "name": "winningBets",
          "type": "uint256[]"
        },
        {
          "name": "winningContract",
          "type": "address"
        },
        {
          "name": "loosingAddresses",
          "type": "address[]"
        },
        {
          "name": "loosingBets",
          "type": "uint256[]"
        },
        {
          "name": "loosingContract",
          "type": "address"
        }
      ],
      "name": "closeWarAtIndex",
      "outputs": [],
      "payable": false,
      "stateMutability": "nonpayable",
      "type": "function"
    },
    {
      "constant": true,
      "inputs": [
        {
          "name": "index",
          "type": "uint256"
        }
      ],
      "name": "getWarAtIndex",
      "outputs": [
        {
          "name": "",
          "type": "string"
        },
        {
          "name": "",
          "type": "address"
        },
        {
          "name": "",
          "type": "address"
        },
        {
          "name": "",
          "type": "uint256"
        },
        {
          "name": "",
          "type": "uint256"
        },
        {
          "name": "",
          "type": "uint256"
        },
        {
          "name": "",
          "type": "uint256"
        },
        {
          "name": "",
          "type": "address"
        }
      ],
      "payable": false,
      "stateMutability": "view",
      "type": "function"
    },
    {
      "constant": true,
      "inputs": [
        {
          "name": "index",
          "type": "uint256"
        },
        {
          "name": "user",
          "type": "address"
        }
      ],
      "name": "getResultsAtIndexForUser",
      "outputs": [
        {
          "name": "",
          "type": "string"
        },
        {
          "name": "",
          "type": "uint256"
        },
        {
          "name": "",
          "type": "uint256"
        },
        {
          "name": "",
          "type": "uint256"
        },
        {
          "name": "",
          "type": "uint256"
        },
        {
          "name": "",
          "type": "uint256"
        }
      ],
      "payable": false,
      "stateMutability": "view",
      "type": "function"
    },
    {
      "constant": true,
      "inputs": [],
      "name": "getWarsCount",
      "outputs": [
        {
          "name": "",
          "type": "uint256"
        }
      ],
      "payable": false,
      "stateMutability": "view",
      "type": "function"
    }
  ],
  "bytecode": "0x6060604052341561000f57600080fd5b33600260006101000a81548173ffffffffffffffffffffffffffffffffffffffff021916908373ffffffffffffffffffffffffffffffffffffffff1602179055506129808061005f6000396000f30060606040526004361061008e576000357c0100000000000000000000000000000000000000000000000000000000900463ffffffff16806310302a61146100935780633af6f418146101e4578063445bca0b146102915780635cc520a5146102ba5780635d9d425b146103985780638da5cb5b146104f9578063b0d8ce0f1461054e578063f4581b6714610645575b600080fd5b341561009e57600080fd5b6100b4600480803590602001909190505061066e565b60405180806020018973ffffffffffffffffffffffffffffffffffffffff1673ffffffffffffffffffffffffffffffffffffffff1681526020018873ffffffffffffffffffffffffffffffffffffffff1673ffffffffffffffffffffffffffffffffffffffff1681526020018781526020018681526020018581526020018481526020018373ffffffffffffffffffffffffffffffffffffffff1673ffffffffffffffffffffffffffffffffffffffff16815260200182810382528a818151815260200191508051906020019080838360005b838110156101a2578082015181840152602081019050610187565b50505050905090810190601f1680156101cf5780820380516001836020036101000a031916815260200191505b50995050505050505050505060405180910390f35b34156101ef57600080fd5b61028f600480803590602001908201803590602001908080601f0160208091040260200160405190810160405280939291908181526020018383808284378201915050505050509190803573ffffffffffffffffffffffffffffffffffffffff1690602001909190803573ffffffffffffffffffffffffffffffffffffffff16906020019091908035906020019091908035906020019091905050610a51565b005b341561029c57600080fd5b6102a4610c47565b6040518082815260200191505060405180910390f35b34156102c557600080fd5b6102fa600480803590602001909190803573ffffffffffffffffffffffffffffffffffffffff16906020019091905050610c4d565b6040518080602001878152602001868152602001858152602001848152602001838152602001828103825288818151815260200191508051906020019080838360005b8381101561035857808201518184015260208101905061033d565b50505050905090810190601f1680156103855780820380516001836020036101000a031916815260200191505b5097505050505050505060405180910390f35b34156103a357600080fd5b6104f76004808035906020019091908035906020019082018035906020019080806020026020016040519081016040528093929190818152602001838360200280828437820191505050505050919080359060200190820180359060200190808060200260200160405190810160405280939291908181526020018383602002808284378201915050505050509190803573ffffffffffffffffffffffffffffffffffffffff16906020019091908035906020019082018035906020019080806020026020016040519081016040528093929190818152602001838360200280828437820191505050505050919080359060200190820180359060200190808060200260200160405190810160405280939291908181526020018383602002808284378201915050505050509190803573ffffffffffffffffffffffffffffffffffffffff16906020019091905050610e65565b005b341561050457600080fd5b61050c61118f565b604051808273ffffffffffffffffffffffffffffffffffffffff1673ffffffffffffffffffffffffffffffffffffffff16815260200191505060405180910390f35b341561055957600080fd5b61056f60048080359060200190919050506111b5565b60405180806020018473ffffffffffffffffffffffffffffffffffffffff1673ffffffffffffffffffffffffffffffffffffffff168152602001831515151581526020018281038252858181546001816001161561010002031660029004815260200191508054600181600116156101000203166002900480156106345780601f1061060957610100808354040283529160200191610634565b820191906000526020600020905b81548152906001019060200180831161061757829003601f168201915b505094505050505060405180910390f35b341561065057600080fd5b61065861121a565b6040518082815260200191505060405180910390f35b610676611226565b60008060008060008060008060008060008c81548110151561069457fe5b906000526020600020906002020160010160009054906101000a900473ffffffffffffffffffffffffffffffffffffffff1692508273ffffffffffffffffffffffffffffffffffffffff16635a774cd06000604051604001526040518163ffffffff167c01000000000000000000000000000000000000000000000000000000000281526004016040805180830381600087803b151561073357600080fd5b6102c65a03f1151561074457600080fd5b505050604051805190602001805190509150915060008c81548110151561076757fe5b90600052602060002090600202016000018373ffffffffffffffffffffffffffffffffffffffff1663d21220a76000604051602001526040518163ffffffff167c0100000000000000000000000000000000000000000000000000000000028152600401602060405180830381600087803b15156107e457600080fd5b6102c65a03f115156107f557600080fd5b505050604051805190508473ffffffffffffffffffffffffffffffffffffffff166325be124e6000604051602001526040518163ffffffff167c0100000000000000000000000000000000000000000000000000000000028152600401602060405180830381600087803b151561086b57600080fd5b6102c65a03f1151561087c57600080fd5b5050506040518051905084848773ffffffffffffffffffffffffffffffffffffffff1663ed6a6d286000604051602001526040518163ffffffff167c0100000000000000000000000000000000000000000000000000000000028152600401602060405180830381600087803b15156108f457600080fd5b6102c65a03f1151561090557600080fd5b505050604051805190508873ffffffffffffffffffffffffffffffffffffffff1663970065916000604051602001526040518163ffffffff167c0100000000000000000000000000000000000000000000000000000000028152600401602060405180830381600087803b151561097b57600080fd5b6102c65a03f1151561098c57600080fd5b5050506040518051905089878054600181600116156101000203166002900480601f016020809104026020016040519081016040528092919081815260200182805460018160011615610100020316600290048015610a2c5780601f10610a0157610100808354040283529160200191610a2c565b820191906000526020600020905b815481529060010190602001808311610a0f57829003601f168201915b505050505097509a509a509a509a509a509a509a509a50505050919395975091939597565b6000600260009054906101000a900473ffffffffffffffffffffffffffffffffffffffff1673ffffffffffffffffffffffffffffffffffffffff163373ffffffffffffffffffffffffffffffffffffffff16141515610aaf57600080fd5b6001806000828254019250508190555084848484610acb61123a565b808573ffffffffffffffffffffffffffffffffffffffff1673ffffffffffffffffffffffffffffffffffffffff1681526020018473ffffffffffffffffffffffffffffffffffffffff1673ffffffffffffffffffffffffffffffffffffffff168152602001838152602001828152602001945050505050604051809103906000f0801515610b5857600080fd5b905060008054806001018281610b6e919061124a565b916000526020600020906002020160006060604051908101604052808a81526020018573ffffffffffffffffffffffffffffffffffffffff1681526020016001151581525090919091506000820151816000019080519060200190610bd492919061127c565b5060208201518160010160006101000a81548173ffffffffffffffffffffffffffffffffffffffff021916908373ffffffffffffffffffffffffffffffffffffffff16021790555060408201518160010160146101000a81548160ff021916908315150217905550505050505050505050565b60015481565b610c55611226565b6000806000806000806000806000806000808e815481101515610c7457fe5b906000526020600020906002020160010160009054906101000a900473ffffffffffffffffffffffffffffffffffffffff1695508573ffffffffffffffffffffffffffffffffffffffff1663c96adb018e600060405160a001526040518263ffffffff167c0100000000000000000000000000000000000000000000000000000000028152600401808273ffffffffffffffffffffffffffffffffffffffff1673ffffffffffffffffffffffffffffffffffffffff16815260200191505060a060405180830381600087803b1515610d4b57600080fd5b6102c65a03f11515610d5c57600080fd5b505050604051805190602001805190602001805190602001805190602001805190509450945094509450945060008e815481101515610d9757fe5b90600052602060002090600202016000018585858585858054600181600116156101000203166002900480601f016020809104026020016040519081016040528092919081815260200182805460018160011615610100020316600290048015610e425780601f10610e1757610100808354040283529160200191610e42565b820191906000526020600020905b815481529060010190602001808311610e2557829003601f168201915b505050505095509b509b509b509b509b509b505050505050509295509295509295565b600260009054906101000a900473ffffffffffffffffffffffffffffffffffffffff1673ffffffffffffffffffffffffffffffffffffffff163373ffffffffffffffffffffffffffffffffffffffff16141515610ec157600080fd5b6001806000828254039250508190555060008088815481101515610ee157fe5b906000526020600020906002020160010160146101000a81548160ff021916908315150217905550600087815481101515610f1857fe5b906000526020600020906002020160010160009054906101000a900473ffffffffffffffffffffffffffffffffffffffff1673ffffffffffffffffffffffffffffffffffffffff16632c5bacd98787878787876040518763ffffffff167c01000000000000000000000000000000000000000000000000000000000281526004018080602001806020018773ffffffffffffffffffffffffffffffffffffffff1673ffffffffffffffffffffffffffffffffffffffff16815260200180602001806020018673ffffffffffffffffffffffffffffffffffffffff1673ffffffffffffffffffffffffffffffffffffffff16815260200185810385528b818151815260200191508051906020019060200280838360005b8381101561104957808201518184015260208101905061102e565b5050505090500185810384528a818151815260200191508051906020019060200280838360005b8381101561108b578082015181840152602081019050611070565b50505050905001858103835288818151815260200191508051906020019060200280838360005b838110156110cd5780820151818401526020810190506110b2565b50505050905001858103825287818151815260200191508051906020019060200280838360005b8381101561110f5780820151818401526020810190506110f4565b505050509050019a5050505050505050505050600060405180830381600087803b151561113b57600080fd5b6102c65a03f1151561114c57600080fd5b5050507f51e788a162c32dbd4ba0c09fde4333bbf53bc60ca1491ea205c94614875e22ad876040518082815260200191505060405180910390a150505050505050565b600260009054906101000a900473ffffffffffffffffffffffffffffffffffffffff1681565b6000818154811015156111c457fe5b906000526020600020906002020160009150905080600001908060010160009054906101000a900473ffffffffffffffffffffffffffffffffffffffff16908060010160149054906101000a900460ff16905083565b60008080549050905090565b602060405190810160405280600081525090565b604051611581806113d483390190565b8154818355818115116112775760020281600202836000526020600020918201910161127691906112fc565b5b505050565b828054600181600116156101000203166002900490600052602060002090601f016020900481019282601f106112bd57805160ff19168380011785556112eb565b828001600101855582156112eb579182015b828111156112ea5782518255916020019190600101906112cf565b5b5090506112f89190611366565b5090565b61136391905b8082111561135f576000808201600061131b919061138b565b6001820160006101000a81549073ffffffffffffffffffffffffffffffffffffffff02191690556001820160146101000a81549060ff021916905550600201611302565b5090565b90565b61138891905b8082111561138457600081600090555060010161136c565b5090565b90565b50805460018160011615610100020316600290046000825580601f106113b157506113d0565b601f0160209004906000526020600020908101906113cf9190611366565b5b5056006060604052341561000f57600080fd5b60405160808061158183398101604052808051906020019091908051906020019091908051906020019091908051906020019091905050600073ffffffffffffffffffffffffffffffffffffffff168473ffffffffffffffffffffffffffffffffffffffff161415151561008257600080fd5b600073ffffffffffffffffffffffffffffffffffffffff168373ffffffffffffffffffffffffffffffffffffffff16141515156100be57600080fd5b836000806101000a81548173ffffffffffffffffffffffffffffffffffffffff021916908373ffffffffffffffffffffffffffffffffffffffff16021790555082600160006101000a81548173ffffffffffffffffffffffffffffffffffffffff021916908373ffffffffffffffffffffffffffffffffffffffff16021790555081600a8190555080600b8190555033600860006101000a81548173ffffffffffffffffffffffffffffffffffffffff021916908373ffffffffffffffffffffffffffffffffffffffff160217905550505050506113e0806101a16000396000f3006060604052600436106100db576000357c0100000000000000000000000000000000000000000000000000000000900463ffffffff16806325be124e146100e05780632c5bacd91461013557806336595d381461028d5780633ccfd60b146102ba5780635a774cd0146102cf578063640e48f6146102ff5780638a8e021b1461035b5780638da5cb5b146103a457806397006591146103f9578063c96adb0114610422578063d21220a71461048b578063d5b2a01a146104e0578063dfbf53ae14610509578063ed6a6d2814610565578063f18203891461058e575b600080fd5b34156100eb57600080fd5b6100f36105db565b604051808273ffffffffffffffffffffffffffffffffffffffff1673ffffffffffffffffffffffffffffffffffffffff16815260200191505060405180910390f35b341561014057600080fd5b61028b6004808035906020019082018035906020019080806020026020016040519081016040528093929190818152602001838360200280828437820191505050505050919080359060200190820180359060200190808060200260200160405190810160405280939291908181526020018383602002808284378201915050505050509190803573ffffffffffffffffffffffffffffffffffffffff16906020019091908035906020019082018035906020019080806020026020016040519081016040528093929190818152602001838360200280828437820191505050505050919080359060200190820180359060200190808060200260200160405190810160405280939291908181526020018383602002808284378201915050505050509190803573ffffffffffffffffffffffffffffffffffffffff16906020019091905050610601565b005b341561029857600080fd5b6102a0610a40565b604051808215151515815260200191505060405180910390f35b34156102c557600080fd5b6102cd610a53565b005b34156102da57600080fd5b6102e2610d2b565b604051808381526020018281526020019250505060405180910390f35b341561030a57600080fd5b610312610ef5565b604051808373ffffffffffffffffffffffffffffffffffffffff1673ffffffffffffffffffffffffffffffffffffffff1681526020018281526020019250505060405180910390f35b341561036657600080fd5b61038e6004808035906020019091908035906020019091908035906020019091905050610f27565b6040518082815260200191505060405180910390f35b34156103af57600080fd5b6103b7610f76565b604051808273ffffffffffffffffffffffffffffffffffffffff1673ffffffffffffffffffffffffffffffffffffffff16815260200191505060405180910390f35b341561040457600080fd5b61040c610f9c565b6040518082815260200191505060405180910390f35b341561042d57600080fd5b610459600480803573ffffffffffffffffffffffffffffffffffffffff16906020019091905050610fa2565b604051808681526020018581526020018481526020018381526020018281526020019550505050505060405180910390f35b341561049657600080fd5b61049e611172565b604051808273ffffffffffffffffffffffffffffffffffffffff1673ffffffffffffffffffffffffffffffffffffffff16815260200191505060405180910390f35b34156104eb57600080fd5b6104f3611197565b6040518082815260200191505060405180910390f35b341561051457600080fd5b61051c61119d565b604051808373ffffffffffffffffffffffffffffffffffffffff1673ffffffffffffffffffffffffffffffffffffffff1681526020018281526020019250505060405180910390f35b341561057057600080fd5b6105786111cf565b6040518082815260200191505060405180910390f35b341561059957600080fd5b6105c5600480803573ffffffffffffffffffffffffffffffffffffffff169060200190919050506111d5565b6040518082815260200191505060405180910390f35b600160009054906101000a900473ffffffffffffffffffffffffffffffffffffffff1681565b600080600860009054906101000a900473ffffffffffffffffffffffffffffffffffffffff1673ffffffffffffffffffffffffffffffffffffffff163373ffffffffffffffffffffffffffffffffffffffff1614151561066057600080fd5b8651885114151561067057600080fd5b8351855114151561068057600080fd5b8273ffffffffffffffffffffffffffffffffffffffff168673ffffffffffffffffffffffffffffffffffffffff16141515156106bb57600080fd5b6000809054906101000a900473ffffffffffffffffffffffffffffffffffffffff1673ffffffffffffffffffffffffffffffffffffffff168673ffffffffffffffffffffffffffffffffffffffff1614806107635750600160009054906101000a900473ffffffffffffffffffffffffffffffffffffffff1673ffffffffffffffffffffffffffffffffffffffff168673ffffffffffffffffffffffffffffffffffffffff16145b151561076e57600080fd5b6000809054906101000a900473ffffffffffffffffffffffffffffffffffffffff1673ffffffffffffffffffffffffffffffffffffffff168373ffffffffffffffffffffffffffffffffffffffff1614806108165750600160009054906101000a900473ffffffffffffffffffffffffffffffffffffffff1673ffffffffffffffffffffffffffffffffffffffff168373ffffffffffffffffffffffffffffffffffffffff16145b151561082157600080fd5b85600260000160006101000a81548173ffffffffffffffffffffffffffffffffffffffff021916908373ffffffffffffffffffffffffffffffffffffffff16021790555082600560000160006101000a81548173ffffffffffffffffffffffffffffffffffffffff021916908373ffffffffffffffffffffffffffffffffffffffff160217905550600091505b875182101561096b5786828151811015156108c557fe5b90602001906020020151600260010160008a858151811015156108e457fe5b9060200190602002015173ffffffffffffffffffffffffffffffffffffffff1673ffffffffffffffffffffffffffffffffffffffff16815260200190815260200160002060008282540192505081905550868281518110151561094357fe5b90602001906020020151600280016000828254019250508190555081806001019250506108ae565b600090505b8451811015610a2e57838181518110151561098757fe5b906020019060200201516005600101600087848151811015156109a657fe5b9060200190602002015173ffffffffffffffffffffffffffffffffffffffff1673ffffffffffffffffffffffffffffffffffffffff168152602001908152602001600020600082825401925050819055508381815181101515610a0557fe5b906020019060200201516005600201600082825401925050819055508080600101915050610970565b610a3661124a565b5050505050505050565b600c60009054906101000a900460ff1681565b60008060011515600c60009054906101000a900460ff161515141515610a7857600080fd5b600260010160003373ffffffffffffffffffffffffffffffffffffffff1673ffffffffffffffffffffffffffffffffffffffff16815260200190815260200160002054915060008214151515610acd57600080fd5b6000600280015414151515610ae157600080fd5b610af5600560020154836002800154610f27565b905060008114151515610b0757600080fd5b6000600260010160003373ffffffffffffffffffffffffffffffffffffffff1673ffffffffffffffffffffffffffffffffffffffff16815260200190815260200160002081905550600560000160009054906101000a900473ffffffffffffffffffffffffffffffffffffffff1673ffffffffffffffffffffffffffffffffffffffff1663a9059cbb33836000604051602001526040518363ffffffff167c0100000000000000000000000000000000000000000000000000000000028152600401808373ffffffffffffffffffffffffffffffffffffffff1673ffffffffffffffffffffffffffffffffffffffff16815260200182815260200192505050602060405180830381600087803b1515610c1f57600080fd5b6102c65a03f11515610c3057600080fd5b5050506040518051905050600260000160009054906101000a900473ffffffffffffffffffffffffffffffffffffffff1673ffffffffffffffffffffffffffffffffffffffff1663a9059cbb33846000604051602001526040518363ffffffff167c0100000000000000000000000000000000000000000000000000000000028152600401808373ffffffffffffffffffffffffffffffffffffffff1673ffffffffffffffffffffffffffffffffffffffff16815260200182815260200192505050602060405180830381600087803b1515610d0b57600080fd5b6102c65a03f11515610d1c57600080fd5b50505060405180519050505050565b6000806000809054906101000a900473ffffffffffffffffffffffffffffffffffffffff1673ffffffffffffffffffffffffffffffffffffffff166370a08231306000604051602001526040518263ffffffff167c0100000000000000000000000000000000000000000000000000000000028152600401808273ffffffffffffffffffffffffffffffffffffffff1673ffffffffffffffffffffffffffffffffffffffff168152602001915050602060405180830381600087803b1515610df257600080fd5b6102c65a03f11515610e0357600080fd5b50505060405180519050600160009054906101000a900473ffffffffffffffffffffffffffffffffffffffff1673ffffffffffffffffffffffffffffffffffffffff166370a08231306000604051602001526040518263ffffffff167c0100000000000000000000000000000000000000000000000000000000028152600401808273ffffffffffffffffffffffffffffffffffffffff1673ffffffffffffffffffffffffffffffffffffffff168152602001915050602060405180830381600087803b1515610ed257600080fd5b6102c65a03f11515610ee357600080fd5b50505060405180519050915091509091565b60058060000160009054906101000a900473ffffffffffffffffffffffffffffffffffffffff16908060020154905082565b6000808285101515610f485782848602811515610f4057fe5b049150610f6e565b60018584811515610f5557fe5b040190508083028185870202811515610f6a57fe5b0491505b509392505050565b600860009054906101000a900473ffffffffffffffffffffffffffffffffffffffff1681565b600b5481565b60008060008060008060009054906101000a900473ffffffffffffffffffffffffffffffffffffffff1673ffffffffffffffffffffffffffffffffffffffff16600260000160009054906101000a900473ffffffffffffffffffffffffffffffffffffffff1673ffffffffffffffffffffffffffffffffffffffff1614156110c9576001600260010160008873ffffffffffffffffffffffffffffffffffffffff1673ffffffffffffffffffffffffffffffffffffffff16815260200190815260200160002054600560010160008973ffffffffffffffffffffffffffffffffffffffff1673ffffffffffffffffffffffffffffffffffffffff16815260200190815260200160002054600280015460056002015484945094509450945094509450611169565b60028060010160008873ffffffffffffffffffffffffffffffffffffffff1673ffffffffffffffffffffffffffffffffffffffff16815260200190815260200160002054600560010160008973ffffffffffffffffffffffffffffffffffffffff1673ffffffffffffffffffffffffffffffffffffffff168152602001908152602001600020546002800154600560020154849450945094509450945094505b91939590929450565b6000809054906101000a900473ffffffffffffffffffffffffffffffffffffffff1681565b60095481565b60028060000160009054906101000a900473ffffffffffffffffffffffffffffffffffffffff16908060020154905082565b600a5481565b60008173ffffffffffffffffffffffffffffffffffffffff16600260000160009054906101000a900473ffffffffffffffffffffffffffffffffffffffff1673ffffffffffffffffffffffffffffffffffffffff16141561123c5760028001549050611245565b60056002015490505b919050565b60006005600201541415156113975761126b60056002015460016014610f27565b600981905550600954600560020160008282540392505081905550600560000160009054906101000a900473ffffffffffffffffffffffffffffffffffffffff1673ffffffffffffffffffffffffffffffffffffffff1663a9059cbb600860009054906101000a900473ffffffffffffffffffffffffffffffffffffffff166009546000604051602001526040518363ffffffff167c0100000000000000000000000000000000000000000000000000000000028152600401808373ffffffffffffffffffffffffffffffffffffffff1673ffffffffffffffffffffffffffffffffffffffff16815260200182815260200192505050602060405180830381600087803b151561137a57600080fd5b6102c65a03f1151561138b57600080fd5b50505060405180519050505b6001600c60006101000a81548160ff0219169083151502179055505600a165627a7a72305820d72ccb5dd32d68e130da8ea8ea3f9c8eba0ead1895c0c4b0725d77d174ac33b90029a165627a7a72305820245128c5872cb647182be95f10da921d0073f83f9ef2d3e6e72ab99d6a11ffcc0029",
  "source": "pragma solidity ^0.4.18;\n\n\nimport { CoinWar } from \"./CoinWar.sol\";\n\n\n\n\ncontract WarFactory {\n\n  struct War {\n    string opponents;\n    CoinWar coinWar;\n    bool isOngoing;\n  }\n\n  War[] public allWars;\n  uint public ongGoingWars;\n\n  address public owner;\n  event WarClosed(uint index);\n\n  function WarFactory()\n    public\n  {\n    owner = msg.sender;\n  }\n\n  function createCoinWar(string _opponents, address _tokeOne, address _tokenTwo, uint _fromBlock, uint _toBlock)\n    public\n    onlyOwner\n  {\n    ongGoingWars += 1;\n    CoinWar newWar = new CoinWar(_tokeOne, _tokenTwo, _fromBlock, _toBlock);\n    allWars.push(War(_opponents, newWar, true));\n  }\n\n  function closeWarAtIndex(uint index, address[] winningAddresses, uint[] winningBets, address winningContract, address[] loosingAddresses, uint[] loosingBets, address loosingContract)\n    public\n    onlyOwner\n  {\n    ongGoingWars -= 1;\n    allWars[index].isOngoing = false;\n    CoinWar(allWars[index].coinWar).setResults(winningAddresses, winningBets, winningContract, loosingAddresses, loosingBets, loosingContract);\n    WarClosed(index);\n  }\n\n  function getWarAtIndex(uint index)\n    public\n    view\n    returns (string,address, address, uint, uint, uint, uint, address)\n  {\n    CoinWar coinWar = CoinWar(allWars[index].coinWar);\n    var (balance1, balance2) = coinWar.getOpponentsBalance();\n    return (allWars[index].opponents, address(coinWar.token1()), address(coinWar.token2()), balance1, balance2, coinWar.fromBlock(), coinWar.toBlock(), address(coinWar));\n  }\n\n  function getResultsAtIndexForUser(uint index, address user)\n    public\n    view\n    returns (string, uint, uint, uint, uint, uint)\n  {\n    CoinWar coinWar = CoinWar(allWars[index].coinWar);\n    var (winnerIndex, winningBet, loosingBet, totalWinningBet, totalLoosingBet) = coinWar.getUserBet(user);\n\n    return (allWars[index].opponents, winnerIndex, winningBet, loosingBet, totalWinningBet, totalLoosingBet);\n\n  }\n\n\n\n  modifier onlyOwner() {\n    require(msg.sender == owner);\n    _ ;\n  }\n\n  function getWarsCount() public view returns (uint) {\n    return allWars.length;\n  }\n\n}\n",
  "sourcePath": "/Volumes/HD-B1/dapps/coinwars/src/solidity/contracts/WarFactory.sol",
  "compiler": {
    "name": "solc",
    "version": "0.4.19+commit.c4cbbb05.Emscripten.clang"
  },
  "schemaVersion": "2.0.0",
  "updatedAt": "2018-04-08T09:32:35.454Z"
}