{
  "contractName": "WarFactory",
  "abi": [
    {
      "constant": true,
      "inputs": [],
      "name": "ongGoingWars",
      "outputs": [
        {
          "name": "",
          "type": "uint256"
        }
      ],
      "payable": false,
      "stateMutability": "view",
      "type": "function"
    },
    {
      "constant": true,
      "inputs": [],
      "name": "owner",
      "outputs": [
        {
          "name": "",
          "type": "address"
        }
      ],
      "payable": false,
      "stateMutability": "view",
      "type": "function"
    },
    {
      "constant": true,
      "inputs": [
        {
          "name": "",
          "type": "uint256"
        }
      ],
      "name": "allWars",
      "outputs": [
        {
          "name": "opponents",
          "type": "string"
        },
        {
          "name": "coinWar",
          "type": "address"
        },
        {
          "name": "isOngoing",
          "type": "bool"
        },
        {
          "name": "warID",
          "type": "string"
        }
      ],
      "payable": false,
      "stateMutability": "view",
      "type": "function"
    },
    {
      "inputs": [],
      "payable": false,
      "stateMutability": "nonpayable",
      "type": "constructor"
    },
    {
      "anonymous": false,
      "inputs": [
        {
          "indexed": false,
          "name": "warID",
          "type": "string"
        }
      ],
      "name": "NewWarStarted",
      "type": "event"
    },
    {
      "constant": false,
      "inputs": [
        {
          "name": "_opponents",
          "type": "string"
        },
        {
          "name": "_coinWarAddress",
          "type": "address"
        },
        {
          "name": "_warID",
          "type": "string"
        }
      ],
      "name": "createCoinWar",
      "outputs": [],
      "payable": false,
      "stateMutability": "nonpayable",
      "type": "function"
    },
    {
      "constant": false,
      "inputs": [
        {
          "name": "index",
          "type": "uint256"
        },
        {
          "name": "winningAddresses",
          "type": "address[]"
        },
        {
          "name": "winningBets",
          "type": "uint256[]"
        },
        {
          "name": "winningContract",
          "type": "address"
        },
        {
          "name": "loosingAddresses",
          "type": "address[]"
        },
        {
          "name": "loosingBets",
          "type": "uint256[]"
        },
        {
          "name": "loosingContract",
          "type": "address"
        }
      ],
      "name": "closeWarAtIndex",
      "outputs": [],
      "payable": false,
      "stateMutability": "nonpayable",
      "type": "function"
    },
    {
      "constant": true,
      "inputs": [
        {
          "name": "index",
          "type": "uint256"
        }
      ],
      "name": "getWarAtIndex",
      "outputs": [
        {
          "name": "",
          "type": "string"
        },
        {
          "name": "",
          "type": "address"
        },
        {
          "name": "",
          "type": "address"
        },
        {
          "name": "",
          "type": "uint256"
        },
        {
          "name": "",
          "type": "uint256"
        },
        {
          "name": "",
          "type": "uint256"
        },
        {
          "name": "",
          "type": "uint256"
        },
        {
          "name": "",
          "type": "address"
        }
      ],
      "payable": false,
      "stateMutability": "view",
      "type": "function"
    },
    {
      "constant": true,
      "inputs": [],
      "name": "getWarsCount",
      "outputs": [
        {
          "name": "",
          "type": "uint256"
        }
      ],
      "payable": false,
      "stateMutability": "view",
      "type": "function"
    }
  ],
  "bytecode": "0x6060604052600a600155341561001457600080fd5b33600260006101000a81548173ffffffffffffffffffffffffffffffffffffffff021916908373ffffffffffffffffffffffffffffffffffffffff160217905550611186806100646000396000f300606060405260043610610083576000357c0100000000000000000000000000000000000000000000000000000000900463ffffffff16806310302a6114610088578063445bca0b146101d95780634ea32331146102025780635d9d425b146102c15780638da5cb5b14610422578063b0d8ce0f14610477578063f4581b67146105f7575b600080fd5b341561009357600080fd5b6100a96004808035906020019091905050610620565b60405180806020018973ffffffffffffffffffffffffffffffffffffffff1673ffffffffffffffffffffffffffffffffffffffff1681526020018873ffffffffffffffffffffffffffffffffffffffff1673ffffffffffffffffffffffffffffffffffffffff1681526020018781526020018681526020018581526020018481526020018373ffffffffffffffffffffffffffffffffffffffff1673ffffffffffffffffffffffffffffffffffffffff16815260200182810382528a818151815260200191508051906020019080838360005b8381101561019757808201518184015260208101905061017c565b50505050905090810190601f1680156101c45780820380516001836020036101000a031916815260200191505b50995050505050505050505060405180910390f35b34156101e457600080fd5b6101ec610a03565b6040518082815260200191505060405180910390f35b341561020d57600080fd5b6102bf600480803590602001908201803590602001908080601f0160208091040260200160405190810160405280939291908181526020018383808284378201915050505050509190803573ffffffffffffffffffffffffffffffffffffffff1690602001909190803590602001908201803590602001908080601f01602080910402602001604051908101604052809392919081815260200183838082843782019150505050505091905050610a09565b005b34156102cc57600080fd5b6104206004808035906020019091908035906020019082018035906020019080806020026020016040519081016040528093929190818152602001838360200280828437820191505050505050919080359060200190820180359060200190808060200260200160405190810160405280939291908181526020018383602002808284378201915050505050509190803573ffffffffffffffffffffffffffffffffffffffff16906020019091908035906020019082018035906020019080806020026020016040519081016040528093929190818152602001838360200280828437820191505050505050919080359060200190820180359060200190808060200260200160405190810160405280939291908181526020018383602002808284378201915050505050509190803573ffffffffffffffffffffffffffffffffffffffff16906020019091905050610c1e565b005b341561042d57600080fd5b610435610f11565b604051808273ffffffffffffffffffffffffffffffffffffffff1673ffffffffffffffffffffffffffffffffffffffff16815260200191505060405180910390f35b341561048257600080fd5b6104986004808035906020019091905050610f37565b60405180806020018573ffffffffffffffffffffffffffffffffffffffff1673ffffffffffffffffffffffffffffffffffffffff16815260200184151515158152602001806020018381038352878181546001816001161561010002031660029004815260200191508054600181600116156101000203166002900480156105615780601f1061053657610100808354040283529160200191610561565b820191906000526020600020905b81548152906001019060200180831161054457829003601f168201915b50508381038252848181546001816001161561010002031660029004815260200191508054600181600116156101000203166002900480156105e45780601f106105b9576101008083540402835291602001916105e4565b820191906000526020600020905b8154815290600101906020018083116105c757829003601f168201915b5050965050505050505060405180910390f35b341561060257600080fd5b61060a610fa1565b6040518082815260200191505060405180910390f35b610628610fad565b60008060008060008060008060008060008c81548110151561064657fe5b906000526020600020906003020160010160009054906101000a900473ffffffffffffffffffffffffffffffffffffffff1692508273ffffffffffffffffffffffffffffffffffffffff16635a774cd06000604051604001526040518163ffffffff167c01000000000000000000000000000000000000000000000000000000000281526004016040805180830381600087803b15156106e557600080fd5b6102c65a03f115156106f657600080fd5b505050604051805190602001805190509150915060008c81548110151561071957fe5b90600052602060002090600302016000018373ffffffffffffffffffffffffffffffffffffffff1663d21220a76000604051602001526040518163ffffffff167c0100000000000000000000000000000000000000000000000000000000028152600401602060405180830381600087803b151561079657600080fd5b6102c65a03f115156107a757600080fd5b505050604051805190508473ffffffffffffffffffffffffffffffffffffffff166325be124e6000604051602001526040518163ffffffff167c0100000000000000000000000000000000000000000000000000000000028152600401602060405180830381600087803b151561081d57600080fd5b6102c65a03f1151561082e57600080fd5b5050506040518051905084848773ffffffffffffffffffffffffffffffffffffffff1663ed6a6d286000604051602001526040518163ffffffff167c0100000000000000000000000000000000000000000000000000000000028152600401602060405180830381600087803b15156108a657600080fd5b6102c65a03f115156108b757600080fd5b505050604051805190508873ffffffffffffffffffffffffffffffffffffffff1663970065916000604051602001526040518163ffffffff167c0100000000000000000000000000000000000000000000000000000000028152600401602060405180830381600087803b151561092d57600080fd5b6102c65a03f1151561093e57600080fd5b5050506040518051905089878054600181600116156101000203166002900480601f0160208091040260200160405190810160405280929190818152602001828054600181600116156101000203166002900480156109de5780601f106109b3576101008083540402835291602001916109de565b820191906000526020600020905b8154815290600101906020018083116109c157829003601f168201915b505050505097509a509a509a509a509a509a509a509a50505050919395975091939597565b60015481565b600260009054906101000a900473ffffffffffffffffffffffffffffffffffffffff1673ffffffffffffffffffffffffffffffffffffffff163373ffffffffffffffffffffffffffffffffffffffff16141515610a6557600080fd5b6001806000828254019250508190555060008054806001018281610a899190610fc1565b916000526020600020906003020160006080604051908101604052808781526020018673ffffffffffffffffffffffffffffffffffffffff1681526020016001151581526020018581525090919091506000820151816000019080519060200190610af5929190610ff3565b5060208201518160010160006101000a81548173ffffffffffffffffffffffffffffffffffffffff021916908373ffffffffffffffffffffffffffffffffffffffff16021790555060408201518160010160146101000a81548160ff0219169083151502179055506060820151816002019080519060200190610b79929190610ff3565b505050507f066101f2818ae85b2c7919403bce74a6c49bcb9200fb5d041daed7fa9d8c9f3e816040518080602001828103825283818151815260200191508051906020019080838360005b83811015610bdf578082015181840152602081019050610bc4565b50505050905090810190601f168015610c0c5780820380516001836020036101000a031916815260200191505b509250505060405180910390a1505050565b600260009054906101000a900473ffffffffffffffffffffffffffffffffffffffff1673ffffffffffffffffffffffffffffffffffffffff163373ffffffffffffffffffffffffffffffffffffffff16141515610c7a57600080fd5b6001806000828254039250508190555060008088815481101515610c9a57fe5b906000526020600020906003020160010160146101000a81548160ff021916908315150217905550600087815481101515610cd157fe5b906000526020600020906003020160010160009054906101000a900473ffffffffffffffffffffffffffffffffffffffff1673ffffffffffffffffffffffffffffffffffffffff16632c5bacd98787878787876040518763ffffffff167c01000000000000000000000000000000000000000000000000000000000281526004018080602001806020018773ffffffffffffffffffffffffffffffffffffffff1673ffffffffffffffffffffffffffffffffffffffff16815260200180602001806020018673ffffffffffffffffffffffffffffffffffffffff1673ffffffffffffffffffffffffffffffffffffffff16815260200185810385528b818151815260200191508051906020019060200280838360005b83811015610e02578082015181840152602081019050610de7565b5050505090500185810384528a818151815260200191508051906020019060200280838360005b83811015610e44578082015181840152602081019050610e29565b50505050905001858103835288818151815260200191508051906020019060200280838360005b83811015610e86578082015181840152602081019050610e6b565b50505050905001858103825287818151815260200191508051906020019060200280838360005b83811015610ec8578082015181840152602081019050610ead565b505050509050019a5050505050505050505050600060405180830381600087803b1515610ef457600080fd5b6102c65a03f11515610f0557600080fd5b50505050505050505050565b600260009054906101000a900473ffffffffffffffffffffffffffffffffffffffff1681565b600081815481101515610f4657fe5b906000526020600020906003020160009150905080600001908060010160009054906101000a900473ffffffffffffffffffffffffffffffffffffffff16908060010160149054906101000a900460ff169080600201905084565b60008080549050905090565b602060405190810160405280600081525090565b815481835581811511610fee57600302816003028360005260206000209182019101610fed9190611073565b5b505050565b828054600181600116156101000203166002900490600052602060002090601f016020900481019282601f1061103457805160ff1916838001178555611062565b82800160010185558215611062579182015b82811115611061578251825591602001919060010190611046565b5b50905061106f91906110ed565b5090565b6110ea91905b808211156110e657600080820160006110929190611112565b6001820160006101000a81549073ffffffffffffffffffffffffffffffffffffffff02191690556001820160146101000a81549060ff02191690556002820160006110dd9190611112565b50600301611079565b5090565b90565b61110f91905b8082111561110b5760008160009055506001016110f3565b5090565b90565b50805460018160011615610100020316600290046000825580601f106111385750611157565b601f01602090049060005260206000209081019061115691906110ed565b5b505600a165627a7a723058200bba65027302939f4bf69341dd64e331da4031d170184e8f7fe1556f76db6e420029",
  "source": "pragma solidity ^0.4.18;\n\n\nimport { CoinWar } from \"./CoinWar.sol\";\n\ncontract WarFactory {\n\n\n  struct War {\n    string opponents;\n    CoinWar coinWar;\n    bool isOngoing;\n    string warID;\n  }\n\n  War[] public allWars;\n  uint public ongGoingWars = 10;\n\n  address public owner;\n\n  function WarFactory()\n    public\n  {\n    owner = msg.sender;\n  }\n\n  event NewWarStarted(string warID);\n\n  /* function createCoinWar(string _opponents, address _tokeOne, address _tokenTwo, uint _fromBlock, uint _toBlock)\n    public\n    onlyOwner\n  {\n    ongGoingWars += 1;\n    CoinWar newWar = new CoinWar(_tokeOne, _tokenTwo, _fromBlock, _toBlock);\n    allWars.push(War(_opponents, newWar, true));\n\n  } */\n\n  function createCoinWar(string _opponents, address _coinWarAddress, string _warID) public onlyOwner {\n    ongGoingWars += 1;\n    allWars.push(War(_opponents, CoinWar(_coinWarAddress), true, _warID));\n    NewWarStarted(_warID);\n  }\n\n  function closeWarAtIndex(uint index, address[] winningAddresses, uint[] winningBets, address winningContract, address[] loosingAddresses, uint[] loosingBets, address loosingContract)\n    public\n    onlyOwner\n  {\n    ongGoingWars -= 1;\n    allWars[index].isOngoing = false;\n    CoinWar(allWars[index].coinWar).setResults(winningAddresses, winningBets, winningContract, loosingAddresses, loosingBets, loosingContract);\n  }\n\n  function getWarAtIndex(uint index)\n    public\n    view\n    returns (string,address, address, uint, uint, uint, uint, address)\n  {\n    CoinWar coinWar = CoinWar(allWars[index].coinWar);\n    var (balance1, balance2) = coinWar.getOpponentsBalance();\n    return (allWars[index].opponents, address(coinWar.token1()), address(coinWar.token2()), balance1, balance2, coinWar.fromBlock(), coinWar.toBlock(), address(coinWar));\n  }\n\n  modifier onlyOwner() {\n    require(msg.sender == owner);\n    _ ;\n  }\n\n  function getWarsCount() public view returns (uint) {\n    return allWars.length;\n  }\n\n}\n",
  "sourcePath": "/Volumes/HD-B1/dapps/coinwars/src/solidity/contracts/WarFactory.sol",
  "compiler": {
    "name": "solc",
    "version": "0.4.19+commit.c4cbbb05.Emscripten.clang"
  },
  "schemaVersion": "2.0.0",
  "updatedAt": "2018-03-29T06:42:48.761Z"
}