{
  "contractName": "WarFactory",
  "abi": [
    {
      "constant": true,
      "inputs": [],
      "name": "ongGoingWars",
      "outputs": [
        {
          "name": "",
          "type": "uint256"
        }
      ],
      "payable": false,
      "stateMutability": "view",
      "type": "function"
    },
    {
      "constant": true,
      "inputs": [],
      "name": "owner",
      "outputs": [
        {
          "name": "",
          "type": "address"
        }
      ],
      "payable": false,
      "stateMutability": "view",
      "type": "function"
    },
    {
      "constant": true,
      "inputs": [
        {
          "name": "",
          "type": "uint256"
        }
      ],
      "name": "allWars",
      "outputs": [
        {
          "name": "opponents",
          "type": "string"
        },
        {
          "name": "coinWar",
          "type": "address"
        },
        {
          "name": "isOngoing",
          "type": "bool"
        },
        {
          "name": "warID",
          "type": "string"
        }
      ],
      "payable": false,
      "stateMutability": "view",
      "type": "function"
    },
    {
      "inputs": [],
      "payable": false,
      "stateMutability": "nonpayable",
      "type": "constructor"
    },
    {
      "anonymous": false,
      "inputs": [
        {
          "indexed": false,
          "name": "warID",
          "type": "string"
        }
      ],
      "name": "NewWarStarted",
      "type": "event"
    },
    {
      "constant": false,
      "inputs": [
        {
          "name": "_opponents",
          "type": "string"
        },
        {
          "name": "_coinWarAddress",
          "type": "address"
        },
        {
          "name": "_warID",
          "type": "string"
        }
      ],
      "name": "createCoinWar",
      "outputs": [],
      "payable": false,
      "stateMutability": "nonpayable",
      "type": "function"
    },
    {
      "constant": false,
      "inputs": [
        {
          "name": "index",
          "type": "uint256"
        },
        {
          "name": "winningAddresses",
          "type": "address[]"
        },
        {
          "name": "winningBets",
          "type": "uint256[]"
        },
        {
          "name": "winningContract",
          "type": "address"
        },
        {
          "name": "loosingAddresses",
          "type": "address[]"
        },
        {
          "name": "loosingBets",
          "type": "uint256[]"
        },
        {
          "name": "loosingContract",
          "type": "address"
        }
      ],
      "name": "closeWarAtIndex",
      "outputs": [],
      "payable": false,
      "stateMutability": "nonpayable",
      "type": "function"
    },
    {
      "constant": true,
      "inputs": [
        {
          "name": "index",
          "type": "uint256"
        }
      ],
      "name": "getWarAtIndex",
      "outputs": [
        {
          "name": "",
          "type": "string"
        },
        {
          "name": "",
          "type": "address"
        },
        {
          "name": "",
          "type": "address"
        },
        {
          "name": "",
          "type": "uint256"
        },
        {
          "name": "",
          "type": "uint256"
        },
        {
          "name": "",
          "type": "uint256"
        },
        {
          "name": "",
          "type": "uint256"
        }
      ],
      "payable": false,
      "stateMutability": "view",
      "type": "function"
    },
    {
      "constant": true,
      "inputs": [],
      "name": "getWarsCount",
      "outputs": [
        {
          "name": "",
          "type": "uint256"
        }
      ],
      "payable": false,
      "stateMutability": "view",
      "type": "function"
    }
  ],
  "bytecode": "0x6060604052600a600155341561001457600080fd5b33600260006101000a81548173ffffffffffffffffffffffffffffffffffffffff021916908373ffffffffffffffffffffffffffffffffffffffff16021790555061106e806100646000396000f300606060405260043610610083576000357c0100000000000000000000000000000000000000000000000000000000900463ffffffff16806310302a6114610088578063445bca0b146101a65780634ea32331146101cf5780635d9d425b1461028e5780638da5cb5b146103ef578063b0d8ce0f14610444578063f4581b67146105c4575b600080fd5b341561009357600080fd5b6100a960048080359060200190919050506105ed565b60405180806020018873ffffffffffffffffffffffffffffffffffffffff1673ffffffffffffffffffffffffffffffffffffffff1681526020018773ffffffffffffffffffffffffffffffffffffffff1673ffffffffffffffffffffffffffffffffffffffff168152602001868152602001858152602001848152602001838152602001828103825289818151815260200191508051906020019080838360005b8381101561016557808201518184015260208101905061014a565b50505050905090810190601f1680156101925780820380516001836020036101000a031916815260200191505b509850505050505050505060405180910390f35b34156101b157600080fd5b6101b96108eb565b6040518082815260200191505060405180910390f35b34156101da57600080fd5b61028c600480803590602001908201803590602001908080601f0160208091040260200160405190810160405280939291908181526020018383808284378201915050505050509190803573ffffffffffffffffffffffffffffffffffffffff1690602001909190803590602001908201803590602001908080601f016020809104026020016040519081016040528093929190818152602001838380828437820191505050505050919050506108f1565b005b341561029957600080fd5b6103ed6004808035906020019091908035906020019082018035906020019080806020026020016040519081016040528093929190818152602001838360200280828437820191505050505050919080359060200190820180359060200190808060200260200160405190810160405280939291908181526020018383602002808284378201915050505050509190803573ffffffffffffffffffffffffffffffffffffffff16906020019091908035906020019082018035906020019080806020026020016040519081016040528093929190818152602001838360200280828437820191505050505050919080359060200190820180359060200190808060200260200160405190810160405280939291908181526020018383602002808284378201915050505050509190803573ffffffffffffffffffffffffffffffffffffffff16906020019091905050610b06565b005b34156103fa57600080fd5b610402610df9565b604051808273ffffffffffffffffffffffffffffffffffffffff1673ffffffffffffffffffffffffffffffffffffffff16815260200191505060405180910390f35b341561044f57600080fd5b6104656004808035906020019091905050610e1f565b60405180806020018573ffffffffffffffffffffffffffffffffffffffff1673ffffffffffffffffffffffffffffffffffffffff168152602001841515151581526020018060200183810383528781815460018160011615610100020316600290048152602001915080546001816001161561010002031660029004801561052e5780601f106105035761010080835404028352916020019161052e565b820191906000526020600020905b81548152906001019060200180831161051157829003601f168201915b50508381038252848181546001816001161561010002031660029004815260200191508054600181600116156101000203166002900480156105b15780601f10610586576101008083540402835291602001916105b1565b820191906000526020600020905b81548152906001019060200180831161059457829003601f168201915b5050965050505050505060405180910390f35b34156105cf57600080fd5b6105d7610e89565b6040518082815260200191505060405180910390f35b6105f5610e95565b6000806000806000806000806000808b81548110151561061157fe5b906000526020600020906003020160010160009054906101000a900473ffffffffffffffffffffffffffffffffffffffff1692508273ffffffffffffffffffffffffffffffffffffffff16635a774cd06000604051604001526040518163ffffffff167c01000000000000000000000000000000000000000000000000000000000281526004016040805180830381600087803b15156106b057600080fd5b6102c65a03f115156106c157600080fd5b505050604051805190602001805190509150915060008b8154811015156106e457fe5b90600052602060002090600302016000018373ffffffffffffffffffffffffffffffffffffffff168473ffffffffffffffffffffffffffffffffffffffff1684848773ffffffffffffffffffffffffffffffffffffffff1663ed6a6d286000604051602001526040518163ffffffff167c0100000000000000000000000000000000000000000000000000000000028152600401602060405180830381600087803b151561079157600080fd5b6102c65a03f115156107a257600080fd5b505050604051805190508873ffffffffffffffffffffffffffffffffffffffff1663970065916000604051602001526040518163ffffffff167c0100000000000000000000000000000000000000000000000000000000028152600401602060405180830381600087803b151561081857600080fd5b6102c65a03f1151561082957600080fd5b50505060405180519050868054600181600116156101000203166002900480601f0160208091040260200160405190810160405280929190818152602001828054600181600116156101000203166002900480156108c85780601f1061089d576101008083540402835291602001916108c8565b820191906000526020600020905b8154815290600101906020018083116108ab57829003601f168201915b505050505096509950995099509950995099509950505050919395979092949650565b60015481565b600260009054906101000a900473ffffffffffffffffffffffffffffffffffffffff1673ffffffffffffffffffffffffffffffffffffffff163373ffffffffffffffffffffffffffffffffffffffff1614151561094d57600080fd5b60018060008282540192505081905550600080548060010182816109719190610ea9565b916000526020600020906003020160006080604051908101604052808781526020018673ffffffffffffffffffffffffffffffffffffffff16815260200160011515815260200185815250909190915060008201518160000190805190602001906109dd929190610edb565b5060208201518160010160006101000a81548173ffffffffffffffffffffffffffffffffffffffff021916908373ffffffffffffffffffffffffffffffffffffffff16021790555060408201518160010160146101000a81548160ff0219169083151502179055506060820151816002019080519060200190610a61929190610edb565b505050507f066101f2818ae85b2c7919403bce74a6c49bcb9200fb5d041daed7fa9d8c9f3e816040518080602001828103825283818151815260200191508051906020019080838360005b83811015610ac7578082015181840152602081019050610aac565b50505050905090810190601f168015610af45780820380516001836020036101000a031916815260200191505b509250505060405180910390a1505050565b600260009054906101000a900473ffffffffffffffffffffffffffffffffffffffff1673ffffffffffffffffffffffffffffffffffffffff163373ffffffffffffffffffffffffffffffffffffffff16141515610b6257600080fd5b6001806000828254039250508190555060008088815481101515610b8257fe5b906000526020600020906003020160010160146101000a81548160ff021916908315150217905550600087815481101515610bb957fe5b906000526020600020906003020160010160009054906101000a900473ffffffffffffffffffffffffffffffffffffffff1673ffffffffffffffffffffffffffffffffffffffff16632c5bacd98787878787876040518763ffffffff167c01000000000000000000000000000000000000000000000000000000000281526004018080602001806020018773ffffffffffffffffffffffffffffffffffffffff1673ffffffffffffffffffffffffffffffffffffffff16815260200180602001806020018673ffffffffffffffffffffffffffffffffffffffff1673ffffffffffffffffffffffffffffffffffffffff16815260200185810385528b818151815260200191508051906020019060200280838360005b83811015610cea578082015181840152602081019050610ccf565b5050505090500185810384528a818151815260200191508051906020019060200280838360005b83811015610d2c578082015181840152602081019050610d11565b50505050905001858103835288818151815260200191508051906020019060200280838360005b83811015610d6e578082015181840152602081019050610d53565b50505050905001858103825287818151815260200191508051906020019060200280838360005b83811015610db0578082015181840152602081019050610d95565b505050509050019a5050505050505050505050600060405180830381600087803b1515610ddc57600080fd5b6102c65a03f11515610ded57600080fd5b50505050505050505050565b600260009054906101000a900473ffffffffffffffffffffffffffffffffffffffff1681565b600081815481101515610e2e57fe5b906000526020600020906003020160009150905080600001908060010160009054906101000a900473ffffffffffffffffffffffffffffffffffffffff16908060010160149054906101000a900460ff169080600201905084565b60008080549050905090565b602060405190810160405280600081525090565b815481835581811511610ed657600302816003028360005260206000209182019101610ed59190610f5b565b5b505050565b828054600181600116156101000203166002900490600052602060002090601f016020900481019282601f10610f1c57805160ff1916838001178555610f4a565b82800160010185558215610f4a579182015b82811115610f49578251825591602001919060010190610f2e565b5b509050610f579190610fd5565b5090565b610fd291905b80821115610fce5760008082016000610f7a9190610ffa565b6001820160006101000a81549073ffffffffffffffffffffffffffffffffffffffff02191690556001820160146101000a81549060ff0219169055600282016000610fc59190610ffa565b50600301610f61565b5090565b90565b610ff791905b80821115610ff3576000816000905550600101610fdb565b5090565b90565b50805460018160011615610100020316600290046000825580601f10611020575061103f565b601f01602090049060005260206000209081019061103e9190610fd5565b5b505600a165627a7a72305820d9351ee13c3013205ecfe16100a5851ca4847eb7799bae4aa1ca580dcbe706a00029",
  "source": "pragma solidity ^0.4.18;\n\n\nimport { CoinWar } from \"./CoinWar.sol\";\n\ncontract WarFactory {\n\n\n  struct War {\n    string opponents;\n    CoinWar coinWar;\n    bool isOngoing;\n    string warID;\n  }\n\n  War[] public allWars;\n  uint public ongGoingWars = 10;\n\n  address public owner;\n\n  function WarFactory()\n    public\n  {\n    owner = msg.sender;\n  }\n\n  event NewWarStarted(string warID);\n\n  /* function createCoinWar(string _opponents, address _tokeOne, address _tokenTwo, uint _fromBlock, uint _toBlock)\n    public\n    onlyOwner\n  {\n    ongGoingWars += 1;\n    CoinWar newWar = new CoinWar(_tokeOne, _tokenTwo, _fromBlock, _toBlock);\n    allWars.push(War(_opponents, newWar, true));\n\n  } */\n\n  function createCoinWar(string _opponents, address _coinWarAddress, string _warID) public onlyOwner {\n    ongGoingWars += 1;\n    allWars.push(War(_opponents, CoinWar(_coinWarAddress), true, _warID));\n    NewWarStarted(_warID);\n  }\n\n  function closeWarAtIndex(uint index, address[] winningAddresses, uint[] winningBets, address winningContract, address[] loosingAddresses, uint[] loosingBets, address loosingContract)\n    public\n    onlyOwner\n  {\n    ongGoingWars -= 1;\n    allWars[index].isOngoing = false;\n    CoinWar(allWars[index].coinWar).setResults(winningAddresses, winningBets, winningContract, loosingAddresses, loosingBets, loosingContract);\n  }\n\n  function getWarAtIndex(uint index)\n    public\n    view\n    returns (string,address, address, uint, uint, uint, uint)\n  {\n    CoinWar coinWar = CoinWar(allWars[index].coinWar);\n    var (balance1, balance2) = coinWar.getOpponentsBalance();\n    return (allWars[index].opponents, address(coinWar.token1), address(coinWar.token2), balance1, balance2, coinWar.fromBlock(), coinWar.toBlock());\n  }\n\n  modifier onlyOwner() {\n    require(msg.sender == owner);\n    _ ;\n  }\n\n  function getWarsCount() public view returns (uint) {\n    return allWars.length;\n  }\n\n}\n",
  "sourcePath": "/Volumes/HD-B1/dapps/coinwars/src/solidity/contracts/WarFactory.sol",
  "compiler": {
    "name": "solc",
    "version": "0.4.19+commit.c4cbbb05.Emscripten.clang"
  },
  "schemaVersion": "2.0.0",
  "updatedAt": "2018-03-25T12:16:59.437Z"
}