{
  "contractName": "WarFactory",
  "abi": [
    {
      "constant": true,
      "inputs": [],
      "name": "ongGoingWars",
      "outputs": [
        {
          "name": "",
          "type": "uint256"
        }
      ],
      "payable": false,
      "stateMutability": "view",
      "type": "function"
    },
    {
      "constant": true,
      "inputs": [],
      "name": "owner",
      "outputs": [
        {
          "name": "",
          "type": "address"
        }
      ],
      "payable": false,
      "stateMutability": "view",
      "type": "function"
    },
    {
      "constant": true,
      "inputs": [
        {
          "name": "",
          "type": "uint256"
        }
      ],
      "name": "allWars",
      "outputs": [
        {
          "name": "opponents",
          "type": "string"
        },
        {
          "name": "coinWar",
          "type": "address"
        },
        {
          "name": "isOngoing",
          "type": "bool"
        }
      ],
      "payable": false,
      "stateMutability": "view",
      "type": "function"
    },
    {
      "inputs": [],
      "payable": false,
      "stateMutability": "nonpayable",
      "type": "constructor"
    },
    {
      "anonymous": false,
      "inputs": [
        {
          "indexed": false,
          "name": "index",
          "type": "uint256"
        }
      ],
      "name": "WarClosed",
      "type": "event"
    },
    {
      "constant": false,
      "inputs": [
        {
          "name": "_opponents",
          "type": "string"
        },
        {
          "name": "_tokeOne",
          "type": "address"
        },
        {
          "name": "_tokenTwo",
          "type": "address"
        },
        {
          "name": "_fromBlock",
          "type": "uint256"
        },
        {
          "name": "_toBlock",
          "type": "uint256"
        }
      ],
      "name": "createCoinWar",
      "outputs": [],
      "payable": false,
      "stateMutability": "nonpayable",
      "type": "function"
    },
    {
      "constant": false,
      "inputs": [
        {
          "name": "index",
          "type": "uint256"
        },
        {
          "name": "winningAddresses",
          "type": "address[]"
        },
        {
          "name": "winningBets",
          "type": "uint256[]"
        },
        {
          "name": "winningContract",
          "type": "address"
        },
        {
          "name": "loosingAddresses",
          "type": "address[]"
        },
        {
          "name": "loosingBets",
          "type": "uint256[]"
        },
        {
          "name": "loosingContract",
          "type": "address"
        }
      ],
      "name": "closeWarAtIndex",
      "outputs": [],
      "payable": false,
      "stateMutability": "nonpayable",
      "type": "function"
    },
    {
      "constant": true,
      "inputs": [
        {
          "name": "index",
          "type": "uint256"
        }
      ],
      "name": "getWarAtIndex",
      "outputs": [
        {
          "name": "",
          "type": "string"
        },
        {
          "name": "",
          "type": "address"
        },
        {
          "name": "",
          "type": "address"
        },
        {
          "name": "",
          "type": "uint256"
        },
        {
          "name": "",
          "type": "uint256"
        },
        {
          "name": "",
          "type": "uint256"
        },
        {
          "name": "",
          "type": "uint256"
        },
        {
          "name": "",
          "type": "address"
        }
      ],
      "payable": false,
      "stateMutability": "view",
      "type": "function"
    },
    {
      "constant": true,
      "inputs": [],
      "name": "getWarsCount",
      "outputs": [
        {
          "name": "",
          "type": "uint256"
        }
      ],
      "payable": false,
      "stateMutability": "view",
      "type": "function"
    }
  ],
  "bytecode": "0x6060604052341561000f57600080fd5b33600260006101000a81548173ffffffffffffffffffffffffffffffffffffffff021916908373ffffffffffffffffffffffffffffffffffffffff1602179055506126a68061005f6000396000f300606060405260043610610083576000357c0100000000000000000000000000000000000000000000000000000000900463ffffffff16806310302a61146100885780633af6f418146101d9578063445bca0b146102865780635d9d425b146102af5780638da5cb5b14610410578063b0d8ce0f14610465578063f4581b671461055c575b600080fd5b341561009357600080fd5b6100a96004808035906020019091905050610585565b60405180806020018973ffffffffffffffffffffffffffffffffffffffff1673ffffffffffffffffffffffffffffffffffffffff1681526020018873ffffffffffffffffffffffffffffffffffffffff1673ffffffffffffffffffffffffffffffffffffffff1681526020018781526020018681526020018581526020018481526020018373ffffffffffffffffffffffffffffffffffffffff1673ffffffffffffffffffffffffffffffffffffffff16815260200182810382528a818151815260200191508051906020019080838360005b8381101561019757808201518184015260208101905061017c565b50505050905090810190601f1680156101c45780820380516001836020036101000a031916815260200191505b50995050505050505050505060405180910390f35b34156101e457600080fd5b610284600480803590602001908201803590602001908080601f0160208091040260200160405190810160405280939291908181526020018383808284378201915050505050509190803573ffffffffffffffffffffffffffffffffffffffff1690602001909190803573ffffffffffffffffffffffffffffffffffffffff16906020019091908035906020019091908035906020019091905050610968565b005b341561029157600080fd5b610299610b5e565b6040518082815260200191505060405180910390f35b34156102ba57600080fd5b61040e6004808035906020019091908035906020019082018035906020019080806020026020016040519081016040528093929190818152602001838360200280828437820191505050505050919080359060200190820180359060200190808060200260200160405190810160405280939291908181526020018383602002808284378201915050505050509190803573ffffffffffffffffffffffffffffffffffffffff16906020019091908035906020019082018035906020019080806020026020016040519081016040528093929190818152602001838360200280828437820191505050505050919080359060200190820180359060200190808060200260200160405190810160405280939291908181526020018383602002808284378201915050505050509190803573ffffffffffffffffffffffffffffffffffffffff16906020019091905050610b64565b005b341561041b57600080fd5b610423610e8e565b604051808273ffffffffffffffffffffffffffffffffffffffff1673ffffffffffffffffffffffffffffffffffffffff16815260200191505060405180910390f35b341561047057600080fd5b6104866004808035906020019091905050610eb4565b60405180806020018473ffffffffffffffffffffffffffffffffffffffff1673ffffffffffffffffffffffffffffffffffffffff1681526020018315151515815260200182810382528581815460018160011615610100020316600290048152602001915080546001816001161561010002031660029004801561054b5780601f106105205761010080835404028352916020019161054b565b820191906000526020600020905b81548152906001019060200180831161052e57829003601f168201915b505094505050505060405180910390f35b341561056757600080fd5b61056f610f19565b6040518082815260200191505060405180910390f35b61058d610f25565b60008060008060008060008060008060008c8154811015156105ab57fe5b906000526020600020906002020160010160009054906101000a900473ffffffffffffffffffffffffffffffffffffffff1692508273ffffffffffffffffffffffffffffffffffffffff16635a774cd06000604051604001526040518163ffffffff167c01000000000000000000000000000000000000000000000000000000000281526004016040805180830381600087803b151561064a57600080fd5b6102c65a03f1151561065b57600080fd5b505050604051805190602001805190509150915060008c81548110151561067e57fe5b90600052602060002090600202016000018373ffffffffffffffffffffffffffffffffffffffff1663d21220a76000604051602001526040518163ffffffff167c0100000000000000000000000000000000000000000000000000000000028152600401602060405180830381600087803b15156106fb57600080fd5b6102c65a03f1151561070c57600080fd5b505050604051805190508473ffffffffffffffffffffffffffffffffffffffff166325be124e6000604051602001526040518163ffffffff167c0100000000000000000000000000000000000000000000000000000000028152600401602060405180830381600087803b151561078257600080fd5b6102c65a03f1151561079357600080fd5b5050506040518051905084848773ffffffffffffffffffffffffffffffffffffffff1663ed6a6d286000604051602001526040518163ffffffff167c0100000000000000000000000000000000000000000000000000000000028152600401602060405180830381600087803b151561080b57600080fd5b6102c65a03f1151561081c57600080fd5b505050604051805190508873ffffffffffffffffffffffffffffffffffffffff1663970065916000604051602001526040518163ffffffff167c0100000000000000000000000000000000000000000000000000000000028152600401602060405180830381600087803b151561089257600080fd5b6102c65a03f115156108a357600080fd5b5050506040518051905089878054600181600116156101000203166002900480601f0160208091040260200160405190810160405280929190818152602001828054600181600116156101000203166002900480156109435780601f1061091857610100808354040283529160200191610943565b820191906000526020600020905b81548152906001019060200180831161092657829003601f168201915b505050505097509a509a509a509a509a509a509a509a50505050919395975091939597565b6000600260009054906101000a900473ffffffffffffffffffffffffffffffffffffffff1673ffffffffffffffffffffffffffffffffffffffff163373ffffffffffffffffffffffffffffffffffffffff161415156109c657600080fd5b60018060008282540192505081905550848484846109e2610f39565b808573ffffffffffffffffffffffffffffffffffffffff1673ffffffffffffffffffffffffffffffffffffffff1681526020018473ffffffffffffffffffffffffffffffffffffffff1673ffffffffffffffffffffffffffffffffffffffff168152602001838152602001828152602001945050505050604051809103906000f0801515610a6f57600080fd5b905060008054806001018281610a859190610f49565b916000526020600020906002020160006060604051908101604052808a81526020018573ffffffffffffffffffffffffffffffffffffffff1681526020016001151581525090919091506000820151816000019080519060200190610aeb929190610f7b565b5060208201518160010160006101000a81548173ffffffffffffffffffffffffffffffffffffffff021916908373ffffffffffffffffffffffffffffffffffffffff16021790555060408201518160010160146101000a81548160ff021916908315150217905550505050505050505050565b60015481565b600260009054906101000a900473ffffffffffffffffffffffffffffffffffffffff1673ffffffffffffffffffffffffffffffffffffffff163373ffffffffffffffffffffffffffffffffffffffff16141515610bc057600080fd5b6001806000828254039250508190555060008088815481101515610be057fe5b906000526020600020906002020160010160146101000a81548160ff021916908315150217905550600087815481101515610c1757fe5b906000526020600020906002020160010160009054906101000a900473ffffffffffffffffffffffffffffffffffffffff1673ffffffffffffffffffffffffffffffffffffffff16632c5bacd98787878787876040518763ffffffff167c01000000000000000000000000000000000000000000000000000000000281526004018080602001806020018773ffffffffffffffffffffffffffffffffffffffff1673ffffffffffffffffffffffffffffffffffffffff16815260200180602001806020018673ffffffffffffffffffffffffffffffffffffffff1673ffffffffffffffffffffffffffffffffffffffff16815260200185810385528b818151815260200191508051906020019060200280838360005b83811015610d48578082015181840152602081019050610d2d565b5050505090500185810384528a818151815260200191508051906020019060200280838360005b83811015610d8a578082015181840152602081019050610d6f565b50505050905001858103835288818151815260200191508051906020019060200280838360005b83811015610dcc578082015181840152602081019050610db1565b50505050905001858103825287818151815260200191508051906020019060200280838360005b83811015610e0e578082015181840152602081019050610df3565b505050509050019a5050505050505050505050600060405180830381600087803b1515610e3a57600080fd5b6102c65a03f11515610e4b57600080fd5b5050507f51e788a162c32dbd4ba0c09fde4333bbf53bc60ca1491ea205c94614875e22ad876040518082815260200191505060405180910390a150505050505050565b600260009054906101000a900473ffffffffffffffffffffffffffffffffffffffff1681565b600081815481101515610ec357fe5b906000526020600020906002020160009150905080600001908060010160009054906101000a900473ffffffffffffffffffffffffffffffffffffffff16908060010160149054906101000a900460ff16905083565b60008080549050905090565b602060405190810160405280600081525090565b6040516115a8806110d383390190565b815481835581811511610f7657600202816002028360005260206000209182019101610f759190610ffb565b5b505050565b828054600181600116156101000203166002900490600052602060002090601f016020900481019282601f10610fbc57805160ff1916838001178555610fea565b82800160010185558215610fea579182015b82811115610fe9578251825591602001919060010190610fce565b5b509050610ff79190611065565b5090565b61106291905b8082111561105e576000808201600061101a919061108a565b6001820160006101000a81549073ffffffffffffffffffffffffffffffffffffffff02191690556001820160146101000a81549060ff021916905550600201611001565b5090565b90565b61108791905b8082111561108357600081600090555060010161106b565b5090565b90565b50805460018160011615610100020316600290046000825580601f106110b057506110cf565b601f0160209004906000526020600020908101906110ce9190611065565b5b5056006060604052341561000f57600080fd5b6040516080806115a883398101604052808051906020019091908051906020019091908051906020019091908051906020019091905050600073ffffffffffffffffffffffffffffffffffffffff168473ffffffffffffffffffffffffffffffffffffffff161415151561008257600080fd5b600073ffffffffffffffffffffffffffffffffffffffff168373ffffffffffffffffffffffffffffffffffffffff16141515156100be57600080fd5b836000806101000a81548173ffffffffffffffffffffffffffffffffffffffff021916908373ffffffffffffffffffffffffffffffffffffffff16021790555082600160006101000a81548173ffffffffffffffffffffffffffffffffffffffff021916908373ffffffffffffffffffffffffffffffffffffffff16021790555081600a8190555080600b8190555033600860006101000a81548173ffffffffffffffffffffffffffffffffffffffff021916908373ffffffffffffffffffffffffffffffffffffffff16021790555050505050611407806101a16000396000f3006060604052600436106100e6576000357c0100000000000000000000000000000000000000000000000000000000900463ffffffff16806325be124e146100eb5780632c5bacd9146101405780633ccfd60b1461029857806342eec2ed146102ad578063486a7e6b146102da5780635a774cd014610303578063640e48f6146103335780638a8e021b1461038f5780638da5cb5b146103d8578063970065911461042d578063c96adb0114610456578063d21220a7146104aa578063d5b2a01a146104ff578063dfbf53ae14610528578063ed6a6d2814610584578063f1820389146105ad575b600080fd5b34156100f657600080fd5b6100fe6105fa565b604051808273ffffffffffffffffffffffffffffffffffffffff1673ffffffffffffffffffffffffffffffffffffffff16815260200191505060405180910390f35b341561014b57600080fd5b6102966004808035906020019082018035906020019080806020026020016040519081016040528093929190818152602001838360200280828437820191505050505050919080359060200190820180359060200190808060200260200160405190810160405280939291908181526020018383602002808284378201915050505050509190803573ffffffffffffffffffffffffffffffffffffffff16906020019091908035906020019082018035906020019080806020026020016040519081016040528093929190818152602001838360200280828437820191505050505050919080359060200190820180359060200190808060200260200160405190810160405280939291908181526020018383602002808284378201915050505050509190803573ffffffffffffffffffffffffffffffffffffffff16906020019091905050610620565b005b34156102a357600080fd5b6102ab610a5f565b005b34156102b857600080fd5b6102c0610d37565b604051808215151515815260200191505060405180910390f35b34156102e557600080fd5b6102ed610d4a565b6040518082815260200191505060405180910390f35b341561030e57600080fd5b610316610d50565b604051808381526020018281526020019250505060405180910390f35b341561033e57600080fd5b610346610f1a565b604051808373ffffffffffffffffffffffffffffffffffffffff1673ffffffffffffffffffffffffffffffffffffffff1681526020018281526020019250505060405180910390f35b341561039a57600080fd5b6103c26004808035906020019091908035906020019091908035906020019091905050610f4c565b6040518082815260200191505060405180910390f35b34156103e357600080fd5b6103eb610f9b565b604051808273ffffffffffffffffffffffffffffffffffffffff1673ffffffffffffffffffffffffffffffffffffffff16815260200191505060405180910390f35b341561043857600080fd5b610440610fc1565b6040518082815260200191505060405180910390f35b341561046157600080fd5b61048d600480803573ffffffffffffffffffffffffffffffffffffffff16906020019091905050610fc7565b604051808381526020018281526020019250505060405180910390f35b34156104b557600080fd5b6104bd611059565b604051808273ffffffffffffffffffffffffffffffffffffffff1673ffffffffffffffffffffffffffffffffffffffff16815260200191505060405180910390f35b341561050a57600080fd5b61051261107e565b6040518082815260200191505060405180910390f35b341561053357600080fd5b61053b611084565b604051808373ffffffffffffffffffffffffffffffffffffffff1673ffffffffffffffffffffffffffffffffffffffff1681526020018281526020019250505060405180910390f35b341561058f57600080fd5b6105976110b6565b6040518082815260200191505060405180910390f35b34156105b857600080fd5b6105e4600480803573ffffffffffffffffffffffffffffffffffffffff169060200190919050506110bc565b6040518082815260200191505060405180910390f35b600160009054906101000a900473ffffffffffffffffffffffffffffffffffffffff1681565b600080600860009054906101000a900473ffffffffffffffffffffffffffffffffffffffff1673ffffffffffffffffffffffffffffffffffffffff163373ffffffffffffffffffffffffffffffffffffffff1614151561067f57600080fd5b8651885114151561068f57600080fd5b8351855114151561069f57600080fd5b8273ffffffffffffffffffffffffffffffffffffffff168673ffffffffffffffffffffffffffffffffffffffff16141515156106da57600080fd5b6000809054906101000a900473ffffffffffffffffffffffffffffffffffffffff1673ffffffffffffffffffffffffffffffffffffffff168673ffffffffffffffffffffffffffffffffffffffff1614806107825750600160009054906101000a900473ffffffffffffffffffffffffffffffffffffffff1673ffffffffffffffffffffffffffffffffffffffff168673ffffffffffffffffffffffffffffffffffffffff16145b151561078d57600080fd5b6000809054906101000a900473ffffffffffffffffffffffffffffffffffffffff1673ffffffffffffffffffffffffffffffffffffffff168373ffffffffffffffffffffffffffffffffffffffff1614806108355750600160009054906101000a900473ffffffffffffffffffffffffffffffffffffffff1673ffffffffffffffffffffffffffffffffffffffff168373ffffffffffffffffffffffffffffffffffffffff16145b151561084057600080fd5b85600260000160006101000a81548173ffffffffffffffffffffffffffffffffffffffff021916908373ffffffffffffffffffffffffffffffffffffffff16021790555082600560000160006101000a81548173ffffffffffffffffffffffffffffffffffffffff021916908373ffffffffffffffffffffffffffffffffffffffff160217905550600091505b875182101561098a5786828151811015156108e457fe5b90602001906020020151600260010160008a8581518110151561090357fe5b9060200190602002015173ffffffffffffffffffffffffffffffffffffffff1673ffffffffffffffffffffffffffffffffffffffff16815260200190815260200160002060008282540192505081905550868281518110151561096257fe5b90602001906020020151600280016000828254019250508190555081806001019250506108cd565b600090505b8451811015610a4d5783818151811015156109a657fe5b906020019060200201516005600101600087848151811015156109c557fe5b9060200190602002015173ffffffffffffffffffffffffffffffffffffffff1673ffffffffffffffffffffffffffffffffffffffff168152602001908152602001600020600082825401925050819055508381815181101515610a2457fe5b90602001906020020151600560020160008282540192505081905550808060010191505061098f565b610a55611131565b5050505050505050565b60008060011515600d60009054906101000a900460ff161515141515610a8457600080fd5b600260010160003373ffffffffffffffffffffffffffffffffffffffff1673ffffffffffffffffffffffffffffffffffffffff16815260200190815260200160002054915060008214151515610ad957600080fd5b6000600280015414151515610aed57600080fd5b610b01600560020154836002800154610f4c565b905060008114151515610b1357600080fd5b6000600260010160003373ffffffffffffffffffffffffffffffffffffffff1673ffffffffffffffffffffffffffffffffffffffff16815260200190815260200160002081905550600560000160009054906101000a900473ffffffffffffffffffffffffffffffffffffffff1673ffffffffffffffffffffffffffffffffffffffff1663a9059cbb33836000604051602001526040518363ffffffff167c0100000000000000000000000000000000000000000000000000000000028152600401808373ffffffffffffffffffffffffffffffffffffffff1673ffffffffffffffffffffffffffffffffffffffff16815260200182815260200192505050602060405180830381600087803b1515610c2b57600080fd5b6102c65a03f11515610c3c57600080fd5b5050506040518051905050600260000160009054906101000a900473ffffffffffffffffffffffffffffffffffffffff1673ffffffffffffffffffffffffffffffffffffffff1663a9059cbb33846000604051602001526040518363ffffffff167c0100000000000000000000000000000000000000000000000000000000028152600401808373ffffffffffffffffffffffffffffffffffffffff1673ffffffffffffffffffffffffffffffffffffffff16815260200182815260200192505050602060405180830381600087803b1515610d1757600080fd5b6102c65a03f11515610d2857600080fd5b50505060405180519050505050565b600d60009054906101000a900460ff1681565b600c5481565b6000806000809054906101000a900473ffffffffffffffffffffffffffffffffffffffff1673ffffffffffffffffffffffffffffffffffffffff166370a08231306000604051602001526040518263ffffffff167c0100000000000000000000000000000000000000000000000000000000028152600401808273ffffffffffffffffffffffffffffffffffffffff1673ffffffffffffffffffffffffffffffffffffffff168152602001915050602060405180830381600087803b1515610e1757600080fd5b6102c65a03f11515610e2857600080fd5b50505060405180519050600160009054906101000a900473ffffffffffffffffffffffffffffffffffffffff1673ffffffffffffffffffffffffffffffffffffffff166370a08231306000604051602001526040518263ffffffff167c0100000000000000000000000000000000000000000000000000000000028152600401808273ffffffffffffffffffffffffffffffffffffffff1673ffffffffffffffffffffffffffffffffffffffff168152602001915050602060405180830381600087803b1515610ef757600080fd5b6102c65a03f11515610f0857600080fd5b50505060405180519050915091509091565b60058060000160009054906101000a900473ffffffffffffffffffffffffffffffffffffffff16908060020154905082565b6000808285101515610f6d5782848602811515610f6557fe5b049150610f93565b60018584811515610f7a57fe5b040190508083028185870202811515610f8f57fe5b0491505b509392505050565b600860009054906101000a900473ffffffffffffffffffffffffffffffffffffffff1681565b600b5481565b600080600260010160008473ffffffffffffffffffffffffffffffffffffffff1673ffffffffffffffffffffffffffffffffffffffff16815260200190815260200160002054600560010160008573ffffffffffffffffffffffffffffffffffffffff1673ffffffffffffffffffffffffffffffffffffffff1681526020019081526020016000205491509150915091565b6000809054906101000a900473ffffffffffffffffffffffffffffffffffffffff1681565b60095481565b60028060000160009054906101000a900473ffffffffffffffffffffffffffffffffffffffff16908060020154905082565b600a5481565b60008173ffffffffffffffffffffffffffffffffffffffff16600260000160009054906101000a900473ffffffffffffffffffffffffffffffffffffffff1673ffffffffffffffffffffffffffffffffffffffff161415611123576002800154905061112c565b60056002015490505b919050565b60006005600201541415156113be576111526005600201546001600a610f4c565b600c8190555061116a60056002015460016014610f4c565b600981905550600c54600560020160008282540392505081905550600954600560020160008282540392505081905550600560000160009054906101000a900473ffffffffffffffffffffffffffffffffffffffff1673ffffffffffffffffffffffffffffffffffffffff1663a9059cbb600560000160009054906101000a900473ffffffffffffffffffffffffffffffffffffffff16600c546000604051602001526040518363ffffffff167c0100000000000000000000000000000000000000000000000000000000028152600401808373ffffffffffffffffffffffffffffffffffffffff1673ffffffffffffffffffffffffffffffffffffffff16815260200182815260200192505050602060405180830381600087803b151561129157600080fd5b6102c65a03f115156112a257600080fd5b5050506040518051905050600560000160009054906101000a900473ffffffffffffffffffffffffffffffffffffffff1673ffffffffffffffffffffffffffffffffffffffff1663a9059cbb600860009054906101000a900473ffffffffffffffffffffffffffffffffffffffff166009546000604051602001526040518363ffffffff167c0100000000000000000000000000000000000000000000000000000000028152600401808373ffffffffffffffffffffffffffffffffffffffff1673ffffffffffffffffffffffffffffffffffffffff16815260200182815260200192505050602060405180830381600087803b15156113a157600080fd5b6102c65a03f115156113b257600080fd5b50505060405180519050505b6001600d60006101000a81548160ff0219169083151502179055505600a165627a7a72305820ca4e1c054fdcd8570aa634983ebb3217de2681b248b7f929386168b1ea0262e80029a165627a7a72305820e5a5b40862815083d59393d1b833d02adf444c80772eb45dede8a6d910f352b90029",
  "source": "pragma solidity ^0.4.18;\n\n\nimport { CoinWar } from \"./CoinWar.sol\";\n\ncontract WarFactory {\n  \n  struct War {\n    string opponents;\n    CoinWar coinWar;\n    bool isOngoing;\n  }\n\n  War[] public allWars;\n  uint public ongGoingWars;\n\n  address public owner;\n  event WarClosed(uint index);\n\n  function WarFactory()\n    public\n  {\n    owner = msg.sender;\n  }\n\n  function createCoinWar(string _opponents, address _tokeOne, address _tokenTwo, uint _fromBlock, uint _toBlock)\n    public\n    onlyOwner\n  {\n    ongGoingWars += 1;\n    CoinWar newWar = new CoinWar(_tokeOne, _tokenTwo, _fromBlock, _toBlock);\n    allWars.push(War(_opponents, newWar, true));\n  }\n\n  function closeWarAtIndex(uint index, address[] winningAddresses, uint[] winningBets, address winningContract, address[] loosingAddresses, uint[] loosingBets, address loosingContract)\n    public\n    onlyOwner\n  {\n    ongGoingWars -= 1;\n    allWars[index].isOngoing = false;\n    CoinWar(allWars[index].coinWar).setResults(winningAddresses, winningBets, winningContract, loosingAddresses, loosingBets, loosingContract);\n    WarClosed(index);\n  }\n\n  function getWarAtIndex(uint index)\n    public\n    view\n    returns (string,address, address, uint, uint, uint, uint, address)\n  {\n    CoinWar coinWar = CoinWar(allWars[index].coinWar);\n    var (balance1, balance2) = coinWar.getOpponentsBalance();\n    return (allWars[index].opponents, address(coinWar.token1()), address(coinWar.token2()), balance1, balance2, coinWar.fromBlock(), coinWar.toBlock(), address(coinWar));\n  }\n\n  modifier onlyOwner() {\n    require(msg.sender == owner);\n    _ ;\n  }\n\n  function getWarsCount() public view returns (uint) {\n    return allWars.length;\n  }\n\n}\n",
  "sourcePath": "/Volumes/HD-B1/dapps/coinwars/src/solidity/contracts/WarFactory.sol",
  "compiler": {
    "name": "solc",
    "version": "0.4.19+commit.c4cbbb05.Emscripten.clang"
  },
  "schemaVersion": "2.0.0",
  "updatedAt": "2018-04-03T10:07:39.024Z"
}